:020000041000EA
:1000000000B5324B212058609868022188439860DF
:10001000D860186158612E4B002199600221596106
:100020000121F02299502B49196001219960352056
:1000300000F044F80222904214D00621196600F024
:1000400034F8196E01211966002018661A6600F04E
:100050002CF8196E196E196E052000F02FF8012189
:100060000842F9D1002199601B49196000215960AB
:100070001A491B48016001219960EB211966A021F2
:10008000196600F012F800219960164914480160C1
:100090000121996001BC002800D000471248134993
:1000A000086003C880F30888084703B5996A0420EC
:1000B0000142FBD001200142F8D103BD02B5186610
:1000C0001866FFF7F2FF186E186E02BD00000240BE
:1000D000000000180000070000035F00212200005C
:1000E000F4000018222000A00001001008ED00E03C
:1000F00000000000000000000000000074B24E7A12
:1001000000200420F7010010CB010010CD010010E9
:10011000C9010010C9010010C9010010C901001077
:10012000C9010010C9010010C9010010CF01001061
:10013000C9010010C9010010D1010010D301001045
:10014000C1010010C1010010C1010010C101001067
:10015000C1010010C1010010C1010010C101001057
:10016000C1010010C1010010C1010010C101001047
:10017000C1010010C1010010C1010010C101001037
:10018000C1010010C1010010C1010010C101001027
:10019000C1010010C1010010C1010010C101001017
:1001A000C1010010C1010010C1010010C101001007
:1001B000C1010010C1010010C1010010C1010010F7
:1001C000EFF30580103800BE00BE00BE00BE00BECA
:1001D00000BE00BEF2EB8871D4B10010F4B1001083
:1001E0003802001090A31AE71E481F49086006C88D
:1001F00081F3088810471D480068002801D019487D
:10020000F3E70DA40ECC002902D000F012F8F9E7B4
:100210001749184A002000E001C19142FCD116495B
:100220008847164988471649884700BEFDE701C937
:1002300001C29A42FBD37047F4B10010C000002005
:100240006016002094C70010000004200000042065
:1002500094C70010001004200010042000000000CB
:10026000704700000000000008ED00E0000000D032
:100270006016002078400020C55D001021030010AA
:10028000BD5D0010F8B5C0460448054B10B583426B
:1002900003D0044B002B00D0984710BD60160020FF
:1002A000601600200000000006480749091A8B105C
:1002B000C90FC91810B5491003D0044B002B00D04A
:1002C000984710BD60160020601600200000000056
:1002D00010B5074C2378002B09D1FFF7D5FF054B4C
:1002E000002B02D0044800E000BF0123237010BDA2
:1002F000E819002000000000E4950010054B10B53F
:10030000002B03D00449054800E000BFFFF7CCFFF5
:1003100010BDC04600000000EC190020E49500105C
:1003200010B500F019F800F03BF8FCE7192010B503
:1003300001F06CFE0124D0228021064812060378C9
:10034000890463405162037001D0516110BD916115
:10035000FCE7C0467640002010B505F075FE02E0CF
:10036000642002F0E1FC06F035FA0028F8D000F035
:100370001BF801F053FD00F03BFBFA220549920007
:10038000054800F049FB054805F0FAFE00F0B6FB11
:1003900010BDC0462D030010E8950010F495001024
:1003A00010B500F0BFFB10BD70B5454C84B0200007
:1003B00000F004F900284CD003F02EF9002805D0F5
:1003C000404BDA68404B9A4200D168E0D026802545
:1003D0000F202D02360601F019FEB5620022012120
:1003E0000F2001F0F9FD052002F09EFC76682089BF
:1003F0002E4075427541E388000418430300303BEA
:10040000EDB2982B33D9A37A002B26D10A2005F020
:100410006BFE2E4805F0B4FE2D4805F0B1FE2D49C7
:100420002D4805F037FF2D4805F0AAFE2C4BAA00F9
:10043000D1582C4805F02EFF21002B480C3105F037
:1004400029FF0A2005F050FE002E24D0280004B019
:1004500070BD264805F094FEAEE7192001F0D6FDE8
:10046000D02380221B0692045A625A61CEE74301D0
:100470001B1A9B001818C00003AB02AA01A902F0C6
:100480002FFF002815D12189E38809041943184852
:1004900005F000FFB7E7174805F072FED6E71648EB
:1004A00005F06EFEC82002F03FFC0021002003F0A2
:1004B000F5F8039A0299019802F032FEE3E7C0468C
:1004C000B021002000800540DFDFDFDFC096001094
:1004D00030970010609700106C9700108C970010F8
:1004E00034980010FC9700100C9800100C96001027
:1004F00064960010809600103C96001070B50400C1
:100500003C220021043004F069F90223002220007B
:100510005B422370343B63700A3BA3701E33E3706D
:100520002333244923716271E3720C300F3208F0D7
:100530005FFE26000123250001201F493C365B4257
:100540002A7801355A405308024052420A4053402B
:100550005A0803405B420B405A4053080240524243
:100560000A4053405A0803405B420B405A4053082C
:10057000024052420A4053405A0803405B420B403B
:100580005A405308024052420A4053405A0803401E
:100590005B420B405340AE42D2D1DA433C213D2373
:1005A0006254110AE154110C0133E154120E01336B
:1005B000E25470BD409800102083B8EDF0B5C646F7
:1005C0008049814B0A68040000B59A4202D18B88A9
:1005D000012B5ED03C220021201D04F0FFF80223F5
:1005E000002220005B422370343B63700A3BA370FF
:1005F0001E33E3702333754923716271E3720F3246
:100600000C3008F0F5FD260001232500012070497B
:100610003C365B422A7801355A4053080240524228
:100620000A4053405A0803405B420B405A4053086B
:10063000024052420A4053405A0803405B420B407A
:100640005A405308024052420A4053405A0803405D
:100650005B420B405A405308024052420A4053400A
:100660005A0803405B420B405340AE42D2D1DA43BA
:100670003C213D236254110AE154110C0133E15431
:10068000120E0133E25400239846404680BCB8461F
:10069000F0BD402204F0A8F8260001232700200026
:1006A00001254B493C365B42027801305A405308E1
:1006B0002A4052420A4053405A082B405B420B40AA
:1006C0005A4053082A4052420A4053405A082B408D
:1006D0005B420B405A4053082A4052420A40534062
:1006E0005A082B405B420B405A4053082A40524262
:1006F0000A4053405A082B405B420B40534086420D
:10070000D2D13D213C22615CA25C090211433E2210
:10071000A25CDB43120411433F22A25C12060A438F
:10072000012188469A42B0D02A4805F029FD3C2292
:100730000021201D04F052F802235B422370343B59
:1007400063700A3BA3701E33E3704346200023719D
:1007500000231E4963710F22E5720C3008F048FD3A
:10076000012301201A495B423A7801375A40530865
:10077000024052420A4053405A0803405B420B4039
:100780005A405308024052420A4053405A0803401C
:100790005B420B405A405308024052420A405340C9
:1007A0005A0803405B420B405A40530802405242F1
:1007B0000A4053405A0803405B420B405340BE423C
:1007C000D2D154E700F01F10FECAC0DE40980010DE
:1007D0002083B8ED4898001002235B4270B5037087
:1007E000343B43700A3B83701E33C3702333037161
:1007F0000023060043710400050001202E493C3609
:10080000013B2A7801355A405308024052420A40BF
:1008100053405A0803405B420B405A405308024081
:1008200052420A4053405A0803405B420B405A4030
:100830005308024052420A4053405A0803405B4268
:100840000B405A405308024052420A4053405A0853
:1008500003405B420B405340AE42D2D1DA433C21CD
:100860003D236254110AE154110C0133E154120E7C
:100870000133E2548022114DFF212800520103F080
:10088000ADFF40222100280003F0AEFFEFF31084FB
:1008900072B680210A48490108F052FE80222900E0
:1008A0000748520108F034FE84F3108804490548D3
:1008B00005F0F0FC70BDC0462083B8ED902E0020FE
:1008C00000F01F0074980010010010B504000C31F6
:1008D000204805F0DFFCE379A179227A1B020B4363
:1008E000617A120413430906194323D11A4A1B489B
:1008F00005F0D0FCA37A002B23D11949194805F043
:10090000C9FCE37A002B23D11749184805F0C2FC33
:100910003C233E22E15C0133E35CA25C1B020B43FF
:10092000120413433F22A15C11480906194305F044
:10093000B1FC10BD0F4A094805F0ACFCA37A002BAE
:10094000DBD00D49074805F0A5FCE37A002BDBD08E
:100950000A49DAE7B8980010A0980010CC98001067
:100960009C9E0010E8980010B4980010FC980010AD
:100970001099001098980010949E0010B0980010E4
:10098000F0B5C646184B00B59846184F02F090FADD
:10099000002922D0FA220023920003F069F8060011
:1009A0003A6844460025002A0FDD237C002B08D03E
:1009B000E368A168F31A8B4203D3636898473A68E7
:1009C000E660013514349542EFDB6420002102F02B
:1009D00099F902F06DFA0029DCD1FA21890003F0BF
:1009E00009F80600DCE7C046BC3F0020B83F002005
:1009F00010B5A0220021054803F0F0FE044808F0DD
:100A00008FF8044805F0BCFB10BDC046BC3F002079
:100A10008109001028990010F0B5104E07003068C9
:100A2000072817DC002915D085000D4C2B189B00DA
:100A3000E750E3185960002A0AD09A6000232D1865
:100A4000AD006419E36001332374431C3360F0BDCF
:100A50000132F2E701204042F9E7C046B83F0020EA
:100A6000BC3F0020002809DB054B1B68834205DDE5
:100A700083001818034B8000181801747047C04693
:100A8000B83F0020BC3F0020F0B5CE46474680B5B9
:100A9000144883B005F074FB134E3368002B1CDD43
:100AA000124B00259946124B124C9846124F0CE0FF
:100AB0002268A368009242462900380005F0EAFB4C
:100AC000336801351434AB4207DD237C002BEFD1B2
:100AD0002268A36800924A46EEE703B0C0BCB9465C
:100AE000B046F0BD40990010B83F0020B498001007
:100AF000B0980010BC3F00205C99001010B501F0C8
:100B000047F91021044805F0C5FB044805F038FBFF
:100B1000034805F0BFFB10BD78990010A4990010A0
:100B2000CC990010F0B5C64600B5002082B005F0A3
:100B30008FFA831C29D0914A1368012B00D1ABE0B6
:100B4000022B00D188E0002B00D19FE0002313602E
:100B50000D281ED00A281CD07F2800D1A2E008282A
:100B600000D19FE0032800D1E5E0042800D1F0E0A7
:100B70000C2800D1D3E0824A13687E2B05DC591C77
:100B80001160804AD05405F0AFFA02B080BCB8467C
:100B9000F0BD0A2005F0A8FA0023794E794D32689D
:100BA0002800AB5408F0C4FA002800D188E00822DD
:100BB0000027754C691E04E001382B181F700028AF
:100BC0007ED00B5CE35C1A42F6D12B78002B38D038
:100BD0002900002208276C4C04E04B7801310132D7
:100BE000002B6FD0E35C1F42F7D1002A6AD1674B1C
:100BF0001C689846002C00DC99E00F20631E644FAF
:100C00001840C0012900381808F04EFA002812D008
:100C10000F23E217120FA1180B409B1ADB01FF18DC
:100C200038007F22290008F0E3FA00237F373B7069
:100C3000434601341C600022564B28001A6001F024
:100C4000AFF80023802200212800336003F0C6FDA6
:100C5000514805F01FFB98E70024146041283AD062
:100C6000422800D091E74B4B1A68551E1D60002D9D
:100C700000DC80E0454B49481E68B54236DD05F092
:100C800009FB3F4B1C603F4B1C707EE71B2800D0CC
:100C90005EE70133136078E75B2800D056E7022354
:100CA000136072E7364A1368002B00DC6DE7002101
:100CB000013B1360334A3A48D15405F0EBFA64E73C
:100CC000002082E7821A0132280008F097F92B7879
:100CD000002BB6D08BE72F4B1A68551C1D60002DDA
:100CE00027DD2A490E68B54223DC2C4805F0D2FAEC
:100CF0000F21751B264B2940224DC901C9187F229F
:100D0000280008F075FA7F232800EC5408F010FA48
:100D10001B4B29001860234805F0BCFA35E7224830
:100D200005F0B8FA17491F4805F0B4FA2DE7184F37
:100D30006EE71A6029E700241C4805F0ABFA104B57
:100D4000802200210F481C6003F048FD114B1C60FD
:100D50001BE7174805F09EFA6946164B68461A6865
:100D600000929A888A809B798B7101F019F80A4861
:100D700005F090FA09E709481C6080E7A8210020E7
:100D8000782E0020F82D0020D1B00010F021002096
:100D9000F8210020F4210020CC990010D0990010F7
:100DA000DC990010D8990010F4990010E099001017
:100DB000E8990010009A00108023214ADB01116895
:100DC000D0B54B40E021C9010B401E4982B00B60F9
:100DD00004211D4B1960FC3113680B42FCD0506894
:100DE0000004000C03F066FC184903F05CFCE621EB
:100DF000890503F058FC164903F03BFC154903F044
:100E00003EFC011C144803F034FC041C03F074FC89
:100E100006000F00201C114903F045FC104903F0A7
:100E20002EFC8421C90503F027FC03F065FC320089
:100E3000009001913B000B4805F02CFA02B0D0BDA8
:100E400000C0044000D0044000E00440333353406D
:100E50006ABC343F2D93E13A0000D84100001041B4
:100E60000000A040089A001010B5024805F012FAE0
:100E700010BDC046289A0010074B084910B5C91A82
:100E80008A0A074805F006FA064805F079F9064887
:100E900005F076F910BDC04678400020000004201F
:100EA000309A0010589A0010709A001010B504483B
:100EB00005F066F9034A0449044805F0EBF910BD52
:100EC000889A0010AC9A001060970010B89A001031
:100ED00010B5054805F054F9C82001F025FF0021A0
:100EE000002002F0DBFBC046C89A001070B5040079
:100EF0000D00012849DD4E684649300008F0D4F85D
:100F0000002842D03000444908F0CEF8002840D0F4
:100F10003000424908F0C8F800283ED0300040496F
:100F200008F0C2F8002820D1032C1EDDAC683D4932
:100F3000200008F0B9F800285AD020003A4908F0FB
:100F4000B3F8002834D02000384908F0ADF8002864
:100F500046D1E86808F046F8431E9841344BC1B2C8
:100F60003448997205F096F90EE0334805F008F917
:100F7000324805F005F9324805F002F9314805F02C
:100F8000FFF8314805F0FCF870BD2948FFF79CFCDC
:100F9000FAE72748FFF720FCF6E7254C2000FFF78B
:100FA000ADFA2000FFF718FC284805F0E9F8EBE758
:100FB000E86808F017F8011E29D00200303A030053
:100FC000982A20D81A48821D8371180A5070180276
:100FD000000E90701B0E1E48D37005F05BF9D3E72E
:100FE00021001C4805F056F91B4805F0C9F8CBE76D
:100FF0001A4CE9680F22200008F0FAF8210018487E
:1010000005F048F9C0E7174805F0BAF8BCE7002337
:10101000D8E7C046EC9A0010F49A0010FC9A001031
:10102000289B00102C9B0010689B0010D09B001088
:10103000B0210020DC9B0010289C0010309C001088
:10104000409C00105C9C00106C9C0010049B0010E5
:101050009C9B0010EC9B0010009C0010BC21002009
:10106000389B0010709B001010B5012813DD4868F4
:1010700007F0B8FF0A4B421E04009A4207D801004D
:10108000084805F007F9200001F04EFE10BD0648A3
:1010900005F076F8FAE7054805F072F8F6E7C0467D
:1010A0002F750000A49C0010909C00107C9C0010E8
:1010B00030B583B001282DDD486807F093FF0500A7
:1010C00002282BD8174A030311684B40E021C901BD
:1010D0000B4015490B600421144B1960FC31136857
:1010E0000B42FCD054682404240C200003F0E2FAE4
:1010F0000F4903F0D8FAE621890503F0D4FA03F08A
:10110000FBFA22000090019129000A4805F0C2F87C
:1011100003B030BD084805F033F8F9E7074805F09B
:101120002FF8F5E700C0044000D0044000E0044080
:1011300033335340049D0010B89C0010E89C00100D
:1011400010B500F0F5FE10BDF8B54746CE46804616
:101150000E0080B501280DDD441E022811D1114F6B
:10116000114DA3002A003800F158013405F092F81F
:101170004445F6DB0A2004F0B7FFC0BCB946B046D0
:10118000F8BD0A4B01259946064FAB004A46380088
:10119000F158013505F07EF8A542F6DB2C00A84594
:1011A000DEDCE7E7249D00100CA00010E49900109D
:1011B000F8B5374C200004F0E3FF364804F0E0FFB8
:1011C000200004F0DDFF344804F0DAFF334804F077
:1011D000D7FF334804F0D4FF324804F0D1FF32483F
:1011E00005F058F801F064FE0023304A02F040FC9C
:1011F00005003C21280002F0FDFB0F00E121280042
:10120000090102F0F7FB08003C2102F0F3FBE121A9
:1012100006000901280002F0EDFB3B00010032004E
:10122000234805F037F80A2004F05EFF8023214AA6
:10123000DB0111684B40E021C9010B401E490B60E6
:1012400004211E4B1960FC3113680B42FCD050681E
:101250000004000C03F02EFA194903F024FAE621E9
:10126000890503F020FA174903F003FA164903F041
:1012700006FA011C154803F0FCF903F03DFA0200E0
:101280000B00134805F006F8200004F079FFF8BDC4
:101290002C9D0010509D0010789D0010949D001012
:1012A000C89D0010E09D0010F09D001040420F000E
:1012B000FC9D001000C0044000D0044000E0044049
:1012C000333353406ABC343F2D93E13A0000D84198
:1012D000109E0010F0B5C646D02500B5154804F0A4
:1012E0004FFF154804F04CFF144B00249846144E51
:1012F000144F2D0607E021003A003000013404F0BD
:10130000C9FF1D2C13D0200000F080FE0122A24056
:10131000296A6B681340581E83410A42EBD12100B1
:1013200042463000013404F0B5FF1D2CEBD180BCE7
:10133000B846F0BD249E00103C9E0010649E001034
:10134000509E00104C9E0010F0B5C646040000B53B
:1013500019200F0000F05AFED02380221B069204B1
:101360005A62012C68DD7D6829786F290FD1697870
:101370006E290CD1A978002909D1012036490870BD
:1013800036485A6104F0FCFE80BCB846F0BD344ECD
:101390002800310007F088FE00282BD028003149B2
:1013A00007F082FE00280FD101212B4A13784B4011
:1013B000137045D0D02380221B0692042A495A611B
:1013C0002A4804F067FFDFE72800294907F06CFE90
:1013D000061E3CD105239846022C16D0B86807F0AB
:1013E00001FE0300013B8046312B0ED9214804F059
:1013F000C7FEC9E7184B80221870D02392041B0641
:101400009A611D4804F0BCFEBEE74146D025802409
:101410001A4804F03FFF2D06A40496206C6101F0E9
:1014200083FC01369620AC6101F07EFC4645F4DB7E
:10143000134804F0A5FEA7E7124804F0A1FEA3E7B5
:10144000D02380221B06920431009A61B8E729005C
:101450000D4804F01FFF97E773400020909E001096
:101460009C9E0010A09E0010949E0010A89E00104C
:10147000B09E0010B89E0010989E0010D49E0010E0
:10148000EC9E0010689E0010F49E001010B502F053
:10149000C3F8002809D10649064804F0FBFE064BB4
:1014A0000648D96804F0F6FE10BD0549F4E7C046C9
:1014B000B4980010149F001000800540349F001065
:1014C000109F001070B582B06C46684605F0D2F9E6
:1014D000084804F0DFFE084D02AE217828000134F0
:1014E00004F0D8FEB442F8D10A2004F0FDFD02B0A9
:1014F00070BDC046589F0010649F001010B506488C
:1015000004F03EFEFA20800001F00EFC01210120D3
:1015100001F0F4FFFEE7C0466C9F001070B50C00B0
:1015200002280CDD4D681549280007F0BDFD002894
:1015300016D02800124907F0B7FD002802D0FFF7A7
:10154000A3FA70BDA06807F04DFD0021FFF78AFAED
:10155000A06807F047FD01000A4804F09BFEF0E791
:10156000A06807F03FFD0121FFF77CFAA06807F0B3
:1015700039FD0100044804F08DFEE2E7809F001071
:101580009C9F0010A49F0010889F0010F8B50500D4
:101590000C0002282DDD886807F024FD06001C28B9
:1015A00000D970E067684449380007F07DFD0028E5
:1015B00048D03800414907F077FD002823D1032D9A
:1015C00000D171E0E06807F00DFD0400300000F08C
:1015D0001DFD0123D022B34012065362002C57D0C8
:1015E000536122003100531E9A41354804F052FEE7
:1015F00008E0344804F0C4FD334804F0C1FD33482A
:1016000004F0BEFDF8BD3800314907F04DFD00285B
:1016100040D1032D4CD0300000F0F8FCE468237872
:10162000692B20D163786E2B1DD1A378002B1AD1A2
:10163000D0220133B340120631009362254804F0F2
:1016400029FEDFE7300000F0E1FC0123D022B340A7
:1016500012069362526831001A40531E9A411E4886
:1016600004F018FECEE720001C4907F01DFD0028FD
:1016700015D10123D022B34012063100536218481D
:1016800004F008FEBEE70100164804F003FEB9E7C7
:101690009361A6E73900144804F0FCFDB2E721008D
:1016A000124804F0F7FDADE7114804F069FDA9E721
:1016B000104804F065FDA5E710A0001028A0001058
:1016C00050A00010289C0010B89F0010CC9F001064
:1016D00060A0001088A0001018A00010A0A00010AA
:1016E000A4A00010E89F0010E4A00010BCA000100F
:1016F00030A0001068A0001070B50C00022835DD85
:10170000486807F06FFC05001C2815D800F07EFC27
:10171000A4682378752B13D16378702B10D1A3782C
:10172000002B0DD128000022012100F055FC2900DA
:10173000184804F0AFFD02E0174804F021FD70BD29
:101740002000164907F0B0FC002813D020001449EF
:1017500007F0AAFC002817D128000022002100F081
:101760003BFC29000F4804F095FDE8E70E4804F023
:1017700007FDE4E728000122002100F02DFC2900EC
:101780000A4804F087FDDAE72100094804F082FDE9
:10179000D5E7C04634A1001028A100104CA10010CC
:1017A00070A1001078A1001004A1001054A1001035
:1017B00090A1001070B50C00022838DD486807F0D1
:1017C00011FC0500A06807F00DFC04001C2D39D8A1
:1017D000642830D80421280000F0E4FB2A07520FC7
:1017E00093009B181A4A1B499B009A1811611A4AC8
:1017F0009918A200A218520092B2E8071FD4174EFF
:1018000008684240802040018446324061440A60BA
:101810000F4A13489A18116801228A4311498C46CD
:1018200063441A602900220004F034FD02E00E48EF
:1018300004F0A6FC70BD0D4804F0A2FCFAE70C4EC3
:101840001204DDE729000B4804F024FDF2E7C0464E
:1018500000000540E70300000C000540FFFF00000A
:10186000F8A1001000100540B4A10010E4A1001080
:101870000000FFFFD4A10010F8B5CE464746214C2A
:1018800001007F2280B5200007F0B2FC7F230022F8
:101890001D4D20002900E25407F0E0FC002827D06D
:1018A0001A4B002698461C002060290000200136B3
:1018B00007F0D4FC002802D00434082EF4D14346AB
:1018C0001F68134B002499461D0003E001340C35BA
:1018D000192C11D03800296807F0E6FB0028F5D153
:1018E00063001C19A4004C444146300063689847CB
:1018F000C0BCB946B046F8BD3900064804F0CAFC81
:10190000F6E7C046BC200020E49900109C1F002090
:10191000ECA8001014A20010F0B54746CE4680B5E2
:1019200006000F00C1B002283FDD486807F05AFBEF
:101930000300013B8046632B3BD800236A461370AB
:101940001E4B02247F25994607E0684607F0F0FB0E
:1019500049462A1A684607F019FC684607F0E8FB72
:10196000A3002A1AF9586846013407F00FFCA64272
:10197000EBD10025002620AC7F226946200007F02D
:1019800037FC7F23E6542378002B0AD02000013552
:10199000FFF772FF4545EFD141B0C0BCB946B04634
:1019A000F0BD0135A845E7D1F6E7054804F0E8FBAE
:1019B000F2E7044804F0E4FBEEE7C046E4990010C7
:1019C00044A2001060A2001010B584B001281DDDF3
:1019D000486807F007FB0300303B0400982B11D840
:1019E0004001001B80000019C00003AB02AA01A93E
:1019F00001F076FC002814D121000D4804F04AFCC7
:101A000004B010BD0B4804F0BBFBF9E7052001F062
:101A100081FB094901F0EEFF0100084804F03AFC9F
:101A2000EEE7039A0299019801F07AFBE4E7C046D9
:101A3000A0A2001088A2001040420F0074A2001063
:101A4000F0B54546DE4657464E46E0B50C0005006B
:101A500087B0012800DC02E14E689349300007F0AE
:101A600023FB8346002800D193E030008F4907F024
:101A70001BFB071E49D1032D00DCE7E010220021EB
:101A8000A06807F0F7FC102200210500C6B2E0684C
:101A900007F0F0FC6B4605AC2770D87401F008FA2B
:101AA000FA220023D20080185941002900DAEBE025
:101AB0007F4B1322984601230290039100936A44BE
:101AC0003100404607F046FA01F0F2F9FA2200230D
:101AD000D20080185941002900DAD1E00023029099
:101AE00003910093220031004046013307F056FA7B
:101AF000002800DACCE06A46FF212378D27C294016
:101B000000936C4804F0C6FB7AE030006A4907F0A5
:101B1000CBFA002800D09DE0042D00DCACE01022C0
:101B20000021A06807F0A6FC1022C3B20021050026
:101B3000E068994607F09EFC80461022002120694B
:101B400007F098FC434605ACFA2623706070824685
:101B5000002701F0ADF9F60080197941002900DA7B
:101B60009EE00023029003910093220049465048D2
:101B7000023307F0EFF9002800DA8DE0FF2150462C
:101B800043462A000B400A4001404C4804F082FBC7
:101B900036E04B4804F0F4FA4A4804F0F1FA444BBA
:101BA000FA2698460F2300259946002705ACF60033
:101BB0004B462B423AD0EBB29A4601F079F98019A4
:101BC000794100293EDB002302900391009322001B
:101BD00051464046013307F0E1F9002817DB2900A0
:101BE000394804F057FB01239C464B460135E3443A
:101BF0002B4213D0802DDBD15946344804F04AFBE8
:101C000007B0F0BCBB46B246A946A046F0BD30487E
:101C100004F040FB4B4601352B42EBD10A2004F087
:101C200063FA802DE8D04B462B42C4D129002948C5
:101C300004F030FBEBB29A4601F03AF98019794191
:101C40000029C0DA012024494042BCE7234804F0BF
:101C500097FAD5E73100224804F01CFBD0E7214871
:101C600004F08EFA204804F08BFA204804F088FA39
:101C70001F4804F085FAC3E71E4804F081FABFE765
:101C800001201549404229E70120134940420FE74E
:101C9000194804F075FAB3E7184804F071FAAFE791
:101CA00001200D4940425CE74CA3001010A0001039
:101CB000181200200CA4001028A0001074A400101A
:101CC00054A3001074A30010B0A30010BCA3001014
:101CD000B8A30010A8A30010FFFFFF7FD0A300103F
:101CE00094A40010289C0010BCA20010ECA20010CC
:101CF0001CA3001030A40010F8A3001060A4001072
:101D000070B5144804F0C6FA01F0D2F80023124A64
:101D100001F0AEFE04003C21200001F06BFE0E003D
:101D2000E1212000090101F065FE08003C2101F0DD
:101D300061FEE12105000901200001F05BFE330096
:101D400001002A00054804F0A5FA0A2004F0CCF9A5
:101D500070BDC046B0A4001040420F00FC9D0010B2
:101D600070B5084804F00CFA074C084D26002D36D3
:101D7000FF36A268216828000C3404F08BFAB442C4
:101D8000F7D170BDBCA40010ECA80010D0A40010C6
:101D900010B51921014804F07DFA10BDE0A400102F
:101DA00010B5002802D00378002B00D110BDFFF73A
:101DB00063FDFBE70020704710B5024807F030F8DC
:101DC00010BDC0461812002010B50C490C4807F091
:101DD00097F80321042000F0E5F80321052000F026
:101DE000E1F800220121042000F0F6F8052000228D
:101DF000012100F0F1F8002010BDC046A0860100CE
:101E00001812002010B506F0B1FE0222014B00208E
:101E10001A6010BD00E0044000207047F8B5CE46BF
:101E20004746344E80B531680F2930DC324B334899
:101E30000A01D0500020324C9A1810719460D06082
:101E40004A1C3260102A52D02E4C1201D4502E4C13
:101E50009A1810719460D0608A1C3260102A46D0A3
:101E60002A4C1201D4502A4C9A1810719460D060F8
:101E7000CA1C3260102A3AD0264C1201D4509B184A
:101E8000254A04319A60254A1871DA603160244885
:101E900004F000FA3368002B25DD224B002599461B
:101EA000214B154C9846214F0BE0022321682371EA
:101EB0004A46380004F0EEF9336801351034AB427D
:101EC00011DDA368002B02D098470028EDD1012333
:101ED000216823714246380004F0DCF9336801358B
:101EE0001034AB42EDDCC0BCB946B046F8BD1021A1
:101EF000CDE7C0469C210020A03E00209CA60010FB
:101F0000051E00103CA60010B51D001068A60010AC
:101F1000191E001024AA0010C91D0010B91D0010C0
:101F20002CAA00101CAA001018AA001050AA001019
:101F3000F0B5D64646464F461348C0B504F020F9E2
:101F4000124E3368002B19DD114B00259846114BBA
:101F5000114C9946114B124F9A4623793A00012BA6
:101F600003D04A46022B00D052462168404604F076
:101F700091F9336801351034AB42EEDCE0BCBA466F
:101F8000B146A846F0BDC04678AA00109C210020AA
:101F900088AA001060AA0010A03E00206CAA0010C1
:101FA00068AA001010B54024084A83009A181268E5
:101FB000C0005440C0222240054CA44663441A602D
:101FC000044B9C466044416010BDC04604C00140C3
:101FD00004D00140004001400B4B80009C4660440F
:101FE00000290ED100230431002A00D119008022DB
:101FF00003685201594094460C2360440B4003602F
:1020000070470C210823EFE704C001400123D022D0
:1020100083404021120693629361094A83009A1813
:102020001268C0005140C0220A4006498C466344F1
:102030001A60054B9C460523604443607047C046C8
:1020400004C0014004D00140004001408023DB0572
:102050001868000F7047C0460FB400B5084883B039
:1020600004F08EF8049B002B07D005A918000191FD
:1020700003F08AFE034804F083F8012003F09CFE7D
:1020800094AA00102CA4001070B5EFF3108C72B657
:102090000D4D2B68002BFCD0BFF35F8F0724CB08BE
:1020A000C618C05C01230C40A3401C00044003423E
:1020B00007D103433370BFF35F8F2C608CF310881C
:1020C00070BD1000FFF7C8FF2C0100D0F8B54746DF
:1020D000CE46884680B5EFF3108C72B6214D2C6841
:1020E000002CFCD0BFF35F8F9A422CD8D40807276E
:1020F000055D061901241740BC402C421FD0072162
:102100000127894609E0D408055D06194C463900C7
:102110001440A1400C00294211D001329342F2D266
:1021200001204042BFF35F8F00220E4B1A608CF3F8
:10213000108800280FDBC0BCB946B046F8BD2C4360
:1021400010003470EEE7BFF35F8F00232B608CF339
:102150001088012040424346002BECD00898FFF73E
:102160007BFFC0462C0100D0044A1078431CDBB230
:10217000172B00D9102313707047C0465011002050
:1021800000B5054B83B00100009318221F230348BC
:10219000FFF79CFF03B000BDA4AA0010442100205B
:1021A0000021044B044ABFF35F8F02C39342FAD16C
:1021B0007047C046000100D0800100D0054B064AA0
:1021C0001360064A136053609360D36013615361D8
:1021D000936170478080808000E400E004E400E0C8
:1021E0001F2318401E3B8340002905D0C021044A0C
:1021F0004900535013607047802201498B50FAE721
:1022000000E100E001228240034B1B6813405A1E8C
:102210009341D8B27047C04600E100E001238340FB
:10222000014A13607047C04600E200E0064B1030E0
:102230009B688000C358054A00209B1A2F229A42AF
:102240004041C0B27047C04600ED00E0541100208C
:1022500070B50D00EFF3108672B60F4A1368002BAD
:10226000FCD0BFF35F8F0D4B10309B6884001B596F
:102270000B4A934203D09D4201D001F049FA074B2B
:102280009B681D51BFF35F8FBFF35F8F0022024B2E
:102290001A6086F3108870BD240100D000ED00E0C4
:1022A000C1010010F0B557464E46DE464546E0B542
:1022B00085B0060002911700EFF3108B72B6674AE3
:1022C0001368002BFCD0BFF35F8F0025644B5D5774
:1022D0009A46002D00DAA4E06B00624C03935B1970
:1022E0009B009846A146C1444B4652469B79103606
:1022F00013705D4BB2009B68019299580B1B2F2BFA
:1023000034D95A4B994200D0A4E0039B584A9C46CA
:10231000584B6544AD006353434602336519E418D6
:10232000554B0121043B1B1B1B055B0D13436B80AD
:10233000524BEF71AB80FF23AB71029BAB604B46FE
:102340000B431900484B019A9B689950BFF35F8F6C
:10235000BFF35F8F0022414B1A608BF3108805B0EA
:10236000F0BCBB46B246A946A046F0BD01200A001B
:102370008243D379BB422FD845464E46130040498D
:102380001B1B5B415943090D3A4B63533A4B0235D2
:102390006519043B5B1B1B05354D5B0D2B4373809F
:1023A0000426B446E0444444131F1B1B4C46A17151
:1023B00002991B05A16049465B0D2B43A380314B5D
:1023C000E77101431360BDE75800C0188000201872
:1023D000C679BE422BD902000623D356002BF3DA6E
:1023E000101D82462848804604267642B446E144C1
:1023F00050464E46361A3005400D824656461C4819
:10240000957106439680039A944665441D4AAD0033
:10241000641922604246A371029BA280E771A36007
:1024200090E701F075F9002553465D5754E7101DFC
:10243000824690884005001584464046D44466464E
:1024400004302018301AE0260005400D36023043D3
:102450008046C9E701F05CF957E7C046240100D087
:10246000714000205411002000ED00E0C101001077
:1024700000E0FFFF00A1FFFF8411002001BDFFFF6E
:10248000AAAA00000148804701BD000070B50124E0
:102490000443EFF30581EFF3108C72B6214A136801
:1024A000002BFCD0BFF35F8F1F4B05001F4AED1AB6
:1024B0006D416A43120D1E4D8900AE6852B27658C6
:1024C000A6421CD00621595691421CD012215956C1
:1024D000914222D01E215956914220D02A2159568C
:1024E0000324914210D0134B19781A708171BFF3F5
:1024F0005F8F00220B4B1A608CF3108870BDAB68A5
:102500000D4C5C50EFE700246100091989005B184D
:10251000FF21997109499980E5E70124F4E7022434
:10252000F2E7C046240100D054110020AAAA0000FE
:1025300000ED00E071400020C101001001BDFFFF6F
:1025400000B5074B83B00100009300220523054826
:10255000FFF7BCFD002801DB1F23181A03B000BDE4
:10256000C0AA001077400020024B9C4661448900BD
:102570000160704740000034F8B5134D134E2C0035
:10258000FF27B5421ED22368002B0FD0FFF7ECFDCA
:1025900001002800FFF7E8FFA780BFF35F8F083432
:1025A000B4420FD223682500002BEFD1FFF7DCFDEA
:1025B00001002800FFF7D8FF2771BFF35F8F0834B1
:1025C000B442EFD3F8BDC04650160020601600207C
:1025D00010B50400FFF7C8FD01002000FFF7C4FF9D
:1025E000FF232371BFF35F8F10BDC04610B50400F9
:1025F0000120FFF7C5FD044B9C466044800020602D
:10260000BFF35F8F10BDC04640000034034B9C46B3
:10261000614489000160BFF35F8F70474000003460
:102620000A4B1968EFF3108072B60A68002AFCD0D2
:10263000BFF35F8F1B68BFF35F8F00221A6080F3C8
:10264000108840BF002000217047C046AC3F0020EA
:10265000F0B5DE4657464E464546E0B585B0EFF349
:102660000582032313409A0011000392B64A525880
:10267000904601229A409146B44B1A604B46B448AA
:102680004363434608229B5E9A46002B3DDA43464D
:102690009B881BB2002B00DBA1E043469B79002BFB
:1026A00000D0F3E0434608241C5F002C23DB4246A5
:1026B0005269630094461B19DB0063449C68DD6823
:1026C000631C00D10FE1A248039984466144826AE9
:1026D0000B69A61A9B1A9E4215D34A46036A1A42F0
:1026E00011D09B4800F0DCFB241A8D41002D02DC48
:1026F000C4D1002CC2D040BF05B0F0BCBB46B2462E
:10270000A946A046F0BD0C61EBE7424652695B006A
:1027100093465344DB009B445B469E68DF6800F0B1
:10272000BFFB801BB9410029B1DB002F00DAE5E0D7
:102730005B46884A1B69934200D1D8E041465A461D
:102740000820085E5288000410435A465169984791
:1027500004000D0023002B4300D1CFE0002D00DB4F
:10276000E8E0361BAF4134003D005B469C60DD6015
:102770000021595E002900DA89E743465B6922009F
:102780009C462B0048004018C00060448668C7681B
:10279000921BBB41002B00DA79E7434666460200F4
:1027A0000094019519810CE07B00DB19DB00F31824
:1027B000009801999C68DD68001BA941002904DB91
:1027C0001A000023D75E002FEEDA5B461F805346C7
:1027D000138043469B881BB2002B00DA5DE743461B
:1027E0001A69EFF3108172B61368002BFCD0BFF3A7
:1027F0005F8F43469B8842461BB29A4601235B4249
:1028000093801369BFF35F8F00221A6081F31088F1
:102810005346002B00DA40E743465B699C46082399
:1028200043449B4653465F0043465744FF000822FB
:102830009A5E67445E46BC68FD68002A19DB3B006F
:102840000094019567469C4604E01E000023F25E5A
:10285000002A0BDB0098019953009B18DB00FB1842
:102860009C68DD68001BA9410029EEDA6346BC467E
:102870001F005346338000217B5E3A809A46002B2E
:10288000D0DA43469B79002B00D10BE70023424668
:102890009371434646460821595E08364B1C00D1C9
:1028A00029E747468C46556902E006004B1C17D0C5
:1028B0004B005B18DB00E8180A00E95E43881BB296
:1028C000002BF2DA01235B42DC178360C4606245AF
:1028D000ECD031803B89944603803A814B1CE7D190
:1028E000B8466446E1E66B1C00D0ECE6F9E65B46D0
:1028F0005C69200023699847002821D15B46424645
:102900001B8813811269EFF3108372B611680029D6
:10291000FCD0BFF35F8F4246594652880A80424638
:10292000514651801269BFF35F8F0021116083F31C
:102930001088ACE6064800F0B3FA24184D4114E7BD
:102940006568246806E7C046903E00203C7005405C
:10295000004005405126001070B52E4C2569002D11
:1029600004D00A212C48FFF7FFFD70BD2B4E032138
:10297000300000F08BFAE660FFF7F6FB284B0322ED
:102980009C46D02322701B061B6801216370254BD7
:102990006044A3600F23800020610220638063698C
:1029A0004942A18019800231198647311D8358524E
:1029B00018315A5275325C39995218320131995294
:1029C00018320131995218320131995208351832B2
:1029D0009D520231183299521832013199521832EF
:1029E00001319952183201319952183201319952FC
:1029F0001832013199520C4B0C49DC6001303562C0
:102A0000FFF726FC01210320FFF7EAFB084B1D60BE
:102A1000A7E7C0469C110020AC3F002000400540C5
:102A200040000034FFFF1000903E002051260010AF
:102A300038600540004870479C110020F8B51F0021
:102A400008AB1B7804001600002B07D100F030FA09
:102A500032003B00121A8B41002B4CDB2269EFF352
:102A6000108072B61368002BFCD0BFF35F8F6269D1
:102A70000223E15E94464B005B18DB0063440029AF
:102A800001DB1A8862802269BFF35F8F0025156021
:102A900080F31088002930DB069A9E60DF601A619F
:102AA000079A5A615A8801325204520C161C002AA5
:102AB0001FD0B0B20A045E8010432669EFF3108580
:102AC00072B63268002AFCD0BFF35F8FA2881A80EA
:102AD000A1802369BFF35F8F00221A6085F31088FD
:102AE000074923788C4601329A40E36863441A60B0
:102AF000F8BD0126DDE70020FAE701204042F7E7B4
:102B00003C20000070B5C646010000B50469EFF333
:102B1000108C72B620680028FCD0BFF35F8F0220B3
:102B20000D5E48696C0080466419E4004444002D41
:102B300001DB208848800869BFF35F8F00260660AC
:102B40008CF31088002D30DBE36063880598013337
:102B500020615B0406985B0CA26060611A1C002B6C
:102B600021D090B22B04628018430A69EFF31086DB
:102B700072B61368002BFCD0BFF35F8F8B88238065
:102B80008D800B69BFF35F8F00221A6086F3108877
:102B90000B7801329A40CB6805498C4663441A6031
:102BA00040BCB04670BD0122DBE701204042F7E7A0
:102BB0003C20000010B543890A14934233DD5300D2
:102BC0009B184269DB00944604696344EFF3108C60
:102BD00072B62268002AFCD0BFF35F8F5A880904BE
:102BE00094B2090C8A4208D00369BFF35F8F0022B8
:102BF0001A608CF31088002010BD8022120214434A
:102C00005C80012302698371BFF35F8F0021116033
:102C10008CF31088054902788C469340C2680120E5
:102C200062441360E8E70020E6E7C0463C2000006D
:102C300040787047F0B504000D0006267642F7177D
:102C4000C64636196F4100B582B08F4214D811D0F4
:102C500000F02EF932003B00121A8B41002B15DCDC
:102C6000002B44D02000290000F056F902B080BCAF
:102C7000B846F0BD8642EBD90026002700F018F9CF
:102C800032003B00121A8B41002BE9DD00F010F9F5
:102C900032003B00121A8B41002B0ADB0023019308
:102CA000144B3200009314483B00FFF72BFF002821
:102CB000D8DBB0460026BC46104A114F7B6A9C45C3
:102CC00004D8B96A8845CDD99C45CBD11168EFF3BA
:102CD000108072B60B68002BFCD0BFF35F8F1368B7
:102CE000BFF35F8F1E6080F3108820BFE6E7002AE5
:102CF000B8D0CBE7212600109C110020AC3F00206B
:102D00000040054070B504000D0000F0D1F8001936
:102D10006941002902DBFFF78DFF70BD01200149E9
:102D20004042F8E7FFFFFF7F70B5060000F0C0F8F3
:102D3000FA2204000D00002330000021920001F06F
:102D40007BFC00196941002902DBFFF773FF70BDAE
:102D5000012001494042F8E7FFFFFF7FF0B5CE4672
:102D6000474680B504000D0083B0EFF30587002FC0
:102D70000DD0364A0020536A8B4203D3926A013049
:102D8000A24250D303B0C0BCB946B046F0BD304BF0
:102D90009846DB689946434648461E7800F080F81E
:102DA0000B00494602000436B600715820008E1A06
:102DB0002900801A99418F4211DC0ED020BF234A8E
:102DC0000020536AAB42DDD3926A0130A242D9D2CD
:102DD000E81A421E9041C0B2D4E78642EED900F014
:102DE00067F822002B00121A8B41002B20DB0023F6
:102DF0000193184B2200009340462B00FFF782FE00
:102E0000011E15DD114B2E005A6A95421CD89B6A93
:102E1000A34217D34046FFF7CDFE0C4A0020536A69
:102E20009E42AFD8D0E7581A421E9041C0B2A9E7DF
:102E3000064A0020536AAB42A4D3926A0120A24200
:102E4000A0D2C5E79542E5D120BFE3E700400540A9
:102E50009C11002021260010084A4368516A10B5D1
:102E6000046800208B4203D8926A0130A24200D34A
:102E700010BD5B1A5A1E9341D8B2F9E700400540D5
:102E80000260436000487047592E001010B5024A96
:102E90000248FFF7F9F810BDDCAA00104821002015
:102EA0000300416A0A00986A596A8A42FAD1704757
:102EB000034B596A0A00986A596A9142FAD17047DD
:102EC0000040054070B504000D00124A536A190015
:102ED000966A536A8B42FAD13000190024184D418A
:102EE000AB4211D80ED02B000A494A6A9A42FCD351
:102EF00007D1084A02E0516A994202D1916AA1427F
:102F0000F9D370BDA642EED9012301246442E5172E
:102F10005B42E9E700400540064A536A9942FCD803
:102F200007D1044B02E05A6A914202D19A6A824266
:102F3000F9D3704700400540F8B5DE464E46574687
:102F40004546E0B58B4605000A991800160000F0CA
:102F500051FD0A9B6C001F02324B64199C46A40071
:102F60006444636881469F4200D967602B1FDBB2CF
:102F70009846012B30D9C02380229B01E31812010F
:102F80001A60294BAD0059599A4600291BD1226875
:102F900076017240E0268023164042465B01E3182A
:102FA0001E60012A30D9802380229B01E318120180
:102FB0001A6053464A4667605A51F0BCBB46B24657
:102FC000A946A046F8BD586900F014FD431C5800FE
:102FD000C0180338FDD2DAE75B46012BCBD1C02302
:102FE00003229B01E3181A60023AA3681A42FCD03C
:102FF000E0232268760156401E4080230A4A5B0186
:103000009246E3181E60AD005A46216851400322E3
:103010000A401A6001225B469A40A3681A42FCD01B
:10302000C1E7C046008000404C210020F0B5464674
:103030004F46D646C0B51F00344B44009C4624186A
:10304000A4006444636888461600FF2B02D88023DE
:103050005B006360031FDBB29A46012B30D9C023AB
:1030600080229B01E31812011A60294B85005959EF
:10307000994600291BD1226876017240E026802300
:10308000164052465B01E3181E60012A30D98023A6
:1030900080229B01E31812011A6080235B006360A9
:1030A0004B465F51E0BCBA46B146A846F0BD5869F0
:1030B00000F0A0FC431C5800C0180338FDD2DAE72A
:1030C0004346012BCBD1C02303229B01E3181A6096
:1030D000023AA3681A42FCD0E023226876015640E7
:1030E0001E4080230A4A5B019146E3181E6085005A
:1030F00042462168514003220A401A600123424699
:103100009340A2681342FCD0C1E7C0460080004053
:103110004C210020014B8000C05870474C210020FA
:10312000F0B5DE464E4645465746E0B55C4B1500C9
:103130005A6881468B4683B0FF2A02D8802252000B
:103140005A60584B01219846032342461360544A63
:1031500093681942FCD020201368534E5840E02356
:103160000340336013684E4A4B40032119403160DD
:10317000022193681942FCD080234C4F1B013B6015
:1031800080235B0053604A4C9A464A4B4A4663612F
:1031900001215B464848009500F060F959464846D1
:1031A000694300F027FC454B05005A68FF2A01D807
:1031B00052465A608022424B216912011A6000294E
:1031C00007D0606900F016FC431C5800C018033893
:1031D000FDD2E022394B3B4819680A4002210260C7
:1031E0001A68514003220A40042102609A68114281
:1031F000FCD08021344A09011160802252005A60BB
:10320000324B2361264B5968FF2900D85A60424649
:10321000032301211360224A93681942FCD0E02362
:1032200010680340336013681D4A4B400321194066
:103230003160022193681942FCD0802380211B0158
:103240003B604900224B516065615A68FF2A00D8F3
:10325000596080221F4BA16912011A60002907D012
:10326000606900F0C7FB431C5800C0180338FDD24A
:10327000402217490B685A40E0231340164A136056
:103280008022164B12011A6080235B004B60094BB1
:10329000A36103B0F0BCBB46B246A946A046F0BD50
:1032A0003C8000403CB000403C9000403CA00040CE
:1032B0004C210020006CDC02008002403080004085
:1032C00030B000403090004030A00040001BB700FC
:1032D0004880004048B000404890004048A000406E
:1032E000F0B54E465746DE464546E0B585B00393F9
:1032F000554B06009A46A0235B0099460191029225
:1033000001235B429C46E1444B460F2B00D198E0E1
:103310004E4F4F4B072457449A4569D82100380037
:10332000614300F067FB864248D0631E9846012C3B
:103330005ED01D0065433800290000F05BFB86422B
:103340005AD0A31E9B46022C5CD02D1B29003800AE
:1033500000F050FB864257D0E31E9B46032C6ED0F4
:103360002D1B2900380000F045FB864250D0231F5A
:103370009B46042C52D02D1B2900380000F03AFB4C
:1033800086424DD0631F9B46052C4FD02D1B290034
:10339000380000F02FFB86424AD04346052B4CD024
:1033A0003800E91F00F026FB86421CD006242100CD
:1033B0003800614300F01EFB8642B6D10029B4D12B
:1033C000A0464A46234B01205343019A13604246CC
:1033D000029B1C60039B1A6005B0F0BCBB46B24662
:1033E000A946A046F0BD0029E0D101239846E8E7B0
:1033F000194B9C46E24483E70029E2D0A31E9B467A
:10340000022CA2D1012489E70029A5D1D846D8E70A
:103410000029FBD0231F9B46042CACD103247DE75D
:103420000029F3D0631F9B46052CAFD1042475E718
:103430000029EBD04346052BB2D105246EE70224C8
:103440006CE70020C8E7C04670F72E00B0710B0093
:1034500050F80C00001BB70020D1FFFFF8B50400A6
:1034600020481D0017000E0000F0C4FA01003800CB
:1034700000F0C0FA069B29041B0319432368002BA4
:103480001EDB194B194DE21853425A4180235B0150
:103490009C461203164B62441A60164B1A601700C2
:1034A0002B689F43FBD1144B2660E2182123A060B8
:1034B00013602368002BFCDA0823E1601360F8BD79
:1034C0003F2322681340B342DBD1A3681B051B0DC9
:1034D0008342D6D1EE22E368D20213408B42D0D190
:1034E000EDE7C046001BB7000040FDBF08C000402C
:1034F00000E0004000F0004004300000184B0200E3
:10350000184810B5D8618020174BC0051860174CBB
:103510001748046000290AD0E021164BC90419603D
:10352000002A09D18022134B12061A6010BDE02137
:10353000C9041960002AF5D053019B1A9800802312
:10354000801800015B04984200D30B4880220B4B8B
:10355000D2051860024B5860064B1A60E6E7C04679
:10356000008005402131B76A00B00540FCFF010032
:103570000820014000A00540FFFFFF00802E002032
:1035800010B5140080221B4BD2051A6000281AD0F7
:103590000123194A1843194BDA61194A42401A6249
:1035A000596298628022134BD2051A601549164A57
:1035B0001160E022D2041A60002C07D18022134B44
:1035C00012061A6010BD0D4BD861EBE763011B1B9F
:1035D0009A008023121912015B049A4200D30C4A0C
:1035E0000C4B1A60054B5A608022084BD2051A60BA
:1035F000E8E7C04600B00540D3C007B000800540F2
:103600002D3FF84FFCFF01000820014000A00540BD
:10361000FFFFFF00802E0020024B9868431E984158
:10362000C0B27047008005408023024A9B000B43D4
:10363000D362704700800540142310B5010018883C
:1036400004331B88984710BD162310B50100188855
:1036500002331B88984710BDF8B54746CE4680B563
:103660000F1E19D0142399460433040000250126A7
:1036700098464B461888434621681B88984701C4E2
:10368000431E9841013540420640AF42F1D130001F
:10369000C0BCB946B046F8BD0126F8E7142370B5A2
:1036A0000400188804330D001B880349984729003B
:1036B000030020009847C04655420000142370B50F
:1036C0000400188804331B880D000549984703003F
:1036D0000020002C01DB0130A04029009847C046A3
:1036E00055420000AA23064A1B0113608D235B008C
:1036F000D3600449044B19605368002BFCDA70470F
:103700000040024000B0FA00006002407047C0462E
:1037100010B50148FEF7A0FC00AB001070B5074DD6
:10372000074EB54209D20024013E761BB60808CDEB
:10373000984723000134B342F9D170BDA095001021
:10374000DC95001070B5074D074EB54209D2002434
:10375000013E761BB60808CD984723000134B342DA
:10376000F9D170BDD4950010DC950010054B064AC8
:1037700006491A60064A074B1A6010000B68984306
:10378000FBD1704700E00040BFCDFBFE08C0004009
:10379000FE7F3C0000F00040044BDB6C002B03D1AB
:1037A0008022034BD2021A607047C04600001150BD
:1037B0004C201150044A054B1A60054A1368DB017E
:1037C0008033FBD17047C046FFFFFF0100F000408F
:1037D00008C000404022034B9A675A671A67DA66AE
:1037E0007047C04600F0014010B5FEF7D9FC10BD8F
:1037F000F8B52D492D4C2E4D641AA6103200302EEE
:1038000000D930222800920000F0EEFFBC2C41D8F5
:103810000123711C08009C46264A30293DD92F27D8
:103820002C196407E30FBF1B052F19D9302917D8AE
:10383000002B36D0B1006A506146CC1AF3189B00B9
:103840006108EB18C900C9181A605A6008338B4226
:10385000FAD101232100994346188C421AD0711CD9
:10386000B300EA50302915D089006A50B31C2E2EBF
:1038700010D09B00EA50F31C2D2E0BD09B00EA5079
:10388000331D2C2E06D09B00EA50731D2B2E01D029
:103890009B00EA50084B9D60F8BD2F339B1B9C4654
:1038A000BDE73000C8E7C04600010010C0010010AD
:1038B00000000020C101001000ED00E0002310B561
:1038C000294C82B0A367FFF70DFF0122274B1A6036
:1038D000636C012BFCD10322254B1A60224A936BA7
:1038E000012BFCD1013300930121224A22480433E9
:1038F000FFF7B4FD052301210093204A2048FFF77C
:10390000ADFD0022022104201E4BFFF78FFB002299
:10391000012105201C4BFFF789FB00220021072015
:103920001A4BFFF783FB002200210820174BFFF7FB
:103930007DFB8023DB000093002200210920134B34
:10394000FFF7FAFA0022104B00210620FFF76EFB6A
:103950000420FFF7DFFB0E4900F04CF801000020C7
:10396000FFF762FE02B010BD008000403CB0004096
:1039700030B00040002F685900800240008C86471C
:1039800000C00240001BB70040597307006CDC0206
:1039900040420F0001480421014B1847C01100208C
:1039A00059360010124A936F9B0815D29066D16663
:1039B000002905D0FFE7FFE7FFE7516F106F704761
:1039C00004B580210906C2175140002800D0C84321
:1039D00005F0A6FD002104BDF0B5146E556E576FBD
:1039E000166FFFF7E3FF1466556657671667F0BD5D
:1039F000000000D0114A936F9B0813D210665166E5
:103A0000002905D0FFE7FFE7FFE7516F106F704710
:103A100004B5002801D00020C04305F081FD00213D
:103A200004BDC046F0B5146E556E576F166FFFF7A4
:103A3000E5FF1466556657671667F0BD000000D0B5
:103A400094464A4A926F9208624601D228E0C046E4
:103A5000F0B5464E346E756E776F366F00F020F815
:103A60009446424A14665566576716676246F0BD2B
:103A700094463E4A926F9208624601D254E0C04694
:103A8000F0B53A4E346E756E776F366F00F04CF8C5
:103A90009446364A14665566576716676246F0BD07
:103AA000002B24DB11D000293EDA00B5C943404287
:103AB00000D1013100F038F8C943404200D1013152
:103AC000DB43524200D1013300BD002AEBD1002874
:103AD00001D1002905D00020C90FC90701D1C04379
:103AE000410800B505F0FCFC0022002300BD00B534
:103AF00000290ADBDB43524200D1013300F014F805
:103B0000C943404200D1013100BDC943404200D108
:103B10000131DB43524200D1013300F005F8DB43B1
:103B2000524200D1013300BD002923D1002B18D10E
:103B3000002A0CD0BC460D4F38667A66002100235F
:103B4000FFE7FFE7FFE77A6F386F674670470028A7
:103B500001D00748010000B505F0C2FC0022002397
:103B600000BD02000B00002000217047000000D0C3
:103B7000FFFFFFFF002B00D0BFE0130C28D1002A6D
:103B8000E7D080B4114F39667A66FFE7FFE730B4BB
:103B9000040C7B6F396F1B0423433B667A66FFE797
:103BA000FFE7FFE7C04684B27B6F3D6F1B042343F2
:103BB0003B667A66FFE7FFE7C04600232C042D0C26
:103BC0007A6F386F00196941B0BC7047000000D0AF
:103BD000F0B594460025140E01D112020835140FD9
:103BE00001D112010435940F01D192000235D40F96
:103BF00001D152000135D40B0134254F7C66254C90
:103C00003C660E0C93B2FFE7FFE7FFE73C6F6643AD
:103C1000360C7703BE467343DF0B5B04C01AB94111
:103C2000130C7343DB18C91ACE086643360CB6442E
:103C300093B273431F0F1B01C01AB941130C734396
:103C40001F0B1B05C01AB941860D8F023E43664308
:103C5000360C092D24DB520A7243801A7703460A78
:103C60006643360C16235B1BDE40DF40BF196446FB
:103C70006643821B7046043506330100D940A840D4
:103C8000C01900D30131A24206D20023F0BD0000CA
:103C9000000000D0FFFFFFFF121B0130F3D3F1E75C
:103CA00009277F1BFE406446A2B27243801A00D2ED
:103CB0000139220C7243130C1204821A99410B0031
:103CC0007046043513370100F940A840801900D32D
:103CD0000131002B02D1A2420AD2F0BD013000D343
:103CE0000131121BFAD2013BF8D1A24200D2F0BD41
:103CF000013000D30131121BF7E7F0B51C0C00D0E6
:103D000080E00CB400251C0A04D11B02160E3343BC
:103D1000120208351C0B04D11B01160F334312018C
:103D200004359C0B04D19B00960F3343920002355F
:103D3000DC0B02D192185B4101351C0097186441DD
:103D40000134464F7C66464C3C660E0CFFE7FFE7AD
:103D5000FFE7C0463C6F6643360C7703BE4697B21A
:103D60007743C01B00D20139C01B00D201399FB27A
:103D70007743C91BC91B170C77437E04FF0B801BBD
:103D8000B941CE086643360C0C2D33DBB644120B1A
:103D90001F053A431B0B97B27743C01B00D2013972
:103DA0009FB27743C91B170C77433E043F0C801B1F
:103DB000B941860D8F023E43664329277F1BFE4093
:103DC0000C3D7746AF40BF1930BCA2B2ABB27243D4
:103DD0007343801A9941220C7243130C1204801A07
:103DE000994102000B000137001BA941F9D2781E4E
:103DF0000021F0BD0C277F1BFE4077467F0BAF40B4
:103E0000FF19E0E700245D1C07D0144F7D6639667A
:103E1000FFE7FFE7FFE7FFE73C6F95B29EB2654320
:103E20006643401BB141150C1E0C654366433604C6
:103E30002F0C3E432D04401BB141994204D2020095
:103E40000B0020000021F0BD01D19042F7D3801A71
:103E5000994101349942F2D3F6E70000000000D006
:103E6000FFFFFFFF48404140484018B41B4B5B68D0
:103E7000FC46019308BD04DF0B41001018B4174B3A
:103E80001B68FC46019308BD00DF154100109446F5
:103E9000134A926F920809D2624618B40F4BDB683E
:103EA000FC46019308BD0CDFCD4300100C4AF0B571
:103EB000146E556E576F166F6246FFF7EEFF084A95
:103EC0001466556657671667F0BD18B4034B9B68B8
:103ED000FC46019308BD08DF71420010E81700207E
:103EE000000000D0FFB550404240504059404B4088
:103EF000594000E0FFB5154F4C00640D03D0BC42A3
:103F000004D10C0314D80020090D09055C00640DD0
:103F100003D0BC4204D11C030AD800221B0D1B0590
:103F200001264B4009D44B4003D58B4200D182423D
:103F3000FFBD9942FCD19042FFBD0B43DB18034308
:103F40001343F5D0C9434918FFBD0000FF07000027
:103F500000B5FFF7CFFF804100BDC04600B5FFF7B9
:103F6000C9FF01D9002000BD012000BD00B5FFF749
:103F7000B9FF01D9002000BD012000BD00B5FFF749
:103F8000B1FF804100BD012040054A00121804D84D
:103F90005A00121801D80020704701207047000015
:103FA0000021002805D17047C1174840401AFAD0B7
:103FB000C90713B5064B1B6898470CBC441CA240AC
:103FC0001005120B0349091B09051943114310BDC4
:103FD000A83F00201F04000010B54C00620D802394
:103FE000D218DB00D21A5B057E2A10DD9E3A13DA66
:103FF000CC170903490819435242D14064000134E7
:104000001532202A05DAD0400843604310BD002055
:1040100010BD0846604310BDC80FC018013810BD60
:1040200018B4044B5B6AFC46019308BD24DF7D4550
:1040300000100000E8170020132370B51D78012D33
:1040400019D014DD1E48FFF7FFFA06001D48FFF7E0
:10405000FBFA1D4C80223100200000F0C5FB022D30
:1040600006D01A48FFF7E8FA194B186070BD164CD5
:10407000184BA364F5E7174B134C23606360A360F0
:10408000E36023616361A361E36123626362A3620E
:10409000E36223636363A363E36323646364A364EE
:1040A000E36423656365A365E36523666366A366CE
:1040B000E36623676367A367E367A364D1E7C0464A
:1040C0005344000053460000E81700204C33000022
:1040D000A83F0020D940001007B5604601880A0AB1
:1040E0000230DF2AFAD1C9B2820804D3028840889C
:1040F0000004104300E00068014A5050039007BDDF
:10410000E81700200FB403BC0CBCF0B50124E40791
:10411000634000E0F0B50C0DCF0F661E3605891B1D
:10412000640503D3C943404200D30131640D03D079
:10413000661CF60A07D0E41B00207F00791C890763
:104140008912803C24031D0DDF0F6E1E36059B1B5C
:104150006D0503D3DB43524200D301336D0D03D011
:104160006E1CF60A07D0ED1B00227F007B1C9B070C
:104170009B12803D2D032F1B661B58D4A446202E76
:1041800046DA20371400BC401D00BD40F2403341E8
:104190002A4380185941CB0F05D0C943C0430022A0
:1041A00064425041514162464D0D28D10D0D07D159
:1041B00000281FD0241940414941013A0D0DF9D082
:1041C000640006D3013000D30131002C01D1400836
:1041D0004000013A0BD4941CE40A04D112051144A6
:1041E000DB071944F0BDD907204B194300E0D9077C
:1041F0000020F0BD0029DDD1002CDBD1F0BD013263
:10420000C6074008CD0728434908002EE1D0D9E76A
:104210003C2E29DA203E40371400BC4000D0012457
:10422000F24014431A00BB401C43D317ACE7AC4622
:10423000202F08DA20360400B4400D00B540F840C5
:1042400039412843A5E73C2F0CDA203F40360400D3
:10425000B44000D00124F84004430800B1400C43AE
:10426000C117EAE710001900002494E70000F07F6E
:10427000F0B50C0D661E3605891BE60A6405640D53
:1042800002D0651CED0A04D0002001210905803C04
:104290002403A4461C0D671E3F05DB1BE70A6405CB
:1042A000640D02D0651CED0A04D0002201231B0519
:1042B000803C24037740644497B484B296B274433C
:1042C000070C7E43150C6F4380B26843361802D347
:1042D000012000043F183004350C00197D4184464C
:1042E00088B29AB250430C0C62431F0C7C438EB2CE
:1042F0007E43921902D301263604A4191604170C22
:104300003618674101BC81B29AB25143040C624332
:104310001B0C5C4380B25843121802D301200004E6
:1043200024181004130C401863412D185E4100201E
:10433000474106BC88B293B258430C0C6343120C3D
:10434000544389B251435B1802D301210904641814
:1043500019041A0C091862416D1856410020474192
:1043600018BCF902720D1143F0026A0D1043ED0200
:104370000A0D03D16D1940414941013B124E9B1B6F
:104380007600B3420ED26D0007D301300026714192
:104390006646354301D1400840001B05C918E407B3
:1043A0002144F0BD0BDA013306D1013004D10131D3
:1043B0004F0D01D04908F2E7E1070020F0BD0136BA
:1043C00031050020EBE70000FF030000F0B51C0DF5
:1043D000671E3F05DB1BE70A6405640D02D0661CFF
:1043E000F60A04D0002201231B05803C2403D025BB
:1043F0002D060026F6432E661E096E66CE0FF619B0
:10440000B44649004F0D02D07E1CF60A03D00020AE
:104410000021403F3F033E1BB600B444013F7F05EF
:10442000C91B49082E6F013676089C02950D25435D
:104430007543ED137543AD1301356D10F603761B0F
:104440000CB4CC02450D2C43A2B2B3B25A43270C94
:104450007B43350C6F43A4B26C431B1902D3012478
:1044600024043F191C041D0CA4187D4124196D411E
:10447000009A91B2ACB26143170C7C432B0C5F43A2
:1044800092B25A43A41802D301221204BF18220484
:10449000230C52187B41019C6C431B19520ED9010D
:1044A0000A434401A01A81B2B2B2514303145A43E1
:1044B000360C734387B27743D617D21900277E4153
:1044C00036049B191704160C7F185E417316ED18FD
:1044D000F301002680337541A90F06D16400690AF3
:1044E000E8055B0A184309D22FE004229444803384
:1044F0007541A90AA8059B0A184326D340414941A2
:104500002404009A019B0D005543641B4343E41AA5
:1045100095B286B27543170C7E43030C5F4392B28B
:104520005A43B61802D301221204BF183204330CC6
:1045300052197B4152429C41002C02D4002201308E
:1045400051414008CA071043490802B06246D707E4
:104550009210084BD218084B9A4203D212058918C0
:10456000C919F0BD0020002A01DC3900F0BD01337B
:104570001905F5E7FD030000FE070000002200B565
:10458000203200F004F8080000BD000000220B15E6
:104590000AD410B5944600F031F81414013400DA4E
:1045A0000021CB17144C20470020002170476244A3
:1045B000343A0CD40C2A07DA04009140904052425D
:1045C0002032D440214310BDD843D94310BD2032FE
:1045D00007D40C469440524220321141D04020432F
:1045E00010BD0800C917203203D4524220321041B6
:1045F00010BD1800190010BDAF4500100A0DCC0FFA
:10460000531E1B05C91A520503D3C943404200D3A8
:104610000131520D03D0531CDB0A07D0121B0020BE
:104620006400611C89078912803A1203014BD21A77
:1046300070470000FF03000051434343C9188C46F4
:10464000110C83B24B4310B4040C614392B280B29C
:10465000504362431C041B0C001910BC5941130445
:10466000120CC0185141614470470000484041405D
:1046700048400E4B5B6818470C4B1B6818470C4AA8
:10468000936F9B0802D2094BDB681847F0B5146E94
:10469000556E576F166FFFF7F6FF054A146655669D
:1046A00057671667F0BD014B9B681847E818002054
:1046B000000000D0C10FC90700D54042002817D024
:1046C000F44603B40B4B1B68984706BC81409E38E8
:1046D0004042803107D20B0607D04900490AC00585
:1046E0001043084360470130F8E7490A8902F5E7BB
:1046F00070470000A83F0020034BDB6FFC461847C3
:104700007CDF9D4700100000E8180020132310B53F
:1047100012481C78FEF798FF0100012C0AD003DD37
:1047200080220F4800F060F80E48FEF785FF0E4B20
:10473000186010BD0A4C5422200000F055F80B4BB5
:104740006365A365E36523666366A366E366236723
:104750006367A367E3672362E361E5E7534600000D
:10476000E81800204C330000A83F002071470010DB
:1047700007B5604601880A0A0230DF2AFAD1C9B2B9
:10478000820804D3028840880004104300E00068D7
:10479000014A5050039007BDE8180020C30FDB0703
:1047A00041000A0E07D0FF2A08D00909054A8918D6
:1047B0001943400770471900002070470249C91883
:1047C000FAE70000000000380000F07F01480421F3
:1047D000014B1847D011002059360010014B1B68BF
:1047E00018470000D0110020014B5B6818470000FB
:1047F000D01100207047C046F8B557464E46454692
:10480000DE46E0B599460A9B07009A460D9B88460E
:10481000934615000B9E9B0710D10C9B9E420DD218
:104820009D1B14000E005D4422004B4601343100F4
:104830002020B847A542F7D1B0460B9E002E27D0C6
:10484000444675195346AA1B013E985D21004B460C
:10485000B847002EF6D123002C0098460D9B9B07ED
:104860000FD55B46E51A0C9BAB420AD946469846E3
:1048700022004B46310020200135B8470134A845BD
:10488000F6D82000F0BCBB46B246A946A046F8BD0B
:104890002C00E3E7F0B54F464646D646C0B584B097
:1048A00098460EAB1B78129F994694460D9C109B20
:1048B000119EBA0725D4002E4BD19C4200D3BFE0F5
:1048C00001223A4092461F2C00D9B8E00C9A551E9E
:1048D000302201E0202C03D001342A55A342F9D81C
:1048E0005246002A0DD0A6420BD9202C44D00C9A57
:1048F000551E302201E0202C3ED001342A55B4420E
:10490000F9D1FA064DD57A053FD4002C39D10F9B49
:10491000102B00D179E00F9B022B00D18AE03023CD
:104920000C9A012413704B46002B3FD02D230C9A78
:10493000135501340C9B624600930397434602963D
:104940000194FFF759FF04B0E0BCBA46B146A8464F
:10495000F0BD012215003D40AA463A422FD04A46FA
:10496000002A02D10C323A4200D0013E9C42BAD217
:104970001F2CABD9202E27D92024FA06DAD57A05A8
:1049800003D4A3422DD0A6422BD00F9B102B32D0A4
:10499000022B20D0202CCDD030220C9B1B191A705A
:1049A0000134202CC6D04B46002BBFD17B070DD441
:1049B0003B07BFD520230C9A13550134BAE79C421C
:1049C0009FD21F2C00D881E720249AE72B230C9A32
:1049D00013550134AEE7202CACD00C9B1B190134CD
:1049E0003AE0631E012C92D00F9A102A2AD0022A94
:1049F0002FD01C00D0E7BB060ED4202C9AD00C9BE5
:104A00001A19013478231370C4E7BB060DD4782338
:104A10000C9A01241370BFE7202C00D18AE758229A
:104A20000C9B1B191A700134B4E758230C9A01240B
:104A30001370B1E70C9A603301241370ACE72024A3
:104A400000265EE7023CBA06E9D40C9A12191C0053
:104A5000D8E70C9A9246534462221A709AE7C046ED
:104A600010B5002800D110BD01F03EFBFBE7C046A9
:104A70000B0010B5002802D049681B68984710BD8C
:104A8000F0B5DE4657464E464546E0B59BB09B46E0
:104A9000249B89469846259B0B900C9240464246A3
:104AA00019009A46FFF76FFA002800D0D8E00122DB
:104AB00040465146774B5242FFF760FA002800D03B
:104AC000CEE0012240465146734B5242FFF740FA76
:104AD000002800D0C4E00022002340465146FFF7E2
:104AE00037FA002800D0B9E1424653460A920993AA
:104AF0008023289ADB001A400E92289A1A4201D18C
:104B0000062326930A9A099B1600134300D0C7E098
:104B1000289B002500261B0500D49BE100230D9354
:104B2000269A0D9B9A4200DC9FE1D01A431E2693E1
:104B30008023289ADB001A430023002728920D9334
:104B4000279B0024BB4200D9DC1B0223289A1A4071
:104B50000E92289A134203D07B427B415B421C4059
:104B60000D9B002B07D00A9809992A003300FFF704
:104B70008EF90A9009910022002340465146FFF722
:104B8000E7F9002805D08020000684460999614491
:104B90000991289A414B0B9D13400493269B0A9A36
:104BA0000293099B03940092019349465B462800B7
:104BB0000C9A00F08BF90400002F62D0289B220091
:104BC00098061F23C0179843631C984649465B46C6
:104BD0006530A8470D9B0025DA179C18DB0F9A4615
:104BE0005440013F01E0202D13D00AAA94461F2310
:104BF000200063440A2101355E19FEF7FBFE3031C7
:104C0000317020000A21FEF7F5FE26000400092E6F
:104C1000E9D805230693002304930A3303935346EC
:104C200005970B9F029312AB009342465B464946A1
:104C300038000195FFF72EFE0E9B0400002B20D0BC
:104C40000C9BC51A279BAB421BD91E0022005B465A
:104C5000494620200135B8470134AE42F6D810E06D
:104C6000289B42460493279B49460393269B0B9817
:104C700002935346009201935B460C9A00F026F98A
:104C8000040020001BB0F0BCBB46B246A946A046BB
:104C9000F0BDC046FFFFEF7FFFFFEFFFFFF7FFFF15
:104CA000734B099F9C467800400D6044FFF77CF9E8
:104CB000704A714BFFF709F9704A714BFFF7DEF844
:104CC0003B03704A1B0B1A4304000D003000110017
:104CD0006D4B0022FFF7C9F86C4A6D4BFFF7F5F8F2
:104CE00002000B0020002900FFF7C8F8FFF774F955
:104CF0000D90FFF759F9674A674B04000D00FFF765
:104D0000E4F80022654BFFF7B9F8FFF765F9644A4C
:104D10000600644B20002900FFF7D7F8040030009C
:104D20000D000F96FFF740F95F4A604BFFF7CDF893
:104D300002000B0020002900FFF797F802000B008B
:104D400006000F00FFF7C1F8320004000D003B0021
:104D500030003900FFF792F8002210901191544B67
:104D600020002900FFF793F80022524BFFF786F846
:104D700002000B0020002900FFF789F800224E4BAB
:104D8000FFF77CF802000B0020002900FFF77FF8F6
:104D90000D008021040032003B000020C905FFF710
:104DA00064F802000B0020002900FFF767F80200FA
:104DB0000B0010981199FFF76AF80022314BFFF7AA
:104DC0005DF83E4B0F9C9C46644400222305FFF790
:104DD0007CF805000E0002000B000A980999FFF705
:104DE000B7F800280AD00D9B2800013B31000D9335
:104DF0000022304BFFF74BF805000E00C6270D9937
:104E00002B0063318F42BF4128997F420437090547
:104E100000D495E6334300D182E6099C284A21005C
:104E2000284B0A98FFF7A2F8002808D0002221009A
:104E3000254B0A98FFF78CF8002800D070E6269BD7
:104E4000002B00D17CE60E9B5A1E9341269AD31A62
:104E5000269375E6002304270D9371E643460A93D3
:104E600080231B065344099342E6002326935FE602
:104E700001FCFFFFFB799F501344D33FB3C8608B05
:104E8000288AC63F0000F03F0000F83F61436F638F
:104E9000A787D23F71A379094F930A400000E03FF2
:104EA0001655B5BBB16B0240EF39FAFE422EE63F14
:104EB00000002C400000244000001840FF030000C8
:104EC0002D431CEBE2361A3F80842E41F0B54E464E
:104ED000DE4657464546E0B597B09946209E219F4D
:104EE000229B8346984607910C923B00320030008B
:104EF0003900FFF748F8002800D0A9E1012230006E
:104F00003900CA4B5242FFF723F8002800D0E1E0F5
:104F1000012230003900C64B5242FFF72FF800281B
:104F200000D0B7E0002230003900C24BFFF726F86E
:104F3000002800D099E0002230003900BE4BFFF776
:104F400007F8002800D090E000220023300039004C
:104F5000FEF7FEFF002800D0B1E000230D93249B54
:104F60005B0501D40623984608AB9C461722002413
:104F700030234146624404E0013413550139202CAA
:104F800001D00929F8D8884630003900FFF724F805
:104F90004346DA00A94B05009B181A685B68089223
:104FA0000993FFF701F802000B0030003900FEF70B
:104FB0005CFF089A099BFEF788FF0A900B91FFF7A8
:104FC0002FF88246FEF7ECFF02000B000A980B99BF
:104FD000FEF74BFF00229A4B0A900B91FEF7CEFF93
:104FE000002800D1C0E001239C46E2445046FEF771
:104FF000D7FF02000B0008980999FEF7AFFF0028C1
:1050000002D000239A4601354346002B6AD008ABF4
:1050100017269C4608956644554614E001235B42DA
:1050200043440A2128009A46FEF7E4FC013430315B
:105030003719397028000A21FEF7DCFC092D00D849
:10504000D0E0D0460500202CE8D10EAB98460323D3
:10505000249A1340012B00D196E02023249A019337
:105060000392239A434602921EE0249B58460493DF
:10507000239B00960197039343460C9A029307994A
:105080004B46FFF7FDFC17B0F0BCBB46B246A94645
:10509000A046F0BD249B5B070ED40322694B2499E4
:1050A0000192039123990291009358464B460C9A22
:1050B0000799FFF7A1FBE6E70422634BEFE73B000C
:1050C000320000200021FEF7D0FE012306000F0071
:1050D0000D9344E7249B0393239B029304230193A2
:1050E0005A4BE1E72800FEF75FFF02000B0030009B
:1050F0003900FEF7BAFE524B002206000F00FEF701
:1051000027FF0EAB984600280AD100223000390054
:105110004B4BFEF733FF002802D1EB0700D50135DA
:10512000202C94D008AA94461723280063440A210F
:1051300001341E19FEF736FC3031280031700A2187
:10514000FEF730FC051EEBD10323249A1340012BFC
:105150001BD0202C00D180E70D9B002B35D02D22B9
:105160004146631C0A5579E700220A980B99344B93
:10517000FEF7EEFE002800D046E75346002B51D143
:1051800001239C46E2443FE72024239B002BE0D0F0
:105190000D9B002B03D1249A0C33134202D0239B86
:1051A000013B2393239BA342D3D908AB9C461722F0
:1051B00030236244202C00D14FE72399013413554A
:1051C0008C42C6D0202CF8D147E7249B5B0724D41F
:1051D000249A2300120700D440E7202241460133DD
:1051E0000A553BE75746089D202C00D12DE72200A9
:1051F00030214046002F09D00132B154202A00D17D
:1052000023E7D3431B191B18002BF5D10EAB98468F
:105210002E234146541C8B5482E72B224146631CAB
:105220000A551BE7DB0700D4EEE6A9E7FFFFEFFF17
:10523000FFFFEF7F65CDCD4165CDCDC180AD0010C5
:105240000000E03F88AB00108CAB001098AB001062
:10525000249B0393239B029303230193004B23E797
:1052600094AB0010F0B5DE464E4657464546E0B5D5
:105270009FB01C00289B91460993C94AC94B8B4695
:1052800008901A60002900D118E2002320789A467D
:10529000002800D11AE226001D005C460AE02A0020
:1052A0006F1C4B46089D2100A8473D000136307811
:1052B000002870D02528F2D110239B46083B9A463F
:1052C000043B9846023B00219C46721C1078160055
:1052D0000300203BDBB2102B03D8B34F9B00FB58DD
:1052E0009F460300303B092B32D900230A932A281A
:1052F00068D0002398462E283ED00300683BDBB2DE
:10530000122B1CD8A94A9B00D3589F460123013277
:105310001943DBE7634601321943D7E743460132BD
:105320001943D3E75B4601321943CFE753460132B5
:105330001943CBE780235B007078194301360300E3
:10534000253BDBB2532BAAD8994A9B00D3589F46E2
:1053500000270300B800C01901364000C018337898
:1053600030381A00303A0700092AF3D90A90180099
:10537000002398462E28C0D180237078DB00194383
:105380000300303B721C092B00D8A1E12A2800D170
:10539000B2E11600B1E7A346AA462C00D14503D8D6
:1053A00001235B424B449A464B46524659460020E5
:1053B000089DA84720001FB0F0BCBB46B246A946D6
:1053C000A046F0BD099B40CB0A96002E03DB507827
:1053D0000993561C8DE72838014370420A900993BF
:1053E0005078561C85E7782800D1DFE1582800D195
:1053F0004CE26F2800D14FE3622801D100F030FC6D
:1054000010230A009A430B92692801D000F0A9FCEE
:105410000A230C934B0500D5D0E10B9A8023110091
:105420009B0019408B461A4200D0A1E28023110054
:105430005B0019408A461A4200D0B6E313005B06AF
:1054400000D5EDE2130009991B0601D400F076FCAB
:1054500008C91BB2D8171A18424092B20991934654
:10546000DA0F1292002B09D1802310220B99DB0056
:105470000B4091430B91002B00D0E4E20B9A612387
:10548000920600D541230EA91F228C46DBB262444E
:105490000A3B5F461395A34655460C9CB2460D93B6
:1054A00016000AE03033DBB201357355A74200D253
:1054B000EDE2202D00D1EAE2070021003800FEF7DE
:1054C00099FACBB20929EDD90D9A94466344DBB21F
:1054D000EAE780239B007078194301362FE7707844
:1054E000682800D1CDE180230136194327E7707881
:1054F0006C2800D1BFE180235B00194301361EE711
:10550000462800D19BE10722099B0491073393436E
:105510000A9A19000392424602920CC90898009216
:10552000019309912A004B462100FFF7CFFC013679
:105530000500BCE62A006F1C4B46089D2100252073
:10554000A84701363D00B2E68B0700D4ADE1099BC8
:105550002A009A466B1C9846534601CB21009A4676
:10556000089F4B46C0B2B8470A9B9C466544012B36
:1055700000D886E2089B4746B04626004C4699462E
:105580003A002300013731002020C847AF42F7D14D
:10559000A1465346340046460993013687E6C04685
:1055A000655200107C2E0020A0AB0010E4AB001070
:1055B00030AC0010099B04CB9B4643460992002B5C
:1055C00000D1C6E013789C46002B00D1BDE34346D2
:1055D000013B099A0133D0180A9F130001E083426E
:1055E00003D05A780133002AF9D1099A0A979B1AF5
:1055F0000B9380230A00DB001A400C92194204D05E
:105600000B9B434501D943460B9302231A000A40E2
:105610000D920B4200D187E16046002800D168E17D
:105620000C9B002B00D10DE1A844C246099B5746B4
:105630005B1B9846089BB2462A0026004C469946BA
:1056400009E023003100551CC8474346585D002837
:1056500000D126E12A009742F3D1A1463D00340053
:1056600056460D9B002B00D043E15B460136099363
:105670001DE6099B1A0008CA9246002B48D0212239
:1056800011438B460EA884461F21614409950022D0
:105690000F27A4460D0002E0202A0CD00B003C008E
:1056A0001C4020003730092C00D807380132A8549C
:1056B00019090F2BF0D86446099D32E0DC4B2078A5
:1056C000089300239A46002800D0E4E5002465E60C
:1056D000434606000A9F9800C01801324000801916
:1056E0001678030030003038303B0928F3D93000F9
:1056F000984616000A9700E6099B023604CB9046AE
:10570000D2434046D2171040804609933078F4E5E2
:1057100010220800904311321043834600224905AD
:10572000B0D55B46069308230593434604931023A4
:1057300003930023029316AB019200932A004B4679
:1057400021000898FFF7A6F8534605000136099393
:10575000ADE513789C46002B00D1F7E202235B42B3
:1057600037E7202302009A43472A04D180231B01F4
:10577000194302239843452801D1202319430722C6
:10578000099B0491073393430A9A190003924246F6
:1057900002920CC908980092019309912A004B4685
:1057A0002100FFF76DF90136050080E510230C9309
:1057B0000C230A009A430B924B0503D501230B9A45
:1057C0009A430B92692800D127E6642800D124E689
:1057D0000B9A802311009B0019408B461A4200D07F
:1057E00066E1802311005B0019408A461A4200D00E
:1057F00039E213005B0600D53CE113001B0600D420
:10580000A6E2099B04CB1204120C934609935B4653
:10581000002B00D09AE10B9A1033110099430B91A1
:10582000520500D492E100239A460B9B06930A9BF3
:105830000593434604930C9B039300230CE1202320
:10584000194360E6099B0A9A5B1B98464B469146B2
:105850001F00B2462600089C2A003B003100A047EA
:1058600043460135585D0028F6D14A463400B94612
:1058700056460A92F5E6C0239B00B07819430236DB
:105880005DE5C023B0781943023658E50C230A00C1
:105890009A4314331A43103B0B920C934B058DD44F
:1058A00096E7A14634005646DBE60A9A012A00D85C
:1058B00053E26B1E9F18089BB04626004C46994643
:1058C0002A002300013531002020C847BD42F7D10E
:1058D000A14634004646099B3A0001CB2100984678
:1058E0007D1C4B46089FC0B2B8474346013609931A
:1058F000DDE40B9B0A9AA8469A4200D8B5E6944686
:105900006544ED1A089B4746B04626004C4699462A
:105910003A002300013731002020C847AF42F7D1B9
:10592000A14634004646A0E60B9A0A99531C9142C0
:1059300000D814E24B199B1A1F00089BB2462600A0
:105940004C4699462A002300013531002020C847E3
:10595000BD42F7D10A9BA14601330B93099B34004A
:105960001B7856469C466046002800D058E67CE6E8
:105970000722099B07339343013294469C446246B5
:105980005F6809921A68FB17109311931098119988
:10599000030053400E930B007B400F9394460E9AE6
:1059A0000F9B121A8B410E920F93FB0F62461293BC
:1059B00000233A439B463DD00B9A6123920600D5C3
:1059C00041230022DBB20EA90A3B8C4692460D937E
:1059D00043461F3262441395159655460E9E0F9FFF
:1059E000A24690460C9C14930CE03032D2B243464F
:1059F00001355A55BB4500D18AE1202D00D18AE1FD
:105A000006000F002200002330003900FEF730F8B6
:105A1000D2B2092AE9D90D9B9C466244D2B2E6E78C
:105A2000FF23099904C913401A00099117E5C046DC
:105A3000F54700100B9A1033110099430B91520552
:105A4000BAD500239A460B9B06930A9B05934346BF
:105A500004930C9B0393129B02935346019316AB42
:105A60002A00009321004B460898FEF713FF0136E9
:105A700005001CE4FF22099B02CB11408B460993D1
:105A8000C5E65346454609930136FFF710FC5646D6
:105A90005C46AA46139DD6E708230C930B910B99FD
:105AA000642800D084E60B9B5B0500D586E6B4E451
:105AB0000722099B07339343013294469C44624674
:105AC00009921A685B6810009B4613005A461343FC
:105AD00007D10B9A1033110099430B91520500D551
