:020000041000EA
:1000000000B5324B212058609868022188439860DF
:10001000D860186158612E4B002199600221596106
:100020000121F02299502B49196001219960352056
:1000300000F044F80222904214D00621196600F024
:1000400034F8196E01211966002018661A6600F04E
:100050002CF8196E196E196E052000F02FF8012189
:100060000842F9D1002199601B49196000215960AB
:100070001A491B48016001219960EB211966A021F2
:10008000196600F012F800219960164914480160C1
:100090000121996001BC002800D000471248134993
:1000A000086003C880F30888084703B5996A0420EC
:1000B0000142FBD001200142F8D103BD02B5186610
:1000C0001866FFF7F2FF186E186E02BD00000240BE
:1000D000000000180000070000035F00212200005C
:1000E000F4000018222000A00001001008ED00E03C
:1000F00000000000000000000000000074B24E7A12
:1001000000200420F7010010CB010010CD010010E9
:10011000C9010010C9010010C9010010C901001077
:10012000C9010010C9010010C9010010CF01001061
:10013000C9010010C9010010D1010010D301001045
:10014000C1010010C1010010C1010010C101001067
:10015000C1010010C1010010C1010010C101001057
:10016000C1010010C1010010C1010010C101001047
:10017000C1010010C1010010C1010010C101001037
:10018000C1010010C1010010C1010010C101001027
:10019000C1010010C1010010C1010010C101001017
:1001A000C1010010C1010010C1010010C101001007
:1001B000C1010010C1010010C1010010C1010010F7
:1001C000EFF30580103800BE00BE00BE00BE00BECA
:1001D00000BE00BEF2EB887180F20010A0F20010A9
:1001E0003802001090A31AE71E481F49086006C88D
:1001F00081F3088810471D480068002801D019487D
:10020000F3E70DA40ECC002902D000F012F8F9E7B4
:100210001749184A002000E001C19142FCD116495B
:100220008847164988471649884700BEFDE701C937
:1002300001C29A42FBD37047A0F20010C000002018
:10024000701A0020500C011000000420000004204F
:10025000500C0110001004200010042000000000C9
:10026000704700000000000008ED00E0000000D032
:10027000701A002044780020E97D0010210300104E
:10028000E17D0010F8B5C0460448054B10B5834227
:1002900003D0044B002B00D0984710BD701A0020EB
:1002A000701A00200000000006480749091A8B1048
:1002B000C90FC91810B5491003D0044B002B00D04A
:1002C000984710BD701A0020701A0020000000002E
:1002D00010B5074C2378002B09D1FFF7D5FF054B4C
:1002E000002B02D0044800E000BF0123237010BDA2
:1002F000F81D0020000000004CC60010054B10B592
:10030000002B03D00449054800E000BFFFF7CCFFF5
:1003100010BDC04600000000FC1D00204CC60010AF
:1003200010B500F019F800F05BF8FCE7192010B5E3
:1003300003F03EFD0124D0228021064812060378F6
:10034000890463405162037001D0516110BD916115
:10035000FCE7C0464278002010B507F0C9FE02E075
:10036000642004F095FC08F089FA0028F8D000F029
:10037000E5FB134C134A2100012000F04BFC00F078
:1003800033F803F051FA210001200F4A00F042FC3B
:1003900000F04EFBFA220D4992000D4800F05CFB84
:1003A00021000C4A012000F035FC0B4807F03CFF0F
:1003B00001F0B8FA21000120084A00F02BFC10BD22
:1003C00068C6001050C6001070C600102D03001043
:1003D00080C600108CC600109CC60010B4C6001069
:1003E00010B501F0B3FA10BD70B5454C84B02000D3
:1003F00000F004F900284CD005F0C2F8002805D020
:10040000404BDA68404B9A4200D168E0D026802504
:100410000F202D02360603F0CBFCB562002201212D
:100420000F2003F017FC052004F032FC76682089C9
:100430002E4075427541E388000418430300303BA9
:10044000EDB2982B33D9A37A002B26D10A2007F0DE
:100450009FFE2E4807F0E8FE2D4807F0E5FE2D49E7
:100460002D4807F06BFF2D4807F0DEFE2C4BAA004D
:10047000D1582C4807F062FF21002B480C3107F0BF
:100480005DFF0A2007F084FE002E24D0280004B06F
:1004900070BD264807F0C8FEAEE7192003F088FCBF
:1004A000D02380221B0692045A625A61CEE7430190
:1004B0001B1A9B001818C00003AB02AA01A904F084
:1004C000C3FE002815D12189E3880904194318487F
:1004D00007F034FFB7E7174807F0A6FED6E716483F
:1004E00007F0A2FEC82004F0D3FB0021002005F095
:1004F00089F8039A0299019804F0C6FDE3E7C04623
:100500000026002000800540DFDFDFDF74C7001019
:10051000E4C7001014C8001020C8001040C8001024
:10052000E8C80010B0C80010C0C80010C0C6001055
:1005300018C7001034C70010F0C6001070B50400D2
:100540003C220021043006F0FDF8022300222000A6
:100550005B422370343B63700A3BA3701E33E3702D
:100560002333244923716271E3720C300F320BF094
:10057000AFFD26000123250001201F493C365B42C8
:100580002A7801355A405308024052420A405340EB
:100590005A0803405B420B405A4053080240524203
:1005A0000A4053405A0803405B420B405A405308EC
:1005B000024052420A4053405A0803405B420B40FB
:1005C0005A405308024052420A4053405A080340DE
:1005D0005B420B405340AE42D2D1DA433C213D2333
:1005E0006254110AE154110C0133E154120E01332B
:1005F000E25470BDF4C800102083B8EDF0B5C646D3
:100600008049814B0A68040000B59A4202D18B8868
:10061000012B5ED03C220021201D06F093F802231E
:10062000002220005B422370343B63700A3BA370BE
:100630001E33E3702333754923716271E3720F3205
:100640000C300BF045FD26000123250001207049E8
:100650003C365B422A7801355A40530802405242E8
:100660000A4053405A0803405B420B405A4053082B
:10067000024052420A4053405A0803405B420B403A
:100680005A405308024052420A4053405A0803401D
:100690005B420B405A405308024052420A405340CA
:1006A0005A0803405B420B405340AE42D2D1DA437A
:1006B0003C213D236254110AE154110C0133E154F1
:1006C000120E0133E25400239846404680BCB846DF
:1006D000F0BD402206F03CF8260001232700200050
:1006E00001254B493C365B42027801305A405308A1
:1006F0002A4052420A4053405A082B405B420B406A
:100700005A4053082A4052420A4053405A082B404C
:100710005B420B405A4053082A4052420A40534021
:100720005A082B405B420B405A4053082A40524221
:100730000A4053405A082B405B420B4053408642CC
:10074000D2D13D213C22615CA25C090211433E22D0
:10075000A25CDB43120411433F22A25C12060A434F
:10076000012188469A42B0D02A4807F05DFD3C221C
:100770000021201D05F0E6FF02235B422370343B7D
:1007800063700A3BA3701E33E3704346200023715D
:1007900000231E4963710F22E5720C300BF098FCA8
:1007A000012301201A495B423A7801375A40530825
:1007B000024052420A4053405A0803405B420B40F9
:1007C0005A405308024052420A4053405A080340DC
:1007D0005B420B405A405308024052420A40534089
:1007E0005A0803405B420B405A40530802405242B1
:1007F0000A4053405A0803405B420B405340BE42FC
:10080000D2D154E700F01F10FECAC0DEF4C80010B9
:100810002083B8EDFCC8001002235B4270B5037062
:10082000343B43700A3B83701E33C3702333037120
:100830000023060043710400050001202E493C36C8
:10084000013B2A7801355A405308024052420A407F
:1008500053405A0803405B420B405A405308024041
:1008600052420A4053405A0803405B420B405A40F0
:100870005308024052420A4053405A0803405B4228
:100880000B405A405308024052420A4053405A0813
:1008900003405B420B405340AE42D2D1DA433C218D
:1008A0003D236254110AE154110C0133E154120E3C
:1008B0000133E2548022114DFF212800520105F03E
:1008C00041FF40222100280005F042FFEFF3108491
:1008D00072B680210A4849010BF05EFE8022290091
:1008E000074852010BF040FE84F310880449054884
:1008F00007F024FD70BDC0462083B8EDE43200202F
:1009000000F01F0028C90010010010B504000C31D0
:10091000204807F013FDE379A179227A1B020B43EB
:10092000617A120413430906194323D11A4A1B485A
:1009300007F004FDA37A002B23D11949194807F0C9
:10094000FDFCE37A002B23D11749184807F0F6FC89
:100950003C233E22E15C0133E35CA25C1B020B43BF
:10096000120413433F22A15C11480906194307F002
:10097000E5FC10BD0F4A094807F0E0FCA37A002B04
:10098000DBD00D49074807F0D9FCE37A002BDBD018
:100990000A49DAE76CC9001054C9001080C9001078
:1009A000C8D900109CC9001068C90010B0C9001057
:1009B000C4C900104CC90010C0D9001064C900108F
:1009C000F0B5C646184B00B59846184F04F024FA07
:1009D000002922D0FA220023920004F0FDFF060035
:1009E0003A6844460025002A0FDD237C002B08D0FE
:1009F000E368A168F31A8B4203D3636898473A68A7
:100A0000E660013514349542EFDB6420002104F0E8
:100A10002DF904F001FA0029DCD1FA21890004F053
:100A20009DFF0600DCE7C046887700208477002021
:100A300010B5A0220021054805F084FE04480AF004
:100A4000C3F8044807F0F0FB10BDC04688770020CB
:100A5000C1090010DCC90010F0B5104E0700306865
:100A6000072817DC002915D085000D4C2B189B009A
:100A7000E750E3185960002A0AD09A6000232D1825
:100A8000AD006419E36001332374431C3360F0BD8F
:100A90000132F2E701204042F9E7C04684770020A6
:100AA00088770020002809DB054B1B68834205DDA1
:100AB00083001818034B8000181801747047C04653
:100AC0008477002088770020F0B5CE46474680B571
:100AD000144883B007F0A8FB134E3368002B1CDDCD
:100AE000124B00259946124B124C9846124F0CE0BF
:100AF0002268A368009242462900380007F01EFCD5
:100B0000336801351434AB4207DD237C002BEFD171
:100B10002268A36800924A46EEE703B0C0BCB9461B
:100B2000B046F0BDF4C900108477002068C90010F9
:100B300064C900108877002010CA0010F0B5D646AE
:100B40004F464646A822C0B52C4B88B0002118005D
:100B500052019A4605F0F6FD0023294D294F2A4EF1
:100B60002B603B60336020216846284A403307F001
:100B7000B3F82C6804F050F900293AD0FA22002387
:100B8000920004F029FF54235C43A0465346D0440E
:100B9000185142460123601D13711D490B22504418
:100BA0000BF096FA00239946200043464A4611303E
:100BB0001A7469463F3250440BF08AFA43464A465B
:100BC00050331A702B683F320133D917890E5B18E6
:100BD00013405B1A2B603B683F2B01DC01333B6009
:100BE00033680133336008B0E0BCBA46B146A8466A
:100BF000F0BDFA21890004F0B1FEC4E76C62002068
:100C00000C440020084400206C7700202CCA0010FF
:100C100048CA0010F0B54F464646D646C0B52C4EE1
:100C20008246336889461700984604F0F5F8002993
:100C300043D0FA220023920004F0CEFE434654250E
:100C400052465D43234C63191A714B466051681D2F
:100C50002018002B36D00B2249460BF039FA4246B9
:100C60005423280053430022E31811301A7420182B
:100C7000002F2AD03F2239000BF02AFA4246542393
:100C80005343E41800233F22503423703368013368
:100C9000D917890E5B1813400F4A5B1A336013682B
:100CA0003F2B01DC013313600C4A136801331360DE
:100CB000E0BCBA46B146A846F0BDFA21890004F06E
:100CC0004DFEBBE7064B9946C5E7064FD2E7C04647
:100CD0000C4400206C620020084400206C77002047
:100CE00050CA00104CE30010F0B5DE4657464E46A1
:100CF0004546E0B5354B87B01A680490002A60D0AD
:100D0000002902DD8A4200DD0A003F25304B1B68C6
:100D10009B1A8033D917890E5B181D406D1A002A63
:100D20004BDD5319059300239A462A4B2A4F9B46C5
:100D300019E02A4AB600B158294AB258542044430F
:100D400020000534113038183C19029000925846A2
:100D50004246019407F0F2FA01239C46E244059BC7
:100D60000135AB421FD03F24EB179B0EEA1814400D
:100D7000E41A54236343FA181679049A9642EED380
:100D8000FA21FB5889001800994604F0E7FDFA2182
:100D900080468900484604F0E1FD0B00032EC8D9C7
:100DA0001049114ACAE75346002B06D007B0F0BCE1
:100DB000BB46B246A946A046F0BD0C4807F034FA3F
:100DC000F4E70B4807F030FAF0E7C046084400208B
:100DD0000C44002088CA00106C62002014CB001064
:100DE00004CB001054CA00105CCA00106CCA00107A
:100DF00060CA0010A82210B500215201064805F073
:100E0000A1FC0023054A06481360064A1360064BFE
:100E1000196807F093FA10BD6C6200200C440020A2
:100E2000ACCA0010084400206C770020014B186801
:100E30007047C0466C770020F0B5C64600B5040088
:100E40000D008AB01C280CD8460132185200294FD8
:100E500012189200BA1813000933FF331B78002BC5
:100E600003D10AB080BCB846F0BD0132FF3213682E
:100E7000984603F0D1FF002934D0FA2200239200D3
:100E800004F0AAFD43461F22361976003619B60033
:100E9000DB009B19BE19F8502D07701CFB18FF30A2
:100EA000ED0F1C715D71036805360133D917C90E4A
:100EB0005B1813405B1AFF36036033681F2B01DC9D
:100EC00001333360002D12D10B4B009320212300FE
:100ED0000A4A02A806F000FF0120094902AAFFF70A
:100EE00099FEBEE7FA21890004F038FDCAE7054BF8
:100EF000EBE7C046104400202CCB001034CB001090
:100F000044CB001024CB001010B5040086B01C2880
:100F100019D800220C2102F0B7FE63011B195B00F7
:100F20000A4A1B199B00D31800220933FF331A7099
:100F30001821074A2300684606F0CEFE6A460120C3
:100F40000449FFF767FE06B010BDC04610440020FC
:100F500064CB001044CB0010F8B55746DE464E4631
:100F60004546E0B507001C2851D843011E187600FD
:100F70002C4D3618B6009A46AB195C1DFF3422681A
:100F800099460100002A48D0274807F0D7F927489A
:100F900007F04AF94B461F200133FF3321681B68D5
:100FA0005B1A4033DA17D20E9B1803409B1A9846FF
:100FB00000291FDD1E4B00249B460AE01D4A5846AF
:100FC00007F0BCF94B460533FF331B680134A342DD
:100FD00010DD4346E1181F23CA17D20E89180B40B3
:100FE0009B1ADB009B19E958EB185B79002BE5D1C4
:100FF000114AE4E75346D81900234000C719BF003F
:10100000ED196A1C0535FF32FF3513602B60F0BC0B
:10101000BB46B246A946A046F8BD084807F08EF97F
:10102000F5E7C0461044002090CB0010B0CB001074
:10103000D0CB0010C4CB0010E0CB001074CB00105C
:10104000F0B54546DE4657464E46E0B58BB0804685
:1010500000911C2800D9D9E043011C0086220126FA
:10106000444464006C4D4444A4002C19200009340D
:1010700000215200FF34039305F064FB40462670C4
:1010800002F096FE43469E40D0231B06002201211B
:1010900040469E6202F0DEFD01220C2140465F4B7D
:1010A00002F01EFE434618215D4A04A806F014FE15
:1010B00001205C4904AAFFF7ADFD41465A4807F0FC
:1010C0003DF903F0A9FE00295FD0FA220023920027
:1010D00004F082FC0290D0231B065B68039B002671
:1010E00043445B004344019313E0009B002B0DD06D
:1010F00003F092FE00295AD0FA220023920004F055
:101100006BFC029BC01A009B984259D2012003F04D
:10111000BFFD002006F0F0FF831C51D1019B9B0016
:10112000EF1899467B1DFF331A68002ADDDD1F2169
:101130007B1CFF331B6800249B1A4033DA17D20E46
:101140009B180B409B1A9A46384B01369B460BE086
:10115000374B4246584607F0F1F87B1DFF331B68BA
:1011600032190134A34216DD534619191F23CA1739
:10117000D20E89180B409B1ADB004B44E958EB1840
:101180005B79002BE4D12B4BE3E7FA21890004F0D3
:10119000E5FB02909FE716000022019B9B00EB18E5
:1011A000591C0533FF31FF330A601A609DE7FA21AD
:1011B000890004F0D3FB029BC01A009B9842A5D380
:1011C00000220C21404602F05FFD039B182143449E
:1011D0005B0043449B00ED1800230935FF35164A98
:1011E0002B7004A8434606F077FD01200D4904AAA0
:1011F000FFF710FD32004146104807F09FF80BB092
:10120000F0BCBB46B246A946A046F0BD01000C4862
:1012100007F094F8F3E7C04610440020390E0010A0
:1012200050CB001044CB001010CC001040CC00106C
:10123000C4CB0010E0CB001064CB001058CC0010E1
:10124000ECCB0010F0B54E464546DE465746E0B5BD
:1012500006000D0083B0002800D1A5E0131C282A49
:1012600000D9C0E0DAB2002A00D1BAE09620DCB2A0
:101270002100C00004F04AFB0700280002F098FD9E
:101280000123AB401D00D0231B065D623A009D6127
:101290002100634807F052F83378002B7ED07A00A3
:1012A0009146FA00D21B0192721C90465D4AB944E5
:1012B00092465D4A93462AE01A00303A092A00D83D
:1012C00081E02E2B00D194E02C2B00D196E03F2B17
:1012D00000D195E0212B00D194E02F2B00D193E099
:1012E000282B00D192E0292B00D191E02D2B00D1A9
:1012F00090E03D2B00D18FE02B2B00D18EE001231D
:101300009C46E0444346013B1B78002B46D0202BF3
:1013100060D05246D15C032218000A401900022A0C
:1013200002D1203B1800DBB21A00413A192AC3D877
:10133000FF2303403D4A413B9B009C58002CDED0DC
:1013400022003B4806F0FAFF5B46D0261B683606B3
:10135000986809F05DFF2378002B0FD07561237822
:1013600038002D2B00D1484603F092FCB56163781C
:10137000002B20D163780134002BEFD1434620228B
:101380001B789343BBD0484603F082FC01239C4664
:10139000E0444346013B1B78002BB8D1254806F0BA
:1013A00043FFD0231B069D6103B0F0BCBB46B24691
:1013B000A946A046F0BD3800013403F069FC23784B
:1013C000002BCBD1DAE7FF2303401B4A303B9B00C5
:1013D0009C58B3E7194806F0B1FF019803F058FC98
:1013E0008DE7012342E72823DAB2002A00D03DE747
:1013F000F7E70023124A9B009C589FE70123F9E777
:101400000223F7E70323F5E70423F3E70523F1E7D6
:101410000623EFE70723EDE70823EBE7223BE9E7A5
:1014200088CC001079F1001020120020DCCD0010D3
:10143000B4CC0010A8CC001044CE0010B0CC0010EA
:101440006CCE001030B5050083B0002800D19AE0C2
:1014500071490AF017FD002800D194E003222B788F
:101460006E491C00C85C0240022A00D19EE0522C4A
:1014700000D188E000240194002B00D1ADE04007AA
:1014800000D58CE0022A01D1203BDBB201AC2370F5
:101490006B78002B00D1ABE0C85C420700D5B0E010
:1014A00003220240022A01D1203BDBB26370AB78F9
:1014B000002B00D1A7E0C85C420700D5A5E00322BD
:1014C0000240022A01D1203BDBB2A370EB78002B53
:1014D00000D19EE00422C95C0A40032100200425BB
:1014E0006054002A5FD16378422B04D11F3B6370A4
:1014F0002378013B2370200049490AF0C3FC0028EF
:1015000045D0200047490AF0BDFC00283ED020000D
:1015100045490AF0B7FC002855D0200043490AF09D
:10152000B1FC002851D0200041490AF0ABFC002852
:101530004DD020003F490AF0A5FC002849D02000EA
:101540003D490AF09FFC002845D020003B490AF0A5
:1015500099FC002848D0200039490AF093FC002863
:1015600044D0200037490AF08DFC002847D02000E5
:1015700035490AF087FC002849D0200033490AF099
:1015800081FC00281DD0002003B030BD0120304B6D
:101590008000C0582B1F002B0DDD9840F4E700227F
:1015A00001AC0021A154303B1D009CE7203C522C93
:1015B00000D05FE7E7E7002BE6D004235D1BE8409F
:1015C000E2E70B20E3E70220E1E70320DFE7042066
:1015D000DDE70520DBE70620D9E71E4A01AC51789C
:1015E00004220A40002179E70720D0E70820CEE74F
:1015F00001210422174B5B781A4000236EE7092073
:10160000C5E70122CDE70221F3E70222C9E70A205C
:10161000BDE70321EDE7C04648DE001079F1001078
:10162000A8EF001094CE001098CE00109CCE0010B1
:10163000A0CE0010A4CE0010A8CE0010ACCE00109A
:10164000B0CE0010B4CE0010B8CE0010A8D3001059
:10165000D4CE001078F10010F0B5C6460F0000B5EA
:1016600004210400150002F0DBFA1F2C47D82607DE
:10167000760F002F49D0052003F000FD7A01D21B20
:101680009100C9191022C900814251D9B3002D49D6
:101690009B199B005E1800212B483160B160F160FE
:1016A00030617260294A316094466344E2073CD459
:1016B000F420274AFF301968012741400A40802161
:1016C00049018C4663441A6088463A003368B04446
:1016D0009A43130042462800136003F0D9FA4246A9
:1016E000336805213B401360200002F099FAD023B3
:1016F000A7401B065F629F6180BCB846F0BD6307D0
:101700009B0F08331E00002FB5D1B3009B190D4A63
:101710009B009A18116801220A400E4928008C4645
:1017200063441A6003F0B4FAE6E70B480B4AC2E7D9
:1017300004F014F9FF2801D80201A7E7FF200201F5
:10174000A4E7C04600000540E70300000C00054088
:10175000FFFF0000001005400000F3010000FFFF44
:10176000F0B54546DE4657464E46E0B58046C7B022
:10177000002900D1A8E0FF2206A80AF0A9FCFF2357
:10178000002206A9CA545C4B06A819009A460AF022
:10179000D5FC041E00D197E04346072259080323D5
:1017A0000A400B40414608331F2900D899E05348AE
:1017B000990083464046CA1892009344C00700D45B
:1017C00089E04F4800904F480190802040015844E4
:1017D00002904D48CB1817184C489B008146404654
:1017E0009144012282409C460392494A04936244F8
:1017F00005923A2120000AF067FBC826002808D08D
:1018000000230370013009F041FC06000A2800D2D1
:101810000A262000FFF716FE210005000200330013
:101820003C4806F08BFD0421404602F0F9F9002DFA
:1018300059D0052003F022FC6901491B8900491990
:101840001023C900884205D304F088F8FF2800D986
:10185000FF2003010022049C059928483A60844631
:101860000A60210061440A6021002B4C2B48A446E9
:10187000614408607B605B4601243A601B68019A02
:1018800030005340009A1340029A136022003B68D4
:101890009A4313004A46136003F0FAF93B680521A6
:1018A0001C404B4640461C6002F0BAF9D023039A14
:1018B0001B065A629A611E2003F0EAF95146002085
:1018C0000AF03CFC041E94D147B0F0BCBB46B246C3
:1018D000A946A046F0BD12480090F420FF300190C8
:1018E00073E7130063E701233A68300013404A4668
:1018F000136003F0CDF9DEE770CF00100C00054057
:101900000000FFFF0000F30100000540001005404B
:1019100008000540BCCE001010000540E7030000A1
:10192000FFFF000010B501F073FC1021044806F021
:1019300005FD044806F078FC034806F0FFFC10BDE6
:1019400004CF001030CF001058CF0010F0B5C646BD
:1019500000B5002082B006F0CFFB831C29D0914A4D
:101960001368012B00D1ABE0022B00D188E0002BE3
:1019700000D19FE0002313600D281ED00A281CD040
:101980007F2800D1A2E0082800D19FE0032800D1E1
:10199000E5E0042800D1F0E00C2800D1D3E0824A31
:1019A00013687E2B05DC591C1160804AD05406F068
:1019B000EFFB02B080BCB846F0BD0A2006F0E8FBA1
:1019C0000023794E794D32682800AB540AF020FB91
:1019D000002800D188E008220027754C691E04E029
:1019E00001382B181F7000287ED00B5CE35C1A4274
:1019F000F6D12B78002B38D02900002208276C4C18
:101A000004E04B7801310132002B6FD0E35C1F42C0
:101A1000F7D1002A6AD1674B1C689846002C00DC7D
:101A200099E00F20631E644F1840C0012900381848
:101A30000AF0AAFA002812D00F23E217120FA118F9
:101A40000B409B1ADB01FF1838007F2229000AF0A7
:101A50003FFB00237F373B70434601341C6000226C
:101A6000564B28001A6001F0E3FB0023802200217E
:101A70002800336004F066FE514806F05FFC98E7EA
:101A80000024146041283AD0422800D091E74B4B03
:101A90001A68551E1D60002D00DC80E0454B49484A
:101AA0001E68B54236DD06F049FC3F4B1C603F4BDB
:101AB0001C707EE71B2800D05EE70133136078E7D7
:101AC0005B2800D056E70223136072E7364A13689A
:101AD000002B00DC6DE70021013B1360334A3A48DC
:101AE000D15406F02BFC64E7002082E7821A013211
:101AF00028000AF009F92B78002BB6D08BE72F4B82
:101B00001A68551C1D60002D27DD2A490E68B54254
:101B100023DC2C4806F012FC0F21751B264B2940B4
:101B2000224DC901C9187F2228000AF0D1FA7F236B
:101B30002800EC540AF06CFA1B4B2900186023486B
:101B400006F0FCFB35E7224806F0F8FB17491F4872
:101B500006F0F4FB2DE7184F6EE71A6029E7002422
:101B60001C4806F0EBFB104B802200210F481C6044
:101B700004F0E8FD114B1C601BE7174806F0DEFB84
:101B80006946164B68461A6800929A888A809B7943
:101B90008B7101F04DFB0A4806F0D0FB09E70948BC
:101BA0001C6080E7F8250020CC3200204C32002059
:101BB00079F10010442600204C2600204826002001
:101BC00058CF00105CCF001068CF001064CF001019
:101BD00080CF00106CCF001074CF00108CCF00109D
:101BE0008023214ADB011168D0B54B40E021C901B7
:101BF0000B401E4982B00B6004211D4B1960FC3163
:101C000013680B42FCD050680004000C04F006FD81
:101C1000184904F0FCFCE621890504F0F8FC16499B
:101C200004F0DBFC154904F0DEFC011C144804F050
:101C3000D4FC041C04F014FD06000F00201C114904
:101C400004F0E5FC104904F0CEFC8421C90504F041
:101C5000C7FC04F005FD3200009001913B000B48E9
:101C600006F06CFB02B0D0BD00C0044000D00440C0
:101C700000E00440333353406ABC343F2D93E13AD3
:101C80000000D841000010410000A04094CF001097
:101C900010B5024806F052FB10BDC046B4CF00108C
:101CA00070B5334806F0C0FA324806F0BDFA324C3F
:101CB0003248210006F042FB314932480A1B920AA1
:101CC00006F03CFB3049314806F038FB304806F05E
:101CD000ABFA304C3048210006F030FB2F49304839
:101CE0000A1B06F02BFB2F4C2F48210006F026FB89
:101CF0002E492F480A1B06F021FB2E4C2E482100AE
:101D000006F01CFB2D4D2E4829002C1B06F016FB5F
:101D1000A10A2C4806F012FB2B4C2C48210006F09F
:101D20000DFB611B2A4806F009FB2A4806F07CFAE5
:101D3000294806F079FA294806F076FA284806F08C
:101D400073FA284806F070FA274806F06DFA27481B
:101D500006F06AFA264806F067FA264806F064FAA2
:101D6000254806F061FA254806F05EFA70BDC046C7
:101D7000BCCF0010D8CF00100000001004D000101D
:101D8000500C011028D0001000F01F105CD0001083
:101D90008CD00010C0000020BCD00010701A0020B1
:101DA000E0D00010701A00200CD100104478002000
:101DB00030D10010447800205CD1001000000420D5
:101DC00080D10010A4D1001000200420C4D1001044
:101DD000E8D1001014D2001048D2001070D20010C8
:101DE00094D20010ACD20010C4D20010DCD200108B
:101DF000F4D200100CD3001024D300103CD30010F8
:101E0000074B084910B5C91A8A0A074806F096FA1E
:101E1000064806F009FA064806F006FA10BDC04664
:101E2000447800200000042054D300107CD300101C
:101E300094D3001010B5044806F0F6F9034A04499B
:101E4000044806F07BFA10BDACD30010D0D30010CC
:101E500014C80010DCD30010F8B54546DE465746DE
:101E60004E460400E0B50D00012800DC90E0486813
:101E700009F00CF98046022800D98DE0022C00D030
:101E800078E040239B469A464346454A1B03116827
:101E900080244B40E021C9010B40424900250B60E2
:101EA000414B00219946042300209C463F4E64008C
:101EB0004B4667461F6013682342FCD053689FB2AD
:101EC0001B041B0CC0183B1CB74200D9331C9EB22C
:101ED0003B1CAF4200D22B1C01319DB25945E7DBC0
:101EE000514603F03BFD04045A464146240C304859
:101EF00006F024FA200004F091FB2E4904F087FB41
:101F0000E621890504F083FB04F0AAFB02000B0024
:101F10002948210006F012FA300004F07FFB254921
:101F200004F075FBE621890504F071FB04F098FBD1
:101F300002000B002148310006F000FA280004F0EE
:101F40006DFB1C4904F063FBE621890504F05FFB8F
:101F500004F086FB02000B001948290006F0EEF998
:101F60001848A91B06F0EAF9F0BCBB46B246A946E0
:101F7000A046F8BDA86809F089F80300013B834634
:101F80008246FF2B00D87FE70F4806F04DF9EBE7BC
:101F90000E4806F049F9E7E70D4806F045F9E3E792
:101FA00000C0044000D0044000E00440FFFF0000F7
:101FB00038D40010333353404CD4001068D4001090
:101FC00084D40010A0D4001028D40010ECD300104A
:101FD00014D4001030B583B001282DDD486809F015
:101FE00055F8050002282BD8174A030311684B4007
:101FF000E021C9010B4015490B600421144B196005
:10200000FC3113680B42FCD054682404240C2000DB
:1020100004F004FB0F4904F0FAFAE621890504F004
:10202000F6FA04F01DFB22000090019129000A48F5
:1020300006F084F903B030BD084806F0F5F8F9E77A
:10204000074806F0F1F8F5E700C0044000D004406E
:1020500000E0044033335340DCD40010BCD4001003
:1020600014D4001070B504000E00012846DD4D6840
:102070003249280009F088FF011E35D02800304978
:1020800009F082FF002842D028002E4909F07CFF89
:10209000002841D028002C4909F076FF002840D0C4
:1020A00028002A4909F070FF002801D1032C3BDCED
:1020B0002800274909F068FF002821D0254806F0AC
:1020C000B3F8254806F0B0F8244806F0ADF82448E7
:1020D00006F0AAF8234806F0A7F8234806F0A4F86B
:1020E000224806F0A1F808E0022C03D0B06808F0FE
:1020F000CDFF01000020FEF7F7FD70BD0021F9E7DC
:10210000FEF794FE01001A4806F018F9F5E70021E1
:102110000230FEF7E9FDF0E700210330FEF7E4FDB1
:10212000EBE7FEF767FEE8E7F268B1680130FEF71B
:1021300071FD104806F078F8DFE7C046FCD40010C7
:1021400004D500100CD5001010D5001018D50010C3
:1021500028D5001050D5001058D5001090D500108B
:10216000C4D50010F8D5001028D6001050D60010A5
:1021700030D5001020D5001070B504000D000128E6
:102180003DDD4E683E49300009F0FEFE002836D0A5
:1021900030003C4909F0F8FE002834D030003A49BC
:1021A00009F0F2FE002832D03000384909F0ECFE88
:1021B000002820D1032C1EDDAC683549200009F031
:1021C000E3FE00284BD02000324909F0DDFE002854
:1021D00028D02000304909F0D7FE00283AD1E8681D
:1021E00008F054FF431E98412C4BC1B22C48997201
:1021F00006F0A4F802E02B4806F016F870BD274858
:10220000FEF782FBFAE72548FEF706FBF6E7234CCC
:102210002000FEF793F92000FEF7FEFA224806F0B0
:1022200003F8EBE7E86808F031FF011E26D0020052
:10223000303A0300982A1DD81848821D8371180A65
:1022400050701802000E90701B0E1848D37006F0E4
:1022500075F8D3E72100164806F070F8CEE7154C64
:10226000E9680F22200009F033FF2100124806F030
:1022700065F8C3E7114805F0D7FFBFE70023DBE7A8
:10228000FCD400107CD6001070D70010A0D600102F
:10229000A4D60010C0D60010F4D6001000260020EE
:1022A00000D7001048D7001084D60010E0D60010E8
:1022B00010D700100C260020B0D60010C8D6001091
:1022C00010B501F03BFB10BDF0B5C646D02500B5FA
:1022D000154805F0A9FF154805F0A6FF144B00248A
:1022E0009846144E144F2D0607E021003A003000A6
:1022F000013406F023F81D2C13D0200001F058FD06
:102300000122A240296A6B681340581E83410A4289
:10231000EBD1210042463000013406F00FF81D2CAD
:10232000EBD180BCB846F0BD78D7001090D7001034
:10233000B8D70010A4D70010A0D7001010B503F034
:102340001FF9002809D10649064805F0F7FF064B9A
:102350000648D96805F0F2FF10BD0549F4E7C0460C
:1023600068C90010C0D7001000800540E0D70010F9
:10237000BCD7001070B582B06C46684606F0CEFA45
:10238000084805F0DBFF084D02AE21782800013433
:1023900005F0D4FFB442F8D10A2005F0F9FE02B0EE
:1023A00070BDC04604D8001010D80010F8B53E4CDF
:1023B000200005F039FF3D4805F036FF200005F00C
:1023C00033FF3B4805F030FF3A4805F02DFF3A480F
:1023D00005F02AFF394805F027FF394805F0AEFF20
:1023E00002F01AFD0023374A03F0F6FA05003C21FB
:1023F000280003F0B3FA0F00E1212800090103F0DF
:10240000ADFA08003C2103F0A9FAE1210600090118
:10241000280003F0A3FA3B00010032002A4805F02F
:102420008DFF0A2005F0B4FE8023284ADB011168E5
:102430004B40E021C9010B4025490B600421254B8D
:102440001960FC3113680B42FCD050680004000C8A
:1024500004F0E4F8204904F0DAF8E621890504F0F4
:10246000D6F81E4904F0B9F81D4904F0BCF8011C67
:102470001C4804F0B2F804F0F3F802000B001A480C
:1024800005F05CFF194B1A481A681A4B196805F0D9
:1024900055FFFEF7CBFC0100174805F04FFF200069
:1024A00005F0C2FEF8BDC04618D800103CD8001098
:1024B00060D800107CD80010ACD80010C4D8001030
:1024C000D4D8001040420F00E0D8001000C00440F3
:1024D00000D0044000E00440333353406ABC343F32
:1024E0002D93E13A0000D841F4D800107077002015
:1024F00008D900100444002030D90010F8B5474630
:10250000CE4680460E0080B501280DDD441E02280F
:1025100011D1114F114DA3002A003800F158013498
:1025200005F00CFF4445F6DB0A2005F031FEC0BC87
:10253000B946B046F8BD0A4B01259946064FAB0097
:102540004A463800F158013505F0F8FEA542F6DBA1
:102550002C00A845DEDCE7E750D900104CE3001062
:1025600070CF001010B5012813DD486808F08EFD0B
:102570000A4B421E04009A4207D80100084805F0A1
:10258000DDFE200002F084FB10BD064805F04CFE85
:10259000FAE7054805F048FEF6E7C0462F7500004B
:1025A00080D900106CD9001058D90010F0B5C6467B
:1025B000040000B519200F0001F0FAFBD02380229F
:1025C0001B0692045A62012C61DD7E6831786F2906
:1025D0000FD171786E290CD1B178002909D1012071
:1025E0003549087035485A6105F01EFE80BCB84672
:1025F000F0BD334D3000290009F0C6FC00283BD067
:102600003000304909F0C0FC00280FD101212A4ACE
:1026100013784B4013703ED0D02380221B069204C7
:1026200029495A61294805F089FEDFE73000284929
:1026300009F0AAFC051E35D105239846022C07D0C7
:10264000B86808F023FD0300013B8046312B2ED8EB
:10265000D02680243606A4049620746102F018FB6C
:1026600001359620B46102F013FB4545F4DB414689
:10267000184805F063FEB9E70F4B80221870D0238D
:1026800092041B069A61144805F0CEFDAEE713488C
:1026900005F0CAFDAAE7D02380221B069204290078
:1026A0009A61BFE731000E4805F048FE9EE70D48ED
:1026B00005F0BAFD9AE7C0463F780020BCD900106B
:1026C000C8D90010CCD90010C0D90010D4D900103E
:1026D000DCD90010F0D90010C4D9001094D9001032
:1026E00004DA0010E4D9001010B5054805F09CFD8F
:1026F000C82002F0CDFA0021002002F083FFC0467E
:1027000020DA001010B5064805F08EFDFA20800092
:1027100002F0BEFA0121012002F0A4FEFEE7C0464D
:1027200044DA0010F0B54746CE4680B505000F00EC
:10273000A1B001284BDD0D23994602283AD1002390
:102740006A4601201370022D3FDD244B01247F26B1
:1027500098462D1A012C0AD1684609F059FC79686F
:10276000321A684609F082FC022D14DD0224684604
:1027700009F04EFC4146321A684609F077FC68467B
:1027800009F046FCA300321AF9586846013409F0F2
:102790006DFCAC42DEDB4A4619216846FEF752FD6D
:1027A0006A4601200E49FEF735FA21B0C0BCB94691
:1027B000B046F0BD886808F069FCC3B299466A4625
:1027C000002301201370022DBFDC0020BDE7054867
:1027D00005F02AFD044805F027FDE6E770CF00105C
:1027E000A0DA001058DA001074DA0010F0B547468D
:1027F000CE4680B506000F00C1B0022830DD486823
:1028000008F044FC80461C2831D800236A46137027
:10281000194B0224FF25994607E0684609F0F8FBAA
:1028200049462A1A684609F021FC684609F0F0FB7F
:10283000A3002A1AF9586846013409F017FCA64289
:10284000EBD141466A460D4805F078FD434669469E
:10285000D8B2FEF785FF41B0C0BCB946B046F0BD66
:10286000074805F0E1FC074805F0DEFCF3E7064801
:1028700005F0DAFCEFE7C04670CF001000DB001077
:10288000A8DA0010D8DA0010F4DA001070B502F0FF
:10289000C3FA00233B4A03F09FF804003A4805F0CE
:1028A000C3FC3C21200003F059F80E00E121200078
:1028B000090103F053F808003C2103F04FF8E1212F
:1028C00005000901200003F049F82A000100330047
:1028D0002E4805F033FD2E4B2E48196805F02EFDCD
:1028E0002D4B2E48196805F029FDFEF79FFA0100CF
:1028F0002B4805F023FD02F043FE00283FD1294973
:10290000294805F01BFD052002F0B8FB1D4903F026
:1029100025F80100254805F011FD8023244ADB013C
:1029200011684B40E021C9010B4022490B60042192
:10293000214B1960FC3113680B42FCD05068000435
:10294000000C03F06BFE1D4903F061FEE6218905D2
:1029500003F05DFE1A4903F040FE1A4903F043FEFE
:10296000011C194803F039FE03F07AFE02000B0047
:10297000164805F0E3FC164805F056FC70BD1549F5
:10298000BEE7C04640420F0018DB001038DB0010E5
:102990000444002060DB00107077002078DB00101A
:1029A00090DB001068C90010A8DB0010C0DB00102D
:1029B00000C0044000D0044000E0044033335340E2
:1029C0006ABC343F2D93E13A0000D841DCDB0010B3
:1029D000F8DB001064C90010F8B506000C000228EE
:1029E00061DD6149606809F0CFFA002836D0A0683F
:1029F00008F04CFB07001C2851D865685B4928008B
:102A000009F0C2FA002800D16CE02800584909F00A
:102A1000BBFA00284BD02800564909F0B5FA002827
:102A200000D08EE0032E00D199E0380001F0C0F90B
:102A3000E4682378692B00D06FE063786E2B00D0B8
:102A40006BE0A378002B68D1D0220133BB40120683
:102A500039009362484805F071FC23E0A06808F053
:102A600015FB05001C281AD8032E39D0E468434909
:102A7000200009F089FA002845D02000404909F0DB
:102A800083FA002859D0200008F000FB43011B1AEC
:102A900099000918C900E8B2FEF7D2FA02E03948F5
:102AA00005F0C2FBF8BD384805F0BEFBFAE7032E7F
:102AB0004CD0E06808F0EAFA0400380001F078F938
:102AC0000123D022BB4012065362002C23D1936114
:102AD00022003900531E9A412C4805F02FFCE1E7F3
:102AE0002B49D8E7380001F063F90122D023BA401E
:102AF0001B069A625B6839001A40531E9A412548AA
:102B000005F01CFCCEE7E8B2FEF7FEF929002248EA
:102B100005F014FCC6E75361DAE720001F4909F00D
:102B200033FA002816D10123D022BB401206390007
:102B300053621B4805F002FCB4E7E8B2FEF70CFA5A
:102B4000B0E72900174805F0F9FBABE7164805F098
:102B50006BFBA7E72100154805F0F0FBA2E714483E
:102B600005F062FB9EE7C04648DC001074DC0010F4
:102B700018D50010BCDC0010E4DC001098E3001055
:102B80006CDC0010F4DA001018DC0010ACDC001073
:102B9000307500007CDC00104CDC0010F8DC00100C
:102BA000FCDC001024DD00108CDC001010DD0010B7
:102BB000C4DC001070B50C0002280CDD4D6815490E
:102BC000280009F0E1F9002816D02800124909F080
:102BD000DBF9002802D0FDF777FF70BDA06808F090
:102BE00055FA0021FDF75EFFA06808F04FFA0100DA
:102BF0000A4805F0A3FBF0E7A06808F047FA0121B6
:102C0000FDF750FFA06808F041FA0100044805F004
:102C100095FBE2E744DD001060DD001068DD001088
:102C20004CDD001070B50C00022835DD486808F056
:102C30002DFA05001C2815D801F0BAF8A4682378ED
:102C4000752B13D16378702B10D1A378002B0DD185
:102C500028000022012100F0FDFF2900184805F09E
:102C60006DFB02E0174805F0DFFA70BD2000164941
:102C700009F08AF9002813D02000144909F084F9DA
:102C8000002817D128000022002100F0E3FF2900CE
:102C90000F4805F053FBE8E70E4805F0C5FAE4E7F6
:102CA00028000122002100F0D5FF29000A4805F084
:102CB00045FBDAE72100094805F040FBD5E7C046AF
:102CC000A0DD0010F4DA0010B0DD0010CCDD001043
:102CD000D4DD00107CDD0010B8DD0010ECDD00104C
:102CE000F8B504000D0002282BDD486808F0CEF985
:102CF00006001C2833D8032C16D1FA277F00A868B9
:102D0000194A0378D35C5B0725D508F0BFF90400A6
:102D1000220031003B00154805F010FB3A0021006D
:102D2000F0B2FEF799FCF8BDE86808F0AFF90200D0
:102D30000F4B0A3A07009A42E1D90E4805F074FA9F
:102D4000F1E70D4805F070FA0C4805F06DFA0C48F3
:102D500005F06AFAE7E7FEF775FB0400D8E70948D3
:102D600005F062FADFE7C04679F1001084DE00105A
:102D7000062700006CDE0010FCDD001028DE0010CD
:102D800050DE0010F4DA001070B50C00022838DDB7
:102D9000486808F07BF90500A06808F077F904009E
:102DA0001C2D39D8642830D80421280000F038FFC1
:102DB0002A07520F93009B18194A1A499B009A1828
:102DC0001161194A9918A200A218520092B2E8079C
:102DD0001FD4164E0868424080204001844632408D
:102DE00061440A600E4A12489A18116801228A4307
:102DF00010498C4663441A602900220005F09EFAAF
:102E000002E00D4805F010FA70BD0C4805F00CFA10
:102E1000FAE70B4E1204DDE70A4805F005FAF3E77E
:102E200000000540E70300000C000540FFFF000024
:102E3000D8DE001000100540A4DE0010C4DE001033
:102E40000000FFFFF4DA001010B584B001281DDD8A
:102E5000486808F01BF90300303B0400982B11D898
:102E60004001001B80000019C00003AB02AA01A9A9
:102E700002F0EAF9002814D121000D4805F05EFAAD
:102E800004B010BD0B4805F0CFF9F9E7052002F0BA
:102E9000F5F8094902F062FD0100084805F04EFA14
:102EA000EEE7039A0299019802F0EEF8E4E7C046D3
:102EB00008DF0010C8D6001040420F00F4DE0010FA
:102EC000F0B54546DE4657464E46E0B50C000500D7
:102ED00087B0012800DC02E14E689349300009F018
:102EE00053F88346002800D193E030008F4909F061
:102EF0004BF8071E49D1032D00DCE7E0102200212A
:102F0000A06809F027FA102200210500C6B2E06887
:102F100009F020FA6B4605AC2770D87401F07CFFED
:102F2000FA220023D20080185941002900DAEBE090
:102F30007F4B1322984601230290039100936A4429
:102F40003100404608F05AF801F066FFFA220023EB
:102F5000D20080185941002900DAD1E00023029004
:102F600003910093220031004046013308F06AF8D3
:102F7000002800DACCE06A46FF212378D27C294081
:102F800000936C4805F0DAF97AE030006A4908F0FD
:102F9000FBFF002800D09DE0042D00DCACE01022F7
:102FA0000021A06809F0D6F91022C3B20021050063
:102FB000E068994609F0CEF9804610220021206988
:102FC00009F0C8F9434605ACFA26237060708246C2
:102FD000002701F021FFF60080197941002900DA6D
:102FE0009EE000230290039100932200494650483E
:102FF000023308F003F8002800DA8DE0FF21504684
:1030000043462A000B400A4001404C4805F096F91F
:1030100036E04B4805F008F94A4805F005F9444BFD
:10302000FA2698460F2300259946002705ACF6009E
:103030004B462B423AD0EBB29A4601F0EDFE801996
:10304000794100293EDB0023029003910093220086
:1030500051464046013307F0F5FF002817DB2900F1
:10306000394805F06BF901239C464B460135E34492
:103070002B4213D0802DDBD15946344805F05EF940
:1030800007B0F0BCBB46B246A946A046F0BD3048EA
:1030900005F054F94B4601352B42EBD10A2005F0DF
:1030A00077F8802DE8D04B462B42C4D1290029481F
:1030B00005F044F9EBB29A4601F0AEFE8019794171
:1030C0000029C0DA012024494042BCE7234805F02A
:1030D000ABF8D5E73100224805F030F9D0E72148B8
:1030E00005F0A2F8204805F09FF8204805F09CF86C
:1030F0001F4805F099F8C3E71E4805F095F8BFE7AB
:1031000001201549404229E70120134940420FE7B9
:10311000194805F089F8B3E7184805F085F8AFE7D6
:1031200001200D4940425CE7B4DF001074DC001060
:103130001812002074E0001018D50010DCE0001018
:10314000BCDF0010DCDF001018E0001024E00010ED
:1031500020E0001010E00010FFFFFF7F38E00010BB
:10316000FCE0001050D5001024DF001054DF0010E8
:1031700084DF001098E0001060E00010C8E000104C
:1031800070B5144805F0DAF801F046FE0023124A43
:1031900002F022FC04003C21200002F0DFFB0E00C4
:1031A000E1212000090102F0D9FB08003C2102F0D6
:1031B000D5FBE12105000901200002F0CFFB33001F
:1031C00001002A00054805F0B9F80A2004F0E0FFE4
:1031D00070BDC04618E1001040420F00E0D800105A
:1031E00070B5084805F020F8074C084D2600A536B4
:1031F000FF36A268216828000C3405F09FF8B4421D
:10320000F7D170BD24E100100CE9001038E1001086
:1032100010B501F001FE0022034B232103481A6080
:1032200005F08CF810BDC0460444002048E10010B1
:10323000F0B5CE46474680B5010091B0002802D0D7
:103240000378002B04D111B0C0BCB946B046F0BD24
:103250002A4C7F22200008F03BFF7F230022284DCC
:1032600020002900E25408F069FF0028EBD0254B2C
:10327000002698461C00206029000020013608F036
:103280005DFF002802D00434082EF4D143461F68A5
:103290001D4B002499461D0003E001340C35232CFE
:1032A00016D03800296808F06FFE0028F5D1174ABB
:1032B00017491368013313603A00FDF7ABFC630054
:1032C0001C19A4004C444146300063689847BAE793
:1032D000104A402113686846013313603B000E4AD0
:1032E00004F0FAFC6A4602200949FDF793FC4346C4
:1032F0000A48196805F022F8A5E7C0460425002011
:1033000070CF0010E42300200CE9001004440020DA
:103310006CE100107077002074E1001080E1001073
:10332000F0B54746CE4680B506000F00C1B0022872
:103330003FDD486807F0AAFE224B421E81469A42B2
:103340003BD800236A4613701F4B02247F25984602
:1033500007E0684608F05CFE41462A1A684608F015
:1033600085FE684608F054FEA3002A1AF9586846FC
:10337000013408F07BFEA642EBD14A466946134869
:1033800004F0DCFF20AC484601F082FC7F22694655
:10339000200008F09DFE002321000D48635504F035
:1033A000CDFF2000FFF744FF41B0C0BCB946B04696
:1033B000F0BD084804F038FFF6E7074804F034FF92
:1033C000F2E7C0465FEA000070CF0010E8E10010AD
:1033D00014E20010B0E10010D4E10010F0B557463F
:1033E0004546DE464E46E0B507000D00C1B0032855
:1033F00000DCB1E0486807F049FE80461C2800D98F
:10340000B6E0AC687349200008F0BEFD002860D12A
:1034100000239B4608339A4600236A4613706E4B7E
:1034200003247F26994607E0684608F0F1FD4946E7
:10343000321A684608F01AFE684608F0E9FDA30053
:10344000321AE9586846013408F010FEA742EBD161
:10345000404600F0ADFC01244346D0269C40360691
:10346000002201214046B46200F0F4FB4246A96804
:103470005A4804F063FF6946594804F05FFF594811
:1034800004F0D2FE756825406B1E9D415B46002B03
:1034900000D171E05346002B34D1002004F02CFE03
:1034A000831C12D1736823401F007A1E9741002BA2
:1034B00000D18BE0FA200021400001F0D7FB002072
:1034C0003D0004F019FE831CECD0474804F0ACFE2C
:1034D0003BE02000454908F057FD002843D020007C
:1034E000434908F051FD00286CD104239B46043366
:1034F0009A4691E7012D13D0FA200021400001F0F7
:10350000B5FB3D00002004F0F7FD831CDDD173689E
:1035100023401F007A1E9741002BEBD0002DEBD1EA
:103520006946344804F00AFF20AC6A46012032495B
:10353000FDF770FB7F226946200008F0C9FD7F235C
:1035400000222000E254FFF773FE41B0F0BCBB46FE
:10355000B246A946A046F0BD284804F065FE2848BA
:1035600004F062FEF1E704239B4600239A4653E7EA
:10357000244804F059FEE8E75346002B14D105E037
:10358000FA2000214000736801F070FB002004F075
:10359000B3FD831CF4D098E7002DC1D0FA200021A0
:1035A000400001F063FB3D00002004F0A5FD831CFA
:1035B00000D08AE7736823401F007A1E9741002BD2
:1035C000ECD0E9E7104804F02FFEBEE7012D00D053
:1035D00070E7A5E78CE2001070CF0010C0E2001089
:1035E000E8E2001000E3001024E3001094E2001071
:1035F0009CE2001030E3001050E3001028E20010BD
:1036000058E20010F4DA0010A4E20010F0B54746CA
:10361000CE4680B588460700C1B0022860DD486804
:1036200007F034FD0200344B0A3A05009A425ED896
:1036300000236A461370314B02247F26994607E027
:10364000684608F0E5FC4946321A684608F00EFD67
:10365000684608F0DDFC4146A300321AC9586846A6
:10366000013408F003FDA742EAD12A006946244844
:1036700004F064FE234B00269846234F002004F0FC
:103680003BFD831C24D14046013604F057FE2B003D
:103690006A463100380004F051FE7F22694620A8B6
:1036A00008F016FD802069467F23002209180800D3
:1036B000CA54FFF7BDFD002405E00A200A3401F0DA
:1036C000E7FAA542DAD9002004F016FD831CF4D0F5
:1036D0000E4804F0A9FD41B0C0BCB946B046F0BDEB
:1036E0000B4804F0A1FD0B4804F09EFDF3E70A48E7
:1036F00004F09AFDEFE7C04656EA000070CF0010D4
:10370000C0E30010B4CF001000E40010F0E300109C
:1037100058E3001080E30010A0E30010F0B5474626
:10372000CE4680B506000F00C1B002283ADD4868D9
:1037300007F0ACFC0300013B8046632B36D8002326
:103740006A4613701B4B02247F25994607E06846A2
:1037500008F05EFC49462A1A684608F087FC68466D
:1037600008F056FCA3002A1AF9586846013408F0FC
:103770007DFCA642EBD1002400257F22694620A8CB
:1037800008F0A6FC80216A467F2352181000D55409
:103790000134FFF74DFDA045EFD141B0C0BCB946A3
:1037A000B046F0BD044804F03FFDF6E7034804F0DE
:1037B0003BFDF2E770CF001024E4001040E400105D
:1037C0000020704710B5024807F07EFB10BDC046D0
:1037D0001812002010B50C490C4807F0E5FB032136
:1037E000042000F01DFA0321052000F019FA002240
:1037F0000121042000F02EFA05200022012100F012
:1038000029FA002010BDC046A08601001812002031
:1038100010B507F0FFF90222014B00201A6010BD1D
:1038200000E0044000207047F8B5CE464746344ECD
:1038300080B531680F2930DC324B33480A01D05053
:103840000020324C9A1810719460D0604A1C32608B
:10385000102A52D02E4C1201D4502E4C9A181071AE
:103860009460D0608A1C3260102A46D02A4C120123
:10387000D4502A4C9A1810719460D060CA1C3260DF
:10388000102A3AD0264C1201D4509B18254A0431F4
:103890009A60254A1871DA603160244804F04EFDC0
:1038A0003368002B25DD224B00259946214B154C12
:1038B0009846214F0BE00223216823714A463800C5
:1038C00004F03CFD336801351034AB4211DDA368D0
:1038D000002B02D098470028EDD1012321682371E5
:1038E0004246380004F02AFD336801351034AB42FB
:1038F000EDDCC0BCB946B046F8BD1021CDE7C046EE
:10390000EC250020FC420020E0E5001011380010FA
:1039100094E50010C1370010C4E5001025380010F0
:10392000BCEA0010D5370010C5370010C4EA0010FB
:10393000B4EA0010B0EA0010E8EA0010F0B5D6468C
:1039400046464F461348C0B504F06EFC124E33682D
:10395000002B19DD114B00259846114B114C99464F
:10396000114B124F9A4623793A00012B03D04A4655
:10397000022B00D052462168404604F0DFFC336839
:1039800001351034AB42EEDCE0BCBA46B146A84685
:10399000F0BDC04610EB0010EC25002020EB00101D
:1039A000F8EA0010FC42002004EB001000EB0010CD
:1039B000D0231B061B68F0B59A0045469046414649
:1039C000934ADE465258574693465A1E9341302238
:1039D0004E465B421A4013008E4AE0B5944683B0CF
:1039E000634401938C4B08269A463500083DEA084B
:1039F0001300019908339B005C58002C27D05B46CC
:103A0000002B2ED001230F27994639002140274251
:103A100017D0524640462B001258203BEA40DB1795
:103A200013404A4613420CD1072208002A40920054
:103A300090400200EB0879483C339B001A50280064
:103A4000D84724090135002C01D0B542DDD3083612
:103A5000282ECAD103B0F0BCBB46B246A946A04648
:103A6000F0BD0F2318002040234209D041466A4B85
:103A700059583300E940283BDB0F0B4200D197E057
:103A80002309F11F002BE2D00F22100018401A4228
:103A900011D04246604B9A583300CA40273BDB0F97
:103AA000134208D10722CB081140890088405B4AA5
:103AB0003C339B009850230AB11F002BC7D00F2224
:103AC000100018401A4211D04246534B9A58330006
:103AD000CA40263BDB0F134208D10722CB08114016
:103AE000890088404D4A3C339B009850230B711F3E
:103AF000002BACD00F22100018401A4245D1230CE5
:103B0000311F002BA3D00F22100018401A4258D1A9
:103B1000230DF11E002B9AD00F22100018401A42DC
:103B200062D1230EB11E002B91D00F22100018403D
:103B30001A4211D04246384B9A583300CA40223BB1
:103B4000DB0F134208D10722CB08114089008840BF
:103B5000324A3C339B009850240F711E002C00D138
:103B600075E7534642469A583300CA40213BDB0F63
:103B7000134200D06BE70722CB08114089008C402C
:103B8000264A3C339B009C5061E74246224B9A58A0
:103B90003300CA40253BDB0F1342B0D10722CB08CC
:103BA0001140890088401D4A3C339B009850A6E78D
:103BB00007231D40AD00A840184B3C329200D05066
:103BC0005EE74246144B9A583300CA40243BDB0F51
:103BD00013429DD10722CB081140890088400F4A2B
:103BE0003C339B00985093E742460B4B9A58330066
:103BF000CA40233BDB0F134293D10722CB0811406D
:103C000089008840054A3C339B00985089E7C046AC
:103C10008425002000410140F44200200040014082
:103C200010B54024084A83009A181268C000544016
:103C3000C0222240054CA44663441A60044B9C46B3
:103C40006044416010BDC04604C0014004D0014042
:103C5000004001400B4B80009C46604400290ED17F
:103C600000230431002A00D1190080220368520188
:103C7000594094460C2360440B40036070470C216C
:103C80000823EFE704C00140D0231B061B6830B5B2
:103C90000500581E834110485C42844607203023AB
:103CA000284023408000EC08814020000B4D3C3030
:103CB00063448000A40041511B19002A05D08022D2
:103CC000920194466344196030BDC022920194462B
:103CD00063441960F8E7C0460041014000400140DC
:103CE000F8B545469846D0231B06DE461C689B4621
:103CF0002B4B57469A46A3004E469946E0B553468D
:103D000016004A469B5807000D00002B34D043464E
:103D1000002B3FD053464A4641469950D0231B06BC
:103D20001C6807201F4A631E9C419446FA08110034
:103D3000302338408000854064421B4823403C319A
:103D40006344890092000D509B18002E0ED08022F3
:103D500092019446634401210D201D6000F012F988
:103D6000F0BCBB46B246A946A046F8BDC0229201AF
:103D7000944663441D60F3E74346002BD1D053467D
:103D800041460D2099500022084900F05DF95B463C
:103D90001C68C6E70D20054900F04AFABAE7C0469C
:103DA000842500200041014000400140B13900104D
:103DB0000123D02283404021120693629361094A75
:103DC00083009A181268C0005140C0220A40064978
:103DD0008C4663441A60054B9C460523604443604F
:103DE0007047C04604C0014004D00140004001407B
:103DF0008023DB051868000F7047C0460FB400B57C
:103E0000084883B004F010FA049B002B07D005A9E2
:103E10001800019103F084FF034804F005FA012023
:103E200003F096FF2CEB001094E0001070B5EFF358
:103E3000108C72B60D4D2B68002BFCD0BFF35F8F3A
:103E40000724CB08C618C05C01230C40A3401C000B
:103E50000440034207D103433370BFF35F8F2C60EC
:103E60008CF3108870BD1000FFF7C8FF2C0100D044
:103E7000F8B54746CE46884680B5EFF3108C72B64B
:103E8000214D2C68002CFCD0BFF35F8F9A422CD8B8
:103E9000D4080727055D061901241740BC402C42B1
:103EA0001FD007210127894609E0D408055D0619BE
:103EB0004C4639001440A1400C00294211D0013277
:103EC0009342F2D201204042BFF35F8F00220E4B9B
:103ED0001A608CF3108800280FDBC0BCB946B046CE
:103EE000F8BD2C4310003470EEE7BFF35F8F002362
:103EF0002B608CF31088012040424346002BECD00D
:103F00000898FFF77BFFC0462C0100D0044A1078C8
:103F1000431CDBB2172B00D9102313707047C04627
:103F20005011002000B5054B83B00100009318220A
:103F30001F230348FFF79CFF03B000BD3CEB0010BC
:103F4000942500200021044B044ABFF35F8F02C375
:103F50009342FAD17047C046000100D0800100D0E2
:103F6000054B064A1360064A136053609360D360A2
:103F700013615361936170478080808000E400E0AA
:103F800004E400E01F2318401E3B8340002905D0B5
:103F9000C021044A490053501360704780220149F0
:103FA0008B50FAE700E100E001228240034B1B68DE
:103FB00013405A1E9341D8B27047C04600E100E05A
:103FC00001238340014A13607047C04600E200E0CD
:103FD000064B10309B688000C358054A00209B1A8E
:103FE0002F229A424041C0B27047C04600ED00E027
:103FF0005411002070B50D00EFF3108672B60F4A11
:104000001368002BFCD0BFF35F8F0D4B10309B6803
:1040100084001B590B4A934203D09D4201D001F00A
:104020002BFB074B9B681D51BFF35F8FBFF35F8F67
:104030000022024B1A6086F3108870BD240100D064
:1040400000ED00E0C1010010F0B557464E46DE46D7
:104050004546E0B585B0060002911700EFF3108BDE
:1040600072B6674A1368002BFCD0BFF35F8F002540
:10407000644B5D579A46002D00DAA4E06B00624C59
:1040800003935B199B009846A146C1444B46524698
:104090009B79103613705D4BB2009B680192995862
:1040A0000B1B2F2B34D95A4B994200D0A4E0039B11
:1040B000584A9C46584B6544AD006353434602330F
:1040C0006519E418554B0121043B1B1B1B055B0DB7
:1040D00013436B80524BEF71AB80FF23AB71029B9C
:1040E000AB604B460B431900484B019A9B689950B3
:1040F000BFF35F8FBFF35F8F0022414B1A608BF3DA
:10410000108805B0F0BCBB46B246A946A046F0BD3B
:1041100001200A008243D379BB422FD845464E4640
:10412000130040491B1B5B415943090D3A4B635334
:104130003A4B02356519043B5B1B1B05354D5B0D86
:104140002B4373800426B446E0444444131F1B1BD6
:104150004C46A17102991B05A16049465B0D2B439A
:10416000A380314BE77101431360BDE75800C018CD
:1041700080002018C679BE422BD902000623D356F0
:10418000002BF3DA101D824628488046042676422A
:10419000B446E14450464E46361A3005400D82463C
:1041A00056461C48957106439680039A944665448A
:1041B0001D4AAD00641922604246A371029BA28091
:1041C000E771A36090E701F057FA002553465D5769
:1041D00054E7101D824690884005001584464046ED
:1041E000D444664604302018301AE0260005400DFD
:1041F000360230438046C9E701F03EFA57E7C04631
:10420000240100D03D7800205411002000ED00E092
:10421000C101001000E0FFFF00A1FFFF841100209A
:1042200001BDFFFFAAAA00000148804701BD0000B0
:10423000F0B5DE4657464E464546E0B50C0083B025
:10424000EFF3108972B65F4A1368002BFCD0BFF3FE
:104250005F8F5D4B9A68030010339F00D5595B4A0E
:10426000904695423DD0A5424ED0594EAA1B2F2ACA
:1042700037D8584A934612689446012261469246BE
:10428000824011401F2210405246824092460191C6
:104290008022514658468150BFF35F8FEFF305826D
:1042A0009346002A32D101232A009A43906884421F
:1042B00008D17CE04B005B189B00F318986884429F
:1042C0002ED01A00062151560029F3DA84424DD02F
:1042D000019B002B1FD0C02251463E4B52009950EB
:1042E0001960394B9B68DD51BFF35F8FBFF35F8F60
:1042F0000022344B1A6089F3108803B0F0BCBB462F
:10430000B246A946A046F0BD1500EAE79342CAD0DE
:1043100001F0B2F9C7E7802351462E4AD150E0E7B9
:1043200006215956002922DB4A0050188000341813
:104330008046A0689860E079D87106202056987170
:10434000002825DBA488F01A6405241544440019CC
:10435000E0240005400D24022043988052181E4B93
:104360009200B6181A781970B271B1E71300594665
:1043700000290FD1FF3191711849918016490A78AF
:104380009A71174A9B1B5B415A43120D0A709FE7B3
:104390001448E2E7144A1549D21A083A5002400D6F
:1043A00001439980124952080A43DA8090E70621B6
:1043B000515613000029B7DA5A46002AEAD1454679
:1043C000DCE7C046240100D000ED00E0C101001090
:1043D0005411002000E100E03D78002001BDFFFF06
:1043E000AAAA000001BD00008E11002000F0FFFF0E
:1043F00000F8FFFF70B501240443EFF30581EFF3EC
:10440000108C72B6214A1368002BFCD0BFF35F8F6B
:104410001F4B05001F4AED1A6D416A43120D1E4DD8
:104420008900AE6852B27658A6421CD00621595671
:1044300091421CD012215956914222D01E21595628
:10444000914220D02A2159560324914210D0134B77
:1044500019781A708171BFF35F8F00220B4B1A60BD
:104460008CF3108870BDAB680D4C5C50EFE70024F6
:104470006100091989005B18FF2199710949998028
:10448000E5E70124F4E70224F2E7C046240100D066
:1044900054110020AAAA000000ED00E03D780020A1
:1044A000C101001001BDFFFF00B5074B83B0010043
:1044B0000093002205230548FFF7DAFC002801DB02
:1044C0001F23181A03B000BD58EB001043780020DA
:1044D000024B9C46614489000160704740000034F3
:1044E000F8B5134D134E2C00FF27B5421ED223689A
:1044F000002B0FD0FFF70AFD01002800FFF7E8FFAF
:10450000A780BFF35F8F0834B4420FD22368250021
:10451000002BEFD1FFF7FAFC01002800FFF7D8FFCE
:104520002771BFF35F8F0834B442EFD3F8BDC046A4
:10453000601A0020701A002010B50400FFF7E6FC96
:1045400001002000FFF7C4FFFF232371BFF35F8F3B
:1045500010BDC04610B504000120FFF7E3FC044B7A
:104560009C46604480002060BFF35F8F10BDC04652
:1045700040000034034B9C46614489000160BFF356
:104580005F8F7047400000340A4B1968EFF31080CA
:1045900072B60A68002AFCD0BFF35F8F1B68BFF3B6
:1045A0005F8F00221A6080F3108840BF0020002136
:1045B0007047C04678770020F0B5DE4657464E4635
:1045C0004546E0B585B0EFF30582032313409A001A
:1045D00011000392B64A5258904601229A409146E1
:1045E000B44B1A604B46B4484363434608229B5E73
:1045F0009A46002B3DDA43469B881BB2002B00DB1A
:10460000A1E043469B79002B00D0F3E04346082409
:104610001C5F002C23DB42465269630094461B1941
:10462000DB0063449C68DD68631C00D10FE1A24895
:10463000039984466144826A0B69A61A9B1A9E42BA
:1046400015D34A46036A1A4211D09B4800F0DCFB9E
:10465000241A8D41002D02DCC4D1002CC2D040BFF1
:1046600005B0F0BCBB46B246A946A046F0BD0C6101
:10467000EBE7424652695B0093465344DB009B44A0
:104680005B469E68DF6800F0BFFB801BB9410029D4
:10469000B1DB002F00DAE5E05B46884A1B699342F4
:1046A00000D1D8E041465A460820085E52880004EE
:1046B00010435A465169984704000D0023002B43CC
:1046C00000D1CFE0002D00DBE8E0361BAF41340025
:1046D0003D005B469C60DD600021595E002900DAE8
:1046E00089E743465B6922009C462B00480040183E
:1046F000C00060448668C768921BBB41002B00DA8B
:1047000079E74346664602000094019519810CE062
:104710007B00DB19DB00F318009801999C68DD68C9
:10472000001BA941002904DB1A000023D75E002FDB
:10473000EEDA5B461F805346138043469B881BB2CC
:10474000002B00DA5DE743461A69EFF3108172B679
:104750001368002BFCD0BFF35F8F43469B88424613
:104760001BB29A4601235B4293801369BFF35F8FAC
:1047700000221A6081F310885346002B00DA40E7CC
:1047800043465B699C46082343449B4653465F006F
:1047900043465744FF0008229A5E67445E46BC6861
:1047A000FD68002A19DB3B000094019567469C4692
:1047B00004E01E000023F25E002A0BDB0098019942
:1047C00053009B18DB00FB189C68DD68001BA941A7
:1047D0000029EEDA6346BC461F00534633800021B1
:1047E0007B5E3A809A46002BD0DA43469B79002BB9
:1047F00000D10BE700234246937143464646082109
:10480000595E08364B1C00D129E747468C4655694E
:1048100002E006004B1C17D04B005B18DB00E818C9
:104820000A00E95E43881BB2002BF2DA01235B42E7
:10483000DC178360C4606245ECD031803B899446CC
:1048400003803A814B1CE7D1B8466446E1E66B1C15
:1048500000D0ECE6F9E65B465C69200023699847E6
:10486000002821D15B4642461B8813811269EFF371
:10487000108372B611680029FCD0BFF35F8F4246E7
:10488000594652880A804246514651801269BFF308
:104890005F8F0021116083F31088ACE6064800F0BA
:1048A000B3FA24184D4114E76568246806E7C0464A
:1048B000E44200203C70054000400540B94500102E
:1048C00070B52E4C2569002D04D00A212C48FFF725
:1048D000FFFD70BD2B4E0321300000F08BFAE66027
:1048E000FFF714FB284B03229C46D02322701B06A3
:1048F0001B6801216370254B6044A3600F23800077
:1049000020610220638063694942A18019800231DD
:10491000198647311D83585218315A5275325C3905
:104920009952183201319952183201319952183284
:1049300001319952083518329D520231183299527C
:10494000183201319952183201319952183201311D
:1049500099521832013199521832013199520C4B47
:104960000C49DC6001303562FFF744FB0121032074
:10497000FFF708FB084B1D60A7E7C0469C1100200D
:10498000787700200040054040000034FFFF100011
:10499000E4420020B94500103860054000487047E7
:1049A0009C110020F8B51F0008AB1B78040016000E
:1049B000002B07D100F030FA32003B00121A8B4175
:1049C000002B4CDB2269EFF3108072B61368002BCA
:1049D000FCD0BFF35F8F62690223E15E94464B0017
:1049E0005B18DB006344002901DB1A8862802269BE
:1049F000BFF35F8F0025156080F31088002930DB3E
:104A0000069A9E60DF601A61079A5A615A880132DD
:104A10005204520C161C002A1FD0B0B20A045E8049
:104A200010432669EFF3108572B63268002AFCD075
:104A3000BFF35F8FA2881A80A1802369BFF35F8FC5
:104A400000221A6085F31088074923788C460132CA
:104A50009A40E36863441A60F8BD0126DDE7002050
:104A6000FAE701204042F7E73C20000070B5C64657
:104A7000010000B50469EFF3108C72B620680028BD
:104A8000FCD0BFF35F8F02200D5E48696C0080464A
:104A90006419E4004444002D01DB20884880086943
:104AA000BFF35F8F002606608CF31088002D30DB8B
:104AB000E36063880598013320615B0406985B0C12
:104AC000A26060611A1C002B21D090B22B0462807E
:104AD00018430A69EFF3108672B61368002BFCD0F6
:104AE000BFF35F8F8B8823808D800B69BFF35F8F4F
:104AF00000221A6086F310880B7801329A40CB6846
:104B000005498C4663441A6040BCB04670BD012222
:104B1000DBE701204042F7E73C20000010B5438965
:104B20000A14934233DD53009B184269DB0094461C
:104B300004696344EFF3108C72B62268002AFCD03B
:104B4000BFF35F8F5A88090494B2090C8A4208D0D7
:104B50000369BFF35F8F00221A608CF31088002076
:104B600010BD8022120214435C800123026983710C
:104B7000BFF35F8F002111608CF310880549027824
:104B80008C469340C268012062441360E8E700202D
:104B9000E6E7C0463C20000040787047F0B50400CE
:104BA0000D0006267642F717C64636196F4100B546
:104BB00082B08F4214D811D000F02EF932003B00A1
:104BC000121A8B41002B15DC002B44D02000290049
:104BD00000F056F902B080BCB846F0BD8642EBD971
:104BE0000026002700F018F932003B00121A8B4112
:104BF000002BE9DD00F010F932003B00121A8B4166
:104C0000002B0ADB00230193144B3200009314485D
:104C10003B00FFF72BFF0028D8DBB0460026BC4640
:104C2000104A114F7B6A9C4504D8B96A8845CDD992
:104C30009C45CBD11168EFF3108072B60B68002B46
:104C4000FCD0BFF35F8F1368BFF35F8F1E6080F3EC
:104C5000108820BFE6E7002AB8D0CBE789450010CE
:104C60009C110020787700200040054070B50400BA
:104C70000D0000F0D1F800196941002902DBFFF7AF
:104C80008DFF70BD012001494042F8E7FFFFFF7F23
:104C900070B5060000F0C0F8FA2204000D000023F1
:104CA00030000021920001F07BFC001969410029CD
:104CB00002DBFFF773FF70BD012001494042F8E7B6
:104CC000FFFFFF7FF0B5CE46474680B504000D00DC
:104CD00083B0EFF30587002F0DD0364A0020536ACA
:104CE0008B4203D3926A0130A24250D303B0C0BCBE
:104CF000B946B046F0BD304B9846DB68994643460E
:104D000048461E7800F080F80B0049460200043641
:104D1000B600715820008E1A2900801A99418F42DE
:104D200011DC0ED020BF234A0020536AAB42DDD3F2
:104D3000926A0130A242D9D2E81A421E9041C0B212
:104D4000D4E78642EED900F067F822002B00121A51
:104D50008B41002B20DB00230193184B2200009392
:104D600040462B00FFF782FE011E15DD114B2E0081
:104D70005A6A95421CD89B6AA34217D34046FFF754
:104D8000CDFE0C4A0020536A9E42AFD8D0E7581A95
:104D9000421E9041C0B2A9E7064A0020536AAB42C6
:104DA000A4D3926A0120A242A0D2C5E79542E5D1E0
:104DB00020BFE3E7004005409C110020894500101A
:104DC000084A4368516A10B5046800208B4203D832
:104DD000926A0130A24200D310BD5B1A5A1E934161
:104DE000D8B2F9E7004005400260436000487047D0
:104DF000C14D001010B5024A0248FFF717F810BD68
:104E000080EB0010982500200300416A0A00986A90
:104E1000596A8A42FAD17047034B596A0A00986A64
:104E2000596A9142FAD170470040054070B50400BC
:104E30000D00124A536A1900966A536A8B42FAD1DE
:104E40003000190024184D41AB4211D80ED02B0070
:104E50000A494A6A9A42FCD307D1084A02E0516AD9
:104E6000994202D1916AA142F9D370BDA642EED90E
:104E7000012301246442E5175B42E9E70040054055
:104E8000064A536A9942FCD807D1044B02E05A6A99
:104E9000914202D19A6A8242F9D37047004005409C
:104EA000F8B5DE464E4657464546E0B58B4605000A
:104EB0000A991800160000F051FD0A9B6C001F02B1
:104EC000324B64199C46A4006444636881469F4247
:104ED00000D967602B1FDBB29846012B30D9C02365
:104EE00080229B01E31812011A60294BAD00595929
:104EF0009A4600291BD1226876017240E026802361
:104F0000164042465B01E3181E60012A30D9802317
:104F100080229B01E31812011A6053464A466760DB
:104F20005A51F0BCBB46B246A946A046F8BD5869E6
:104F300000F014FD431C5800C0180338FDD2DAE716
:104F40005B46012BCBD1C02303229B01E3181A60DF
:104F5000023AA3681A42FCD0E02322687601564048
:104F60001E4080230A4A5B019246E3181E60AD0092
:104F70005A462168514003220A401A6001225B46CA
:104F80009A40A3681A42FCD0C1E7C04600800040A6
:104F90009C250020F0B546464F46D646C0B51F00BA
:104FA000344B44009C462418A4006444636888463B
:104FB0001600FF2B02D880235B006360031FDBB267
:104FC0009A46012B30D9C02380229B01E31812019D
:104FD0001A60294B85005959994600291BD122682E
:104FE00076017240E0268023164052465B01E318AA
:104FF0001E60012A30D9802380229B01E318120110
:105000001A6080235B0063604B465F51E0BCBA4688
:10501000B146A846F0BD586900F0A0FC431C5800FA
:10502000C0180338FDD2DAE74346012BCBD1C023A9
:1050300003229B01E3181A60023AA3681A42FCD0CB
:10504000E0232268760156401E4080230A4A5B0115
:105050009146E3181E6085004246216851400322B4
:105060000A401A60012342469340A2681342FCD0D2
:10507000C1E7C046008000409C250020014B800015
:10508000C05870479C250020F0B5DE464E46454688
:105090005746E0B55C4B15005A6881468B4683B095
:1050A000FF2A02D8802252005A60584B01219846AC
:1050B000032342461360544A93681942FCD02020CF
:1050C0001368534E5840E0230340336013684E4A40
:1050D0004B40032119403160022193681942FCD0F2
:1050E00080234C4F1B013B6080235B0053604A4C84
:1050F0009A464A4B4A46636101215B4648480095FF
:1051000000F060F959464846694300F027FC454BDA
:1051100005005A68FF2A01D852465A608022424B45
:10512000216912011A60002907D0606900F016FC9D
:10513000431C5800C0180338FDD2E022394B3B48CD
:1051400019680A40022102601A68514003220A408D
:10515000042102609A681142FCD08021344A09017E
:105160001160802252005A60324B2361264B5968ED
:10517000FF2900D85A604246032301211360224AC6
:1051800093681942FCD0E023106803403360136831
:105190001D4A4B4003211940316002219368194296
:1051A000FCD0802380211B013B604900224B5160D1
:1051B00065615A68FF2A00D8596080221F4BA16997
:1051C00012011A60002907D0606900F0C7FB431C78
:1051D0005800C0180338FDD2402217490B685A40C6
:1051E000E0231340164A13608022164B12011A6006
:1051F00080235B004B60094BA36103B0F0BCBB464E
:10520000B246A946A046F0BD3C8000403CB00040FC
:105210003C9000403CA000409C250020006CDC023B
:10522000008002403080004030B0004030900040AC
:1052300030A00040001BB7004880004048B000404C
:105240004890004048A00040F0B54E465746DE4624
:105250004546E0B585B00393554B06009A46A0231A
:105260005B0099460191029201235B429C46E14416
:105270004B460F2B00D198E04E4F4F4B072457441D
:105280009A4569D821003800614300F067FB8642E7
:1052900048D0631E9846012C5ED01D00654338003F
:1052A000290000F05BFB86425AD0A31E9B46022CCD
:1052B0005CD02D1B2900380000F050FB864257D0EF
:1052C000E31E9B46032C6ED02D1B2900380000F0F6
:1052D00045FB864250D0231F9B46042C52D02D1BE9
:1052E0002900380000F03AFB86424DD0631F9B46F0
:1052F000052C4FD02D1B2900380000F02FFB8642D3
:105300004AD04346052B4CD03800E91F00F026FB5D
:1053100086421CD0062421003800614300F01EFBA9
:105320008642B6D10029B4D1A0464A46234B01207B
:105330005343019A13604246029B1C60039B1A6010
:1053400005B0F0BCBB46B246A946A046F0BD002958
:10535000E0D101239846E8E7194B9C46E24483E7F5
:105360000029E2D0A31E9B46022CA2D1012489E78A
:105370000029A5D1D846D8E70029FBD0231F9B469A
:10538000042CACD103247DE70029F3D0631F9B4696
:10539000052CAFD1042475E70029EBD04346052B3B
:1053A000B2D105246EE702246CE70020C8E7C046AE
:1053B00070F72E00B0710B0050F80C00001BB70006
:1053C00020D1FFFFF8B5040020481D0017000E0093
:1053D00000F0C4FA0100380000F0C0FA069B29046E
:1053E0001B0319432368002B1EDB194B194DE218D0
:1053F00053425A4180235B019C461203164B624480
:105400001A60164B1A6017002B689F43FBD1144B90
:105410002660E2182123A06013602368002BFCDAC9
:105420000823E1601360F8BD3F2322681340B342B4
:10543000DBD1A3681B051B0D8342D6D1EE22E368A6
:10544000D20213408B42D0D1EDE7C046001BB7001B
:105450000040FDBF08C0004000E0004000F00040F8
:1054600004300000184B0200184810B5D8618020A5
:10547000174BC0051860174C1748046000290AD064
:10548000E021164BC9041960002A09D18022134B70
:1054900012061A6010BDE021C9041960002AF5D077
:1054A00053019B1A98008023801800015B049842E6
:1054B00000D30B4880220B4BD2051860024B58607A
:1054C000064B1A60E6E7C046008005402131B76A06
:1054D00000B00540FCFF01000820014000A005408D
:1054E000FFFFFF00D432002010B5140080221B4BB8
:1054F000D2051A6000281AD00123194A1843194B03
:10550000DA61194A42401A62596298628022134B4A
:10551000D2051A601549164A1160E022D2041A60B9
:10552000002C07D18022134B12061A6010BD0D4BC0
:10553000D861EBE763011B1B9A008023121912014B
:105540005B049A4200D30C4A0C4B1A60054B5A601C
:105550008022084BD2051A60E8E7C04600B005403B
:10556000D3C007B0008005402D3FF84FFCFF01007D
:105570000820014000A00540FFFFFF00D4320020BA
:10558000024B9868431E9841C0B2704700800540A6
:105590008023024A9B000B43D36270470080054082
:1055A000142310B50100188804331B88984710BDD8
:1055B000162310B50100188802331B88984710BDC8
:1055C000F8B54746CE4680B50F1E19D0142399462C
:1055D000043304000025012698464B4618884346AC
:1055E00021681B88984701C4431E984101354042F9
:1055F0000640AF42F1D13000C0BCB946B046F8BD5C
:105600000126F8E7142370B50400188804330D0050
:105610001B88034998472900030020009847C0468B
:1056200055420000142370B50400188804331B8809
:105630000D000549984703000020002C01DB0130D4
:10564000A04029009847C04655420000AA23064AB8
:105650001B0113608D235B00D3600449044B196068
:105660005368002BFCDA70470040024000B0FA009B
:10567000006002407047C04610B50148FEF7BEFB0F
:10568000A4EB001070B5074D074EB54209D20024B7
:10569000013E761BB60808CD984723000134B3427B
:1056A000F9D170BD08C6001044C6001070B5074D92
:1056B000074EB54209D20024013E761BB60808CD3C
:1056C000984723000134B342F9D170BD3CC60010A5
:1056D00044C60010054B064A06491A60064A074BA5
:1056E0001A6010000B689843FBD1704700E000403F
:1056F000BFCDFBFE08C00040FE7F3C0000F0004034
:10570000044BDB6C002B03D18022034BD2021A60C6
:105710007047C046000011504C201150044A054B00
:105720001A60054A1368DB018033FBD17047C0461D
:10573000FFFFFF0100F0004008C000404022034B83
:105740009A675A671A67DA667047C04600F00140E8
:1057500010B5FEF7F7FB10BDF8B52D492D4C2E4DB9
:10576000641AA6103200302E00D930222800920090
:1057700000F0EEFFBC2C41D80123711C08009C46B0
:10578000264A30293DD92F272C196407E30FBF1B68
:10579000052F19D9302917D8002B36D0B1006A50FF
:1057A0006146CC1AF3189B006108EB18C900C918B0
:1057B0001A605A6008338B42FAD1012321009943C1
:1057C00046188C421AD0711CB300EA50302915D00B
:1057D00089006A50B31C2E2E10D09B00EA50F31C97
:1057E0002D2E0BD09B00EA50331D2C2E06D09B0093
:1057F000EA50731D2B2E01D09B00EA50084B9D6090
:10580000F8BD2F339B1B9C46BDE73000C8E7C04660
:1058100000010010C001001000000020C1010010B4
:1058200000ED00E0002310B5294C82B0A367FFF71C
:105830000DFF0122274B1A60636C012BFCD1032260
:10584000254B1A60224A936B012BFCD10133009344
:105850000121224A22480433FFF7B4FD0523012128
:105860000093204A2048FFF7ADFD002202210420CA
:105870001E4BFFF78FFB0022012105201C4BFFF779
:1058800089FB0022002107201A4BFFF783FB00222F
:1058900000210820174BFFF77DFB8023DB000093DE
:1058A000002200210920134BFFF7FAFA0022104BC7
:1058B00000210620FFF76EFB0420FFF7DFFB0E49F7
:1058C00000F04CF801000020FFF762FE02B010BDAE
:1058D000008000403CB0004030B00040002F6859CC
:1058E00000800240008C864700C00240001BB700C9
:1058F00040597307006CDC0240420F00014804214C
:10590000014B1847C0110020C1550010124A936F77
:105910009B0815D29066D166002905D0FFE7FFE706
:10592000FFE7516F106F704704B580210906C21759
:105930005140002800D0C84306F01EFE002104BDDF
:10594000F0B5146E556E576F166FFFF7E3FF1466D0
:10595000556657671667F0BD000000D0114A936F77
:105960009B0813D210665166002905D0FFE7FFE7B8
:10597000FFE7516F106F704704B5002801D0002079
:10598000C04306F0F9FD002104BDC046F0B5146E19
:10599000556E576F166FFFF7E5FF1466556657672C
:1059A0001667F0BD000000D094464A4A926F9208F4
:1059B000624601D228E0C046F0B5464E346E756EA0
:1059C000776F366F00F020F89446424A14665566A9
:1059D000576716676246F0BD94463E4A926F92083A
:1059E000624601D254E0C046F0B53A4E346E756E50
:1059F000776F366F00F04CF89446364A1466556659
:105A0000576716676246F0BD002B24DB11D00029D2
:105A10003EDA00B5C943404200D1013100F038F808
:105A2000C943404200D10131DB43524200D101332E
:105A300000BD002AEBD1002801D1002905D00020AB
:105A4000C90FC90701D1C043410800B506F07CFD6C
:105A50000022002300BD00B500290ADBDB435242CF
:105A600000D1013300F014F8C943404200D10131A4
:105A700000BDC943404200D10131DB43524200D155
:105A8000013300F005F8DB43524200D1013300BD81
:105A9000002923D1002B18D1002A0CD0BC460D4F71
:105AA00038667A6600210023FFE7FFE7FFE77A6F99
:105AB000386F67467047002801D00748010000B5DD
:105AC00006F042FD0022002300BD02000B00002072
:105AD00000217047000000D0FFFFFFFF002B00D027
