:020000041000EA
:1000000000B5324B212058609868022188439860DF
:10001000D860186158612E4B002199600221596106
:100020000121F02299502B49196001219960352056
:1000300000F044F80222904214D00621196600F024
:1000400034F8196E01211966002018661A6600F04E
:100050002CF8196E196E196E052000F02FF8012189
:100060000842F9D1002199601B49196000215960AB
:100070001A491B48016001219960EB211966A021F2
:10008000196600F012F800219960164914480160C1
:100090000121996001BC002800D000471248134993
:1000A000086003C880F30888084703B5996A0420EC
:1000B0000142FBD001200142F8D103BD02B5186610
:1000C0001866FFF7F2FF186E186E02BD00000240BE
:1000D000000000180000070000035F00212200005C
:1000E000F4000018222000A00001001008ED00E03C
:1000F00000000000000000000000000074B24E7A12
:1001000000200420F7010010CB010010CD010010E9
:10011000C9010010C9010010C9010010C901001077
:10012000C9010010C9010010C9010010CF01001061
:10013000C9010010C9010010D1010010D301001045
:10014000C1010010C1010010C1010010C101001067
:10015000C1010010C1010010C1010010C101001057
:10016000C1010010C1010010C1010010C101001047
:10017000C1010010C1010010C1010010C101001037
:10018000C1010010C1010010C1010010C101001027
:10019000C1010010C1010010C1010010C101001017
:1001A000C1010010C1010010C1010010C101001007
:1001B000C1010010C1010010C1010010C1010010F7
:1001C000EFF30580103800BE00BE00BE00BE00BECA
:1001D00000BE00BEF2EB8871885B0110A85B0110C5
:1001E0003802001090A31AE71E481F49086006C88D
:1001F00081F3088810471D480068002801D019487D
:10020000F3E70DA40ECC002902D000F012F8F9E7B4
:100210001749184A002000E001C19142FCD116495B
:100220008847164988471649884700BEFDE701C937
:1002300001C29A42FBD37047A85B0110C0000020A6
:10024000301B00201876011000000420000004205C
:100250001876011000100420001004200000000097
:10026000704700000000000008ED00E0000000D032
:10027000301B0020B087002095AF00102103001034
:100280008DAF0010F8B5C0460448054B10B5834249
:1002900003D0044B002B00D0984710BD301B00202A
:1002A000301B00200000000006480749091A8B1087
:1002B000C90FC91810B5491003D0044B002B00D04A
:1002C000984710BD301B0020301B002000000000AC
:1002D00010B5074C2378002B09D1FFF7D5FF054B4C
:1002E000002B02D0044800E000BF0123237010BDA2
:1002F000401F002000000000ACFA0010054B10B5B4
:10030000002B03D00449054800E000BFFFF7CCFFF5
:1003100010BDC04600000000441F0020ACFA0010D1
:1003200010B500F02FF800F073F8FCE7192010B5B5
:1003300006F064FC0124D0228021064812060378CE
:10034000890463405162037001D0516110BD916115
:10035000FCE7C046AC870020074B10B518680028A2
:1003600005D00DF083FD05480BF080F810BD044862
:100370000BF07CF8FAE7C046E84D0020B0FA001018
:10038000CCFA001010B50AF0D5FF02E0642007F0A7
:10039000B1FB0BF095FB0028F8D005F031FA00F026
:1003A00015FD134C134A2100012000F07BFD00F0E5
:1003B00033F806F0DBF8210001200F4A00F072FD4F
:1003C00000F0BAFBFA220D4992000D4800F0D6FB6E
:1003D00021000C4A012000F065FD0B480BF046F8A7
:1003E00001F098FD21000120084A00F05BFD10BDDE
:1003F0001CFB001004FB001024FB00102D03001058
:1004000034FB001040FB001050FB001068FB001094
:1004100010B501F093FD10BD70B5454C84B02000BF
:1004200000F004F900284CD008F0E8F8002805D0C6
:10043000404BDA68404B9A4200D168E0D0268025D4
:100440000F202D02360606F0D9FBB56200220121ED
:100450000F2006F025FB052007F04CFB766820896D
:100460002E4075427541E388000418430300303B79
:10047000EDB2982B33D9A37A002B26D10A200AF0AB
:10048000A9FF2E480AF0F2FF2D480AF0EFFF2D4990
:100490002D480BF075F82D480AF0E8FF2C4BAA0008
:1004A000D1582C480BF06CF821002B480C310BF084
:1004B00067F80A200AF08EFF002E24D0280004B02E
:1004C00070BD26480AF0D2FFAEE7192006F096FB71
:1004D000D02380221B0692045A625A61CEE7430160
:1004E0001B1A9B001818C00003AB02AA01A907F051
:1004F000E9FE002815D12189E38809041943184829
:100500000BF03EF8B7E717480AF0B0FFD6E71648F9
:100510000AF0ACFFC82007F0EDFA0021002008F037
:10052000AFF8039A0299019807F0ECFDE3E7C046A3
:10053000582C002000800540DFDFDFDF28FC0010A2
:1005400098FC0010C4FC0010D0FC0010FCFC001053
:10055000A4FD00106CFD00107CFD001074FB001069
:10056000CCFB0010E8FB0010A4FB001070B50400E9
:100570003C220021043009F0BBF9022300222000B4
:100580005B422370343B63700A3BA3701E33E370FD
:100590002333244923716271E3720C300F320EF061
:1005A000B7FF26000123250001201F493C365B428E
:1005B0002A7801355A405308024052420A405340BB
:1005C0005A0803405B420B405A40530802405242D3
:1005D0000A4053405A0803405B420B405A405308BC
:1005E000024052420A4053405A0803405B420B40CB
:1005F0005A405308024052420A4053405A080340AE
:100600005B420B405340AE42D2D1DA433C213D2302
:100610006254110AE154110C0133E154120E0133FA
:10062000E25470BDB0FD00102083B8EDF0B5C646B1
:100630008049814B0A68040000B59A4202D18B8838
:10064000012B5ED03C220021201D09F051F902232C
:10065000002220005B422370343B63700A3BA3708E
:100660001E33E3702333754923716271E3720F32D5
:100670000C300EF04DFF26000123250001207049AB
:100680003C365B422A7801355A40530802405242B8
:100690000A4053405A0803405B420B405A405308FB
:1006A000024052420A4053405A0803405B420B400A
:1006B0005A405308024052420A4053405A080340ED
:1006C0005B420B405A405308024052420A4053409A
:1006D0005A0803405B420B405340AE42D2D1DA434A
:1006E0003C213D236254110AE154110C0133E154C1
:1006F000120E0133E25400239846404680BCB846AF
:10070000F0BD402209F0FAF826000123270020005E
:1007100001254B493C365B42027801305A40530870
:100720002A4052420A4053405A082B405B420B4039
:100730005A4053082A4052420A4053405A082B401C
:100740005B420B405A4053082A4052420A405340F1
:100750005A082B405B420B405A4053082A405242F1
:100760000A4053405A082B405B420B40534086429C
:10077000D2D13D213C22615CA25C090211433E22A0
:10078000A25CDB43120411433F22A25C12060A431F
:10079000012188469A42B0D02A480AF067FE3C22DE
:1007A0000021201D09F0A4F802235B422370343B92
:1007B00063700A3BA3701E33E3704346200023712D
:1007C00000231E4963710F22E5720C300EF0A0FE6B
:1007D000012301201A495B423A7801375A405308F5
:1007E000024052420A4053405A0803405B420B40C9
:1007F0005A405308024052420A4053405A080340AC
:100800005B420B405A405308024052420A40534058
:100810005A0803405B420B405A4053080240524280
:100820000A4053405A0803405B420B405340BE42CB
:10083000D2D154E700F01F10FECAC0DEB0FD001098
:100840002083B8EDB8FD001002235B4270B5037041
:10085000343B43700A3B83701E33C37023330371F0
:1008600000230600437104000500012033493C3693
:10087000013B2A7801355A405308024052420A404F
:1008800053405A0803405B420B405A405308024011
:1008900052420A4053405A0803405B420B405A40C0
:1008A0005308024052420A4053405A0803405B42F8
:1008B0000B405A405308024052420A4053405A08E3
:1008C00003405B420B405340AE42D2D1DA433C215D
:1008D0003D236254110AE154110C0133E154120E0C
:1008E0000133E2548022164DFF212800520108F006
:1008F000FFFF40222100280009F000F811480AF00B
:10090000B5FD0DF041FAEFF3108472B680210E4868
:1009100049010FF051F8802229000B4852010FF0D5
:1009200033F884F31088084908480AF029FEFFF7D5
:1009300013FD07480AF09AFD70BDC0462083B8ED4C
:10094000C03C0020E4FD001000F01F0010FE00106D
:1009500034FE0010010010B504000C3120480AF0EC
:100960000FFEE379A179227A1B020B43617A12040C
:1009700013430906194323D11A4A1B480AF000FE03
:10098000A37A002B23D1194919480AF0F9FDE37A1B
:10099000002B23D1174918480AF0F2FD3C233E22D0
:1009A000E15C0133E35CA25C1B020B4312041343C2
:1009B0003F22A15C1148090619430AF0E1FD10BD70
:1009C0000F4A09480AF0DCFDA37A002BDBD00D4961
:1009D00007480AF0D5FDE37A002BDBD00A49DAE7B5
:1009E00070FE001058FE001084FE0010F80E01107A
:1009F000A0FE00106CFE0010B4FE0010C8FE001037
:100A000050FE0010F00E011068FE0010F0B55746C1
:100A1000DE464E464546E0B5424B85B09A46424BCF
:100A2000424F9B4607F02AF9002949D0FA220023B9
:100A3000920008F00FF88146EFF3108272B63B681F
:100A4000002BFCD0BFF35F8F53461C68BFF35F8F52
:100A500000233B6082F31088002C27DD344B0025F7
:100A600098464B46A14644469846324EEFF31081D5
:100A700072B63B68002BFCD0BFF35F8F33687068A1
:100A80000193B368327B9C46BFF35F8F00233B60CA
:100A900081F31088002A04D0434662469B1A8342A1
:100AA00014D2013514360834A945DFD105F0DEFA39
:100AB0006420002107F00CF807F0E0F80029B5D118
:100AC000FA21890007F088FF8146B5E707F0D6F8DC
:100AD000019B02900391984707F0D0F8029A039B7C
:100AE000801A9941EFF3108272B63B68002BFCD05C
:100AF000BFF35F8F4346B360BFF35F8F00233B605C
:100B000082F310882268636812184B412260636088
:100B10005B461A685B68801859415B4618605960EB
:100B2000BFE7C04648860020301B0020380100D0B7
:100B3000C01E002050860020A02210B500215200C7
:100B40000A4808F0D5FE80220021094808F0D0FEAE
:100B50000E2006F00DF90F2006F00AF905480DF0F9
:100B600085F905480AF082FC10BDC0464C8600207D
:100B7000C01E00200D0A0010E0FE0010F0B50700B6
:100B8000EFF3108C72B619480368002BFCD0BFF34A
:100B90005F8F174E30680F281DDC00291BD08500A1
:100BA000144C2B189B00E750E3185960002A10D012
:100BB0009A60012200232D18AD0064192274421C92
:100BC000E3603260BFF35F8F084A13608CF31088D4
:100BD000F0BD0132ECE7BFF35F8F0022034B1A60D8
:100BE0008CF3108801204042F2E7C046380100D063
:100BF000488600204C860020EFF3108C72B60D4A18
:100C00001368002BFCD0BFF35F8F002809DB0A4B71
:100C10001B68834205DD83001818084B80001818F4
:100C20000174BFF35F8F0022024B1A608CF31088AF
:100C30007047C046380100D0488600204C8600200E
:100C4000F0B5DE4657464E464546E0B5F5B0EFF303
:100C5000108572B63B4C2368002BFCD0BFF35F8F2E
:100C6000A022394B3949520024A81F6808F046FEDB
:100C70008022374904A808F041FEBFF35F8F0023AC
:100C8000236085F31088334B0CCB99469046134371
:100C900003D101339846002399462F480AF070FC8F
:100CA000002F47DD2D4B00259A4624AC17E0A368A2
:100CB0000A219B4623683000029307F08DFE300026
:100CC00001910A2107F088FE290000905B465046FA
:100CD000234A01350AF054FC1434AF422AD004AB45
:100CE0009C46FA22E90061440023086849689200A2
:100CF00008F094FC4B46424607F0ACFE237C06000D
:100D0000002BD4D1A3680A219B46236830000293AC
:100D100007F062FE300001910A2107F05DFE290014
:100D200000905B4650460F4A01350AF029FC143406
:100D3000AF42D4D175B0F0BCBB46B246A946A0467E
:100D4000F0BDC046380100D0488600204C86002007
:100D5000C01E0020301B00200CFF001034FF0010CC
:100D600068FE00106CFE001070B50D00EFF31086E9
:100D700072B60F490B68002BFCD0BFF35F8F0D4B91
:100D80001C68944200DD1400A20012190A49920066
:100D900008F0B4FD28000949E20008F0AFFDBFF3F8
:100DA0005F8F0022024B1A6086F31088200070BD0E
:100DB000380100D0488600204C860020C01E00204C
:100DC000014B186859687047301B0020F0B5D646B3
:100DD0004F464646A822C0B52C4B88B000211800CB
:100DE00052019A4608F084FD0023294D294F2A4ECE
:100DF0002B603B60336020216846284A40330AF06C
:100E000041F82C6806F03AFF00293AD0FA22002374
:100E1000920007F01FFE54235C43A0465346D04483
:100E2000185142460123601D13711D490B22504485
:100E30000EF06EFB00239946200043464A461130CF
:100E40001A7469463F3250440EF062FB43464A46EC
:100E500050331A702B683F320133D917890E5B1853
:100E600013405B1A2B603B683F2B01DC01333B6076
:100E700033680133336008B0E0BCBA46B146A846D7
:100E8000F0BDFA21890007F0A7FDC4E75C6C0020E3
:100E9000F84D0020EC4D0020308600205CFF001053
:100EA00078FF0010F0B54F464646D646C0B52C4EEA
:100EB0008246336889461700984606F0DFFE00290F
:100EC00043D0FA220023920007F0C4FD4346542584
:100ED00052465D43234C63191A714B466051681D9D
:100EE0002018002B36D00B2249460EF011FB42464B
:100EF0005423280053430022E31811301A74201899
:100F0000002F2AD03F2239000EF002FB4246542324
:100F10005343E41800233F225034237033680133D5
:100F2000D917890E5B1813400F4A5B1A3360136898
:100F30003F2B01DC013313600C4A1368013313604B
:100F4000E0BCBA46B146A846F0BDFA21890007F0D8
:100F500043FDBBE7064B9946C5E7064FD2E7C046BF
:100F6000F84D00205C6C0020EC4D00203086002005
:100F700080FF0010E4500110F0B5DE4657464E46A3
:100F80004546E0B5354B87B01A680490002A60D01A
:100F9000002902DD8A4200DD0A003F25304B1B6834
:100FA0009B1A8033D917890E5B181D406D1A002AD1
:100FB0004BDD5319059300239A462A4B2A4F9B4633
:100FC00019E02A4AB600B158294AB258542044437D
:100FD00020000534113038183C1902900092584610
:100FE000424601940AF0CCFA01239C46E244059B58
:100FF0000135AB421FD03F24EB179B0EEA1814407B
:10100000E41A54236343FA181679049A9642EED3ED
:10101000FA21FB5889001800994607F0DDFCFA21F7
:1010200080468900484607F0D7FC0B00032EC8D93C
:101030001049114ACAE75346002B06D007B0F0BC4E
:10104000BB46B246A946A046F0BD0C480AF00EFACF
:10105000F4E70B480AF00AFAF0E7C046EC4D00202E
:10106000F84D0020B8FF00105C6C00204400011017
:101070003400011084FF00108CFF00109CFF001052
:1010800090FF0010A82210B500215201064808F078
:101090002FFC0023054A06481360064A1360064BDE
:1010A00019680AF06DFA10BD5C6C0020F84D002044
:1010B000DCFF0010EC4D002030860020014B18684A
:1010C0007047C04630860020F0B5C64600B5040023
:1010D0000D008AB01C280CD8460132185200294F46
:1010E00012189200BA1813000933FF331B78002B33
:1010F00003D10AB080BCB846F0BD0132FF3213689C
:10110000984606F0BBFD002934D0FA220023920055
:1011100007F0A0FC43461F22361976003619B600A8
:10112000DB009B19BE19F8502D07701CFB18FF300F
:10113000ED0F1C715D71036805360133D917C90EB7
:101140005B1813405B1AFF36036033681F2B01DC0A
:1011500001333360002D12D10B4B0093202123006B
:101160000A4A02A809F08EFE0120094902AAFFF7E7
:1011700099FEBEE7FA21890007F02EFCCAE7054B6D
:10118000EBE7C046FC4D00205C000110640001103C
:10119000740001105400011010B5040086B01C2822
:1011A00019D800220C2105F095FC63011B195B0086
:1011B0000A4A1B199B00D31800220933FF331A7007
:1011C0001821074A2300684609F05CFE6A460120A0
:1011D0000449FFF767FE06B010BDC046FC4D002075
:1011E0009400011074000110F8B55746DE464E46D3
:1011F0004546E0B507001C2851D843011E1876006B
:101200002C4D3618B6009A46AB195C1DFF34226887
:1012100099460100002A48D027480AF0B1F927482A
:101220000AF024F94B461F200133FF3321681B6865
:101230005B1A4033DA17D20E9B1803409B1A98466C
:1012400000291FDD1E4B00249B460AE01D4A58461C
:101250000AF096F94B460533FF331B680134A3426D
:1012600010DD4346E1181F23CA17D20E89180B4020
:101270009B1ADB009B19E958EB185B79002BE5D131
:10128000114AE4E75346D81900234000C719BF00AC
:10129000ED196A1C0535FF32FF3513602B60F0BC79
:1012A000BB46B246A946A046F8BD08480AF068F910
:1012B000F5E7C046FC4D0020C0000110E000011021
:1012C00000010110F400011010010110A400011030
:1012D000F0B54546DE4657464E46E0B58BB08046F3
:1012E00000911C2800D9D9E043011C008622012668
:1012F000444464006C4D4444A4002C19200009347B
:1013000000215200FF34039308F0F2FA40462670A1
:1013100005F074FC43469E40D0231B0600220121A9
:1013200040469E6205F0BCFB01220C2140465F4B0B
:1013300005F0FCFB434618215D4A04A809F0A2FD14
:1013400001205C4904AAFFF7ADFD41465A480AF066
:1013500017F906F093FC00295FD0FA2200239200CF
:1013600007F078FB0290D0231B065B68039B0026E6
:1013700043445B004344019313E0009B002B0DD0DA
:1013800006F07CFC00295AD0FA220023920007F0D4
:1013900061FB029BC01A009B984259D2012006F0C3
:1013A000A9FB002009F0CAFF831C51D1019B9B00BF
:1013B000EF1899467B1DFF331A68002ADDDD1F21D7
:1013C0007B1CFF331B6800249B1A4033DA17D20EB4
:1013D0009B180B409B1A9A46384B01369B460BE0F4
:1013E000374B424658460AF0CBF87B1DFF331B684B
:1013F00032190134A34216DD534619191F23CA17A7
:10140000D20E89180B409B1ADB004B44E958EB18AD
:101410005B79002BE4D12B4BE3E7FA21890007F03D
:10142000DBFA02909FE716000022019B9B00EB185D
:10143000591C0533FF31FF330A601A609DE7FA211A
:10144000890007F0C9FA029BC01A009B9842A5D3F5
:1014500000220C21404605F03DFB039B182143442C
:101460005B0043449B00ED1800230935FF35164A05
:101470002B7004A8434609F005FD01200D4904AA7C
:10148000FFF710FD3200414610480AF079F80BB022
:10149000F0BCBB46B246A946A046F0BD01000C48D0
:1014A0000AF06EF8F3E7C046FC4D0020C9100010AA
:1014B0008000011074000110400101107001011042
:1014C000F4000110100101109400011088010110B6
:1014D0001C010110F0B54E464546DE465746E0B5C4
:1014E00006000D0083B0002800D1A5E0131C282AB7
:1014F00000D9C0E0DAB2002A00D1BAE09620DCB20E
:101500002100C00007F040FA0700280005F076FB34
:101510000123AB401D00D0231B065D623A009D6194
:10152000210063480AF02CF83378002B7ED07A0033
:101530009146FA00D21B0192721C90465D4AB94452
:1015400092465D4A93462AE01A00303A092A00D8AA
:1015500081E02E2B00D194E02C2B00D196E03F2B84
:1015600000D195E0212B00D194E02F2B00D193E006
:10157000282B00D192E0292B00D191E02D2B00D116
:1015800090E03D2B00D18FE02B2B00D18EE001238A
:101590009C46E0444346013B1B78002B46D0202B61
:1015A00060D05246D15C032218000A401900022A7A
:1015B00002D1203B1800DBB21A00413A192AC3D8E5
:1015C000FF2303403D4A413B9B009C58002CDED04A
:1015D00022003B4809F0D4FF5B46D0261B68360644
:1015E00098680DF021F82378002B0FD075612378CF
:1015F00038002D2B00D1484606F07CFAB56163789F
:10160000002B20D163780134002BEFD143462022F8
:101610001B789343BBD0484606F06CFA01239C46E6
:10162000E0444346013B1B78002BB8D1254809F024
:101630001DFFD0231B069D6103B0F0BCBB46B24624
:10164000A946A046F0BD3800013406F053FA2378CD
:10165000002BCBD1DAE7FF2303401B4A303B9B0032
:101660009C58B3E7194809F08BFF019806F042FA3D
:101670008DE7012342E72823DAB2002A00D03DE7B4
:10168000F7E70023124A9B009C589FE70123F9E7E4
:101690000223F7E70323F5E70423F3E70523F1E744
:1016A0000623EFE70723EDE70823EBE7223BE9E713
:1016B000B8010110815A0110E0120020FC02011053
:1016C000E0010110D8010110640301108C510110D8
:1016D0008C03011030B5040083B0002800D199E0DC
:1016E00091490DF0EFFD002800D193E0032223780B
:1016F0008E491D00C85C0240022A00D196E0522D9E
:1017000000D187E000250195002B00D1C6E04007FD
:1017100000D5B4E0022A01D1203BDBB26A46137146
:101720006378002B00D186E0C85C420700D5A3E0B7
:1017300003220240022A01D1203BDBB26A465371E8
:10174000A378002B00D1C4E0C85C420700D5CBE0F1
:1017500003220240022A01D1203BDBB26A46937188
:10176000E378002B00D1C5E0CA5C0424520700D501
:10177000C8E06B465B79422B00D174E06C4901A84C
:101780000DF0A0FD002849D06A4901A80DF09AFD8E
:10179000002842D0684901A80DF094FD002800D12E
:1017A00070E0664901A80DF08DFD002800D16BE0C6
:1017B000634901A80DF086FD002867D0614901A8A2
:1017C0000DF080FD002863D05F4901A80DF07AFD7F
:1017D00000285FD05D4901A80DF074FD00285BD0A2
:1017E0005B4901A80DF06EFD002800D16DE059495C
:1017F00001A80DF067FD002869D0574901A80DF038
:1018000061FD002800D16DE0544901A80DF05AFD9A
:1018100000282FD0002003B030BD0120504B8000A5
:10182000C058231F002B18DD9840F4E7203D522DAF
:1018300000D067E7EEE74B4A3D4954786A4653715A
:1018400033226407E417944301A804340DF03AFDF1
:10185000002899D18320231F4000002BDBD00423D4
:101860001B1BD840D7E76A461F3B53711379013BD6
:10187000137183E70B20D1E7002269464A71303BA0
:101880001C007BE70220C9E70320C7E70420C5E767
:101890000520C3E70620C1E70720BFE7314B2449F5
:1018A0005B7801A85B0733D530240DF00BFD644253
:1018B000002833D01F4901A80DF004FD002800D0F6
:1018C00068E71620231FFF30C7E70820A6E7092096
:1018D000A4E76946234A8B715278530710D5302408
:1018E000644246E70A2099E700226946303B1C0023
:1018F0008A713EE769461B4ACB7152785307EED492
:10190000042436E700226946303B1C00CA7130E7E8
:101910000DF0D8FC002804D00424CBE7832040003D
:101920009DE78320400076E7E0200110815A0110F6
:10193000B0580110B4030110D8480110B8030110C9
:101940004C520110BC030110C0030110C40301106C
:10195000C8030110CC030110D0030110C00801100E
:10196000EC030110805A0110F0B557464546DE469B
:101970004E46E0B504000F00904683B01F2814D8EF
:10198000012605076D0F2640002F15D17D4B1B78D2
:10199000A34200D1C0E0404606F0ACF803B0F0BC72
:1019A000BB46B246A946A046F0BD01264507AD0F8D
:1019B00008352640002FE9D0052006F09DFB3900B0
:1019C000814607F009F880235B0298422ED84F45E4
:1019D00000D9C1E0013803041B0C0193012399468F
:1019E00000239A46674BC0039B461B78070CA34213
:1019F00051D1AB005D19644BAD00EA1801231068AA
:101A0000624918406918086048465446000120435E
:101A1000506001981061126893430B605C4B9C46C8
:101A20006544002E69D05B4C3F0467E007F061FE1F
:101A3000DE21890507F029FE5749814607F054FE4B
:101A4000002800D080E0484607F07AFE070007F043
:101A500050FE011C484607F0FEFD8321C90507F032
:101A600014FEFC21890507F0F9FD07F069FE8246A6
:101A70000F2879D97B1C99467B1C62D04B46FF2BE3
:101A80005CD8464B464F019300239A463D4B9B46FC
:101A90001B78A342ADD00421200004F0DDFF5046A6
:101AA00007F027FEF621890507F0EFFD824648463C
:101AB00007F01FFE011C504607F0D0FDF4218905F8
:101AC00007F0CCFD8321C90507F0DFFD07F038FEE4
:101AD0000022AB005D192C4BAD00EB181A609A6028
:101AE000DA60019A1A61012258601A605B461C7024
:101AF000274B9C466544002E95D1284C2B684046C8
:101B00005F4080235B01EE182740376005F0F2FF4D
:101B10002B682340336041E7224A764216401F4A31
:101B2000AB0094465D191A4BAD00EB181B68664478
:101B30001E401D4B9C4665442E602CE7FF239946B2
:101B40009FE7012399469CE7144B154F0193FF2310
:101B50009946F13B9A4699E7002301930133994650
:101B6000002300279A4691E7B9463B1E05D1013371
:101B700099460A4B0A4F019388E7FF2FF9D9FF23B3
:101B80009946F6E7101200200000054000100540BD
:101B90000C0005400000FFFF66E67F43FFFF0000EA
:101BA000FF7F00000100FEFF0C100540F0B54E461F
:101BB000DE4657464546E0B5C54C0600A54400291B
:101BC00000D112E1C34D0AAC2A0020000DF0A0FCA8
:101BD000002320006355C04909AA09930DF00EFDAA
:101BE000051E00D164E10323072271080B40079111
:101BF0000A4008331F2E00D858E10122324011005C
:101C000003929A00D3189A009446B4484B1E60443D
:101C10008246B348B34960440590B348DB0360444F
:101C20008C46DB0B634494460293B04BB04900935F
:101C3000B04B6144634483468946B04604920693A0
:101C40001FE0009B1B78434505D15B46029A1B6849
:101C500013404A461360200005F04CFF96235B00BA
:101C60009C4200D395E0952C00D8C6E0082005F0F2
:101C700041FF0020984909AA0DF0C0FC051E00D1C3
:101C800092E03A2128000DF03FFBC824002808D03C
:101C90000023037001300CF005FC04000A2800D278
:101CA0000A242800FFF716FD230006000200290081
:101CB000914809F065FC002EC3D0052006F01CFAFF
:101CC0003100070006F088FE80235B02984200D9AD
:101CD000ACE0BE4200D9DFE0012600270138030452
:101CE0001B0CC0030193050C009B1B78434500D1DE
:101CF00087E00421404604F0AFFE380007F0F9FC0D
:101D0000F621890507F0C1FC071C300007F0F1FC43
:101D1000011C381C07F0A2FCF421890507F09EFC89
:101D20008321C90507F0B1FC07F00AFD00235246E4
:101D30000499724E1360B4460A006B4E62441360FD
:101D4000B4460A00624413606D4A0B009446019A3F
:101D500063441A6052460123506013604246009B60
:101D60001A70039B002B00D02D045B461B68029E5B
:101D70005D404B4635401D60200005F0BBFE5B46D4
:101D80004A461B683340136096235B009C4200D296
:101D900069E70C2005F0AEFE00204F4909AA0DF0BE
:101DA0002DFC051E00D06CE746461F2E00D879E0BA
:101DB0000323079A134008331A00494901248C462B
:101DC00093009B18454A9B009A181268634422406E
:101DD0001A600521300004F03FFED023B4401B06FA
:101DE0005C629C61FF23009A1370464B9D44F0BCDB
:101DF000BB46B246A946A046F0BD042005F07AFED7
:101E000037E753461A6801233D48059984461A402E
:101E10000A603601069A37431760049A01986244B3
:101E200010605246126893430B609AE707F061FC1A
:101E3000DE21890507F029FC3349061C07F054FC14
:101E4000002805D0314BFF260E27314D01934BE77B
:101E5000301C07F075FC050007F04BFC011C301C22
:101E600007F0F9FB8321C90507F00FFCFC21890568
:101E700007F0F4FB07F064FC07000F281DD96E1C67
:101E80006B1C05D10126214B0027214D01932BE727
:101E9000FF2EF8D9FF26F6E70023002501260027AC
:101EA000019321E70722079B1A4086E71300A4E667
:101EB000730807930D4B009377E72E1E04D101366C
:101EC000124B134D01930FE7FF2DF9D9FF26F7E7CA
:101ED000D4F7FFFFFF0700002018011000000540A5
:101EE000001005400000FFFF0C000540101200200C
:101EF0000C10054004000540D40301100800054003
:101F0000100005402C08000066E67F43FFFF00003C
:101F1000FF7F000010B502F0DBFE0821044809F045
:101F20002FFB044809F0A2FA034809F029FB10BD71
:101F30001C0401104804011070040110F0B5C646DD
:101F400000B5002082B009F0F9F9831C2AD0934A29
:101F50001368012B00D1ADE0022B00D18AE0002BE9
:101F600000D1A1E0002313600D281FD00A281DD046
:101F70007F2800D1A4E0082800D1A1E0032800D1E7
:101F8000E7E0042800D1F3E00C2800D1D5E0844A32
:101F9000844913688B4205DC591C1160824AD05475
:101FA00009F018FA02B080BCB846F0BD0A2009F06A
:101FB00011FA00237A4E7C4D32682800AB540DF0A4
:101FC00047FA002800D189E008220027774C691ED3
:101FD00004E001382B181F7000287FD00B5CE35CF5
:101FE0001A42F6D12B78002B38D02900002208277E
:101FF0006E4C04E04B7801310132002B70D0E35C71
:102000001F42F7D1002A6BD1694B1C689846002CFF
:1020100000DC9AE00720631E664F1840C0012900CB
:1020200038180DF0D1F9002812D00723E217520F0B
:10203000A1180B409B1ADB01FF1838007F222900F2
:102040000DF066FA00237F373B70434601341C6075
:102050000022594B28001A6002F04AFE8022002319
:10206000002128001201336007F042FC534809F0B8
:1020700087FA97E70024146041283AD0422800D01C
:1020800090E74D4B1A68551E1D60002D00DC81E065
:10209000474B4B481E68B54236DD09F071FA404B9C
:1020A0001C60414B1C707DE71B2800D05CE70133AE
:1020B000136077E75B2800D054E70223136071E7D1
:1020C000374A1368002B00DC6CE70021013B1360EA
:1020D000354A3C48D15409F053FA63E7002081E7C0
:1020E000821A013228000DF02FF82B78002BB5D082
:1020F0008AE7314B1A68551C1D60002D27DD2C49DD
:102100000E68B54223DC2E4809F03AFA0721751B08
:10211000284B2D4F2940244DC901C9183A002800E9
:102120000DF0F6F92800EC550DF092F91C4B290042
:102130001860264809F024FA34E7254809F020FA07
:102140001949224809F01CFA2CE71A4F6DE71A606A
:1021500028E7204809F014FA80220024104B0021BF
:10216000114812011C6007F0C3FB134B1C6019E7F8
:10217000194809F005FA6946184B68461A68009232
:102180009A888A809B798B7102F0B2FD0B4809F026
:10219000F7F907E70A481C607FE7C046502C00208B
:1021A000A43C0020FE070000A4340020815A011046
:1021B0009C2C0020A42C0020A02C002070040110D6
:1021C0007404011080040110FF0700007C0401105A
:1021D00098040110840401108C040110A40401105F
:1021E0008023214ADB011168D0B54B40E021C901B1
:1021F0000B401E4982B00B6004211D4B1960FC315D
:1022000013680B42FCD050680004000C07F076FA0B
:10221000184907F03AFAE621890507F036FA164917
:1022200007F019FA154907F01CFA011C144807F0C9
:1022300012FA041C07F09AFA06000F00201C11493C
:1022400007F023FA104907F00CFA8421C90507F0BA
:1022500005FA07F08BFA3200009001913B000B4821
:1022600009F08EF902B0D0BD00C0044000D0044097
:1022700000E00440333353406ABC343F2D93E13ACD
:102280000000D841000010410000A040AC04011043
:1022900010B5024809F074F910BDC046CC04011015
:1022A00070B5334809F0E2F8324809F0DFF8324CF3
:1022B0003248210009F064F9314932480A1B920A78
:1022C00009F05EF93049314809F05AF9304809F00F
:1022D000CDF8304C3048210009F052F92F493048F0
:1022E0000A1B09F04DF92F4C2F48210009F048F93D
:1022F0002E492F480A1B09F043F92E4C2E48210085
:1023000009F03EF92D4D2E4829002C1B09F038F913
:10231000A10A2C4809F034F92B4C2C48210009F073
:102320002FF9611B2A4809F02BF92A4809F09EF879
:10233000294809F09BF8294809F098F8284809F03D
:1023400095F8284809F092F8274809F08FF82748AF
:1023500009F08CF8264809F089F8264809F086F833
:10236000254809F083F8254809F080F870BDC0467B
:10237000D4040110F0040110000000101C0501102D
:10238000187601104005011000F01F1074050110AF
:10239000A4050110C0000020D4050110301B00204E
:1023A000F8050110301B002024060110B087002022
:1023B00048060110B08700207406011000000420B8
:1023C00098060110BC06011000200420DC06011054
:1023D000000701102C070110600701108807011089
:1023E000AC070110C4070110DC070110F40701104D
:1023F0000C080110240801103C08011054080110B9
:10240000074B084910B5C91A8A0A074809F0B8F8F5
:10241000064809F02BF8064809F028F810BDC04618
:10242000B0870020000004206C08011094080110FF
:10243000AC08011010B5044809F018F8034A044923
:10244000044809F09DF810BDC4080110E808011007
:10245000F408011000090110F8B54546DE4657465C
:102460004E460400E0B50D00012800DC90E048680D
:102470000CF018F88046022800D98DE0022C00D01C
:1024800078E040239B469A464346454A1B03116821
:1024900080244B40E021C9010B40424900250B60DC
:1024A000414B00219946042300209C463F4E640086
:1024B0004B4667461F6013682342FCD053689FB2A7
:1024C0001B041B0CC0183B1CB74200D9331C9EB226
:1024D0003B1CAF4200D22B1C01319DB25945E7DBBA
:1024E000514606F079FA04045A464146240C304815
:1024F00009F046F8200007F001F92E4907F0C5F869
:10250000E621890507F0C1F807F030F902000B0059
:102510002948210009F034F8300007F0EFF8254988
:1025200007F0B3F8E621890507F0AFF807F01EF9C8
:1025300002000B002148310009F022F8280007F0C2
:10254000DDF81C4907F0A1F8E621890507F09DF8A0
:1025500007F00CF902000B001948290009F010F8E7
:102560001848A91B09F00CF8F0BCBB46B246A946B6
:10257000A046F8BDA8680BF095FF0300013B834619
:102580008246FF2B00D87FE70F4808F06FFFEBE78C
:102590000E4808F06BFFE7E70D4808F067FFE3E738
:1025A00000C0044000D0044000E00440FFFF0000F1
:1025B0005C09011033335340700901108C0901107C
:1025C000A8090110C40901104C09011010090110DB
:1025D0003809011030B583B001282DDD48680BF0B3
:1025E00061FF050002282BD8174A030311684B40EE
:1025F000E021C9010B4015490B600421144B1960FF
:10260000FC3113680B42FCD054682404240C2000D5
:1026100007F074F80F4907F038F8E621890507F04C
:1026200034F807F0A3F822000090019129000A482D
:1026300008F0A6FF03B030BD084808F017FFF9E71F
:10264000074808F013FFF5E700C0044000D004403D
:1026500000E0044033335340000A0110E009011048
:102660003809011070B504000E00012846DD4D68E0
:10267000324928000CF0A8FE011E35D02800304950
:102680000CF0A2FE002842D028002E490CF09CFE3F
:10269000002841D028002C490CF096FE002840D09C
:1026A00028002A490CF090FE002801D1032C3BDCC5
:1026B000280027490CF088FE002821D0254808F082
:1026C000D5FE254808F0D2FE244808F0CFFE244865
:1026D00008F0CCFE234808F0C9FE234808F0C6FEE7
:1026E000224808F0C3FE08E0022C03D0B0680BF0CB
:1026F000D9FE01000020FEF73FFC70BD0021F9E784
:10270000FEF7DCFC01001A4808F03AFFF5E700216B
:102710000230FEF731FCF0E700210330FEF72CFC1D
:10272000EBE7FEF7AFFCE8E7F268B1680130FEF7CF
:10273000B9FB104808F09AFEDFE7C046200A0110F6
:10274000280A0110300A0110340A01103C0A011055
:102750004C0A0110740A01107C0A0110B40A01101D
:10276000EC0A0110200B0110500B01107C0B011022
:10277000540A0110440A011070B504000D0001282C
:102780003DDD4E683E4930000CF01EFE002836D07C
:1027900030003C490CF018FE002834D030003A4993
:1027A0000CF012FE002832D0300038490CF00CFE3C
:1027B000002820D1032C1EDDAC68354920000CF028
:1027C00003FE00284BD0200032490CF0FDFD00280C
:1027D00028D0200030490CF0F7FD00283AD1E868F5
:1027E0000BF060FE431E98412C4BC1B22C489972ED
:1027F00008F0C6FE02E02B4808F038FE70BD2748FE
:10280000FEF7A8F8FAE72548FEF71EF8F6E7234C8E
:102810002000FDF7ABFE2000FEF716F8224808F076
:1028200025FEEBE7E8680BF03DFE011E26D0020016
:10283000303A0300982A1DD81848821D8371180A5F
:1028400050701802000E90701B0E1848D37008F0DC
:1028500097FED3E72100164808F092FECEE7154C0C
:10286000E9680F2220000CF053FE2100124808F006
:1028700087FEC3E7114808F0F9FDBFE70023DBE757
:10288000200A0110AC0B0110A00C0110D00B01109C
:10289000D40B0110F00B0110240C0110582C002057
:1028A000300C0110780C0110B40B0110100C011049
:1028B000400C0110642C0020E00B0110F80B0110FB
:1028C00010B503F0EFFE10BDF0B5C646D02500B53B
:1028D000154808F0CBFD154808F0C8FD144B00243E
:1028E0009846144E144F2D0607E021003A003000A0
:1028F000013408F045FE1D2C13D0200004F07EF9B1
:102900000122A240296A6B681340581E83410A4283
:10291000EBD1210042463000013408F031FE1D2C7D
:10292000EBD180BCB846F0BDA80C0110C00C011062
:10293000E80C0110D40C0110D00C011010B505F0FA
:102940005DFE002809D10649064808F019FE064B2D
:102950000648D96808F014FE10BD0549F4E7C046E2
:102960006CFE0010F00C011000800540100D0110ED
:10297000EC0C011070B582B06C46684609F0F0F8B6
:10298000084808F0FDFD084D02AE2178280001340A
:1029900008F0F6FDB442F8D10A2008F01BFD02B0A1
:1029A00070BDC046340D0110400D0110F8B53E4C0D
:1029B000200008F05BFD3D4808F058FD200008F0BD
:1029C00055FD3B4808F052FD3A4808F04FFD3A48A3
:1029D00008F04CFD394808F049FD394808F0D0FDB1
:1029E00005F04CF90023374A06F034F805003C2185
:1029F000280005F0F1FF0F00E1212800090105F092
:102A0000EBFF08003C2105F0E7FFE121060009018A
:102A1000280005F0E1FF3B00010032002A4808F0E1
:102A2000AFFD0A2008F0D6FC8023284ADB0111689C
:102A30004B40E021C9010B4025490B600421254B87
:102A40001960FC3113680B42FCD050680004000C84
:102A500006F054FE204906F018FEE621890506F02E
:102A600014FE1E4906F0F7FD1D4906F0FAFD011C93
:102A70001C4806F0F0FD06F079FE02000B001A4833
:102A800008F07EFD194B1A481A681A4B196808F0AD
:102A900077FDFEF713FB0100174808F071FD2000D9
:102AA00008F0E4FCF8BDC046480D01106C0D0110A3
:102AB000900D0110AC0D0110DC0D0110F40D011092
:102AC000040E011040420F00100E011000C004401F
:102AD00000D0044000E00440333353406ABC343F2C
:102AE0002D93E13A0000D841240E011034860020D5
:102AF000380E0110E44D0020600E0110F8B5474675
:102B0000CE4680460E0080B501280DDD441E022809
:102B100011D1114F114DA3002A003800F158013492
:102B200008F02EFD4445F6DB0A2008F053FCC0BC3B
:102B3000B946B046F8BD0A4B01259946064FAB0091
:102B40004A463800F158013508F01AFDA542F6DB77
:102B50002C00A845DEDCE7E7800E0110E4500110F0
:102B60002018011010B5012813DD48680BF09AFCFD
:102B70000A4B421E04009A4207D80100084808F098
:102B8000FFFC200004F0B6FF10BD064808F06EFC04
:102B9000FAE7054808F06AFCF6E7C0462F75000022
:102BA000B00E01109C0E0110880E0110F0B5C64643
:102BB000040000B519200F0004F020F8D023802273
:102BC0001B0692045A62012C61DD7E6831786F2900
:102BD0000FD171786E290CD1B178002909D101206B
:102BE0003549087035485A6108F040FC80BCB84649
:102BF000F0BD334D300029000CF0E6FB00283BD03F
:102C0000300030490CF0E0FB00280FD101212A4AA6
:102C100013784B4013703ED0D02380221B069204C1
:102C200029495A61294808F0ABFCDFE73000284900
:102C30000CF0CAFB051E35D105239846022C07D09F
:102C4000B8680BF02FFC0300013B8046312B2ED8D7
:102C5000D02680243606A4049620746104F04AFF2E
:102C600001359620B46104F045FF4545F4DB41464B
:102C7000184808F085FCB9E70F4B80221870D02364
:102C800092041B069A61144808F0F0FBAEE7134863
:102C900008F0ECFBAAE7D02380221B06920429004F
:102CA0009A61BFE731000E4808F06AFC9EE70D48C4
:102CB00008F0DCFB9AE7C046A7870020EC0E011065
:102CC000F80E0110FC0E0110F00E0110040F01109F
:102CD0000C0F0110200F0110F40E0110C40E011092
:102CE000340F0110140F011010B5054808F0BEFB99
:102CF000C82004F0FFFE0021002005F0C1FCC04602
:102D0000500F011010B5064808F0B0FBFA20800003
:102D100004F0F0FE0121012005F0E2FBFEE7C046D1
:102D2000740F0110F0B54F464646D646C0B5264C46
:102D300007008846A54402283ADD48680BF0B2FB3C
:102D4000224B421E82469A4239D8002304AC23709B
:102D50001F4B022599461F4E07E020000CF078FB20
:102D60004946321A20000CF0A1FB20000CF070FB49
:102D70004146AB00321AC958200001350CF096FBD1
:102D8000AF42EAD152462100134808F0F9FB210076
:102D90006846524602F0A8FA2100684602F00CFB91
:102DA00081231B019D44E0BCBA46B146A846F0BD54
:102DB0000A4808F05BFB0A4808F058FBF0E70948AE
:102DC00008F054FBECE7C046F0F7FFFF9F860100D8
:102DD00020180110FF070000E00F0110880F0110FC
:102DE000AC0F0110C80F0110F0B54546DE4657463E
:102DF0004E46E0B504000D0083B0012800DC9BE0E6
:102E000048680BF04FFB80461C2873D8022C08D072
:102E1000A8680BF047FB02007C4B143A82469A42AA
:102E200001D996239A460A2008F0D4FA784808F087
:102E30001DFB52464146774808F0A2FB764808F051
:102E400015FB764808F012FB754808F00FFB754833
:102E500008F00CFB0421744808F092FB734808F05A
:102E600005FB734808F002FB0421724808F088FB58
:102E70000426714808F062FA831CFAD0712857D0F2
:102E8000032855D05B284AD05D283DD0C4B2612CC0
:102E900059D0732C00D19AE0642C00D199E0662CB3
:102EA00000D198E0672C00D197E0682C00D196E023
:102EB0006A2C00D195E06B2C00D194E06C2C00D1F1
:102EC00093E03B2C00D192E0772C00D191E0652C6F
:102ED00000D190E0742C00D18FE0792C00D18EE0ED
:102EE000752C00D18DE06F2C00D18CE0702CC0D1FE
:102EF000102329E0514808F0B9FA03B0F0BCBB46F2
:102F0000B246A946A046F0BD06220021F30FB24208
:102F10004B41F61831004A4808F032FBA9E7F31795
:102F20009B1BDB0FF61A3100454808F029FBA0E790
:102F3000444808F09BFAE0E7434808F097FA434812
:102F400008F094FAD9E700231B011A009446019374
:102F50003F4B63449B689946B1444B46072B01DDC8
:102F600007239946019B3A4A9C464B4662445B00C4
:102F700052684B449B009B18364A9B009B5836482E
:102F80009B4608F0FDFA354D2F000C372B78A342F5
:102F900016D02D20013508F01DFAAF42F6D12C4A8B
:102FA000019B944663444A46D9682D485B4608F025
:102FB000E7FA434652465946D8B2FEF7D5FC58E7E1
:102FC0002320013508F006FABD42DFD1E7E70123EF
:102FD000BAE70223B8E70323B6E70423B4E70523DF
:102FE000B2E70623B0E70723AEE70823ACE70923DF
:102FF000AAE70A23A8E70B23A6E70C23A4E70D23DF
:10300000A2E70E23A0E70F239EE7C046BC070000FF
:1030100068100110A4100110E01001101C11011023
:10302000541101108C110110C8110110041201106B
:103030003C12011078120110102700005C100110E2
:10304000A41201109412011010100110341001107C
:103050007445011090320110C81201101034011093
:10306000B4120110F0B54746CE4680B505000F00FA
:10307000A1B001284BDD0D23994602283AD1002347
:103080006A4601201370022D3FDD244B01247F2668
:1030900098462D1A012C0AD168460CF0D9F97968A6
:1030A000321A68460CF002FA022D14DD022468463A
:1030B0000CF0CEF94146321A68460CF0F7F9684632
:1030C0000CF0C6F9A300321AF958684601340CF026
:1030D000EDF9AC42DEDB4A4619216846FEF7FAF903
:1030E0006A4601200E49FDF7DDFE21B0C0BCB9469D
:1030F000B046F0BD88680BF0D5F9C3B299466A4670
:10310000002301201370022DBFDC0020BDE705481D
:1031100008F0ACF9044808F0A9F9E6E72018011016
:1031200018130110D0120110EC120110F0B5CE46A8
:10313000474680B5334C06000D00A54402283EDD0D
:1031400048680BF0AFF980461C284CD8AC682E4973
:1031500020000CF039F900283BD020002B490CF05E
:1031600033F9002843D000236A461370284B022409
:103170009946284F07E068460CF06AF949463A1A22
:1031800068460CF093F968460CF062F9A3003A1A0D
:10319000E958684601340CF089F9A642EBD1414662
:1031A0006A461D4808F0ECF943466946D8B2FEF776
:1031B000FDFC1A4B9D44C0BCB946B046F0BD184852
:1031C00008F054F9174808F051F9174808F04EF97B
:1031D000EFE74146154808F0D3F943461449D8B201
:1031E000FEF7E4FCE5E7134808F040F9E1E7414663
:1031F000114808F0C5F943461049D8B2FEF7D6FC8D
:10320000D7E7C046FCF7FFFF9C130110C413011061
:1032100020180110FF070000F4130110040800003B
:1032200020130110501301106C130110A41301108E
:10323000503E01105C100110CC130110203401101D
:10324000F0B5CE46474680B504000D0083B0012896
:1032500000DC85E04E683378622B36D17378672BBB
:1032600033D1B378002B30D1022800D1EBE08E6847
:10327000844930000CF0A8F8002800D186E0300026
:103280000BF010F906001C2866D8032C00D1E2E0F0
:10329000EF687D4938000CF097F88046002800D090
:1032A00077E0042C00D0B2E00123B427994614241F
:1032B0007649F0B202F074FD002848DB4B463A0034
:1032C0004146009402F0FEFD41E030006E490CF0F2
:1032D0007BF8071E23D1022C00D182E0A8680BF0F6
:1032E000E1F80600032C00D177E0E8680BF0DAF88B
:1032F0000700042C00D1A2E028690BF0D3F8804627
:10330000052C00DC9DE068690BF0CCF803001C2E56
:1033100022D842463900F0B202F08EFB17E0022CB0
:1033200063D030000BF0BEF80400A8680BF0BAF8C8
:1033300005001C2C10D8B42800D988E02900E0B280
:1033400002F010FB2A002100514808F019F903B0DF
:10335000C0BCB946B046F0BD4E4808F087F8F6E765
:103360004D4808F083F84D4808F080F84C4808F0C4
:103370007DF84C4808F07AF84B4808F077F84B484D
:1033800008F074F84A4808F071F8E0E702F0BAFF74
:10339000DDE7380047490CF017F8002829D1042C44
:1033A0006BD028690BF07EF80A2307009846052C9D
:1033B00003D068690BF076F880463449F0B202F029
:1033C000EFFC0028C3DB4246390002F0D1FD3A0091
:1033D0003100394808F0D4F8B9E7B4239846A03B47
:1033E00095E7364808F042F8B1E7354808F03EF86E
:1033F000ADE7380033490BF0E7FF00282FD1F0B2DA
:1034000002F034FD002833DB02F0F0FD9FE728696D
:103410000BF048F88046052C26D068690BF042F87E
:103420000700062C21DDA8690BF03CF88146072C2B
:1034300000DC3CE7E8690BF035F8040038E7B4231A
:103440009846142363E7204808F010F87FE71F48E8
:1034500008F00CF87BE71E4808F008F877E7390019
:103460001C4808F08DF872E7B42701239946DEE77F
:103470003100194808F084F869E7184807F0F6FFAA
:1034800065E7C046A8150110D0150110D815011028
:10349000D41601105C100110740A01100C140110F4
:1034A0004414011080140110C414011008150110F7
:1034B00048150110E41501101416011078160110BA
:1034C0009C160110982A01108C150110C0160110CD
:1034D000B01501105416011034160110EC1501102E
:1034E000F0B557464E46DE464546E0B506000F00AD
:1034F00085B0012800DC81E148680AF0D3FF0400B0
:103500001C2800D9F0E1022E00D05BE10A238025BF
:103510009A469946802006F0B5F9061E00D1EFE1E3
:103520000127200003F06AFBD023A74050461B066A
:103530009F626843984606F0E1F8CE4906F091F89C
:10354000834606F013F902000B00CB4821000292DB
:1035500003930092019353462A0008F011F8C748DC
:1035600008F00EF81F2300249A4606E04846002182
:10357000013404F0ADFAA54218DD002007F0DEFEAC
:10358000831C00D06EE143465B683B405A1E93416A
:10359000335553462342E9D12E2007F01BFF013457
:1035A0004846002104F094FAA542E6DCB44807F04E
:1035B0005DFFB44807F0E4FF102D09DD1024B24F81
:1035C000220010213800103407F0DAFFA542F7DCA2
:1035D0000A2007F0FFFEAD4807F0D2FFAC4B0124F4
:1035E0009846AC4BAC4F9946AC4B9A4639002307F2
:1035F00003D04946A30700D051464046013407F0A6
:10360000BFFFA542F2DC0A2007F0E4FEA44807F061
:10361000B7FF3378002498461F009946A14B9A467D
:103620000BE0002B00D006E1012A00D160E1202050
:1036300007F0D0FE0134A5420DDD325D4B469146C8
:10364000002CEED15046002A00D19448013407F0F6
:1036500097FFA542F1DC0A2007F0BCFE924807F074
:103660008FFFC146002405E07C20013407F0B2FE44
:10367000A5420CDD325D4B469146002C01D09A42AA
:10368000F2D12020013407F0A5FEA542F2DC0A2089
:1036900007F0A0FE854807F073FF804B0024994691
:1036A000804B9A4610E0012B00D1D5E0002B02D1CF
:1036B000012F00D1CCE0002F00D0C9E05F2007F03F
:1036C00089FE0134A5420CDD3B00375D002CEAD1B8
:1036D0004846002F00D15046013407F051FFA54263
:1036E000F2DC734807F0C2FE01232A1F9A4300232D
:1036F0009946731C012100249A4603324746735CA5
:10370000DF1B781E8741B8461F00781E8741504650
:10371000BC46475C4444FB1A581E8341E4183B00F6
:10372000581E8341E1440231B84699449142E5D1A3
:10373000701EB15C835C01325B1A5F1EBB41E418F2
:103740004B1E994189449542F3DC2100594807F00A
:1037500017FF484605F0D2FF071C280005F0CEFFF2
:10376000011C381C05F07DFF534905F08EFF05F064
:10377000FDFF02000B00514807F002FF029A039B75
:103780004F4807F0FDFE012C15DD200005F0B6FFC7
:10379000FC21890505F079FF011C584605F061FF01
:1037A000011C344805F05DFF05F0E0FF02000B004E
:1037B000444807F0E5FE0A2007F00CFE300006F052
:1037C0007FF827E0B8680AF06DFE0500032E28D0C8
:1037D000F8680AF067FE2B00FC22083B8246520084
:1037E0002800934223D85346374A013BD14693429F
:1037F00000D890E6354807F039FE0BE0344807F072
:1038000035FE344807F032FE334807F02FFE3348C8
:1038100007F02CFE05B0F0BCBB46B246A946A04658
:10382000F0BD0300FC22083B5200934264D92C48AF
:1038300007F01CFEEEE7012B02D1002A00D1F6E6CC
:103840004B46012B00D0F2E65F2007F0C3FDF1E606
:10385000202007F0BFFD34E7002FF9D15C2007F0EE
:10386000B9FD2EE71F4807F001FE300006F028F8EA
:10387000D0E7C04600007A44B0170110E8170110E5
:10388000001801100818011010180110F818011084
:103890007C04011078020110EC16011020180110B0
:1038A00014180110F01601101C1801102418011032
:1038B000B02701102C1801100000C8424018011058
:1038C00058180110701801109F8601008817011008
:1038D000740A0110F41601101C1701105C17011076
:1038E00078170110F4170110074807F0BFFD91E7A2
:1038F0002F2007F06FFD9DE60A239A4699460AE6B7
:10390000024807F0B3FD85E75C100110A017011015
:1039100010B501F0DBFE10BDF0B5DE46454657465A
:103920004E46E0B50A2093B007F054FD864807F0F4
:103930009DFD864807F09AFD854807F097FD85486C
:1039400007F094FD844807F091FD844807F08EFD50
:10395000834807F08BFD834807F088FD824807F015
:1039600085FD824B10AF9B46814B984600231D007E
:1039700086E0300003F08AF80121D023B1401B0615
:103980001A6A0A40531E9A41062352421340493391
:103990000D93042800D1C4E0032800D1CAE0012817
:1039A00000D1CAE002384342584128234042034034
:1039B0002D330C93D0231B065B680EA80B405A1EB8
:1039C000934103225B4293439A462E239C4608214F
:1039D0003300684AE24407F055FA00233B607B60FD
:1039E00043461B689946002B68DB180003F04EF82D
:1039F00049460122D0238A401B061B6A1340591EE8
:103A00008B4106215B42194049310B91042800D1BA
:103A10008AE0032800D18AE0012800D190E0023832
:103A2000434258412823404203402D330A93D02378
:103A30001B065C6808211440631E9C4103236442FA
:103A40009C4338004B464B4A2E3407F01BFA002E9D
:103A500041DB0A9B514605930B9B0C9A0493099BEF
:103A6000454802930EAB009306940D9B0397019576
:103A700007F086FD08239C46E344E044142D37D02C
:103A8000292301355B1B099300230E930F935B469B
:103A90001E68002E00DB6CE75B680821374A0EA821
:103AA00007F0F0F920239A460D930C9300233B6016
:103AB0007B6043461B689946002B96DA43460821F3
:103AC0005B6838002D4A07F0DDF9202320240A9393
:103AD0000B93002EBDDA099B2A00294800970EA9F6
:103AE00007F04EFD08239C46E344E044142DC7D163
:103AF0001B4807F0BBFC234807F0B8FC0A2007F07E
:103B000069FC214807F0B2FC204807F0AFFC2048D0
:103B100007F0ACFC13B0F0BCBB46B246A946A046C9
:103B2000F0BD50230C9345E750230A937FE74923C8
:103B30000A937CE749230C933CE753230C9339E722
:103B400053230A9373E7C04688180110C418011064
:103B5000001901103C19011078190110B419011055
:103B6000F4190110301A01106C1A0110844601106A
:103B700024470110A81A0110B01A01107C0401108A
:103B8000F41A0110341B0110701B01108C1B011062
:103B9000B81B0110F0B54646D6464F46C0B50500E5
:103BA0000E0092B0012800DCD7E04C68824920006A
:103BB0000BF00AFC002800D199E0804B1B78002B09
:103BC00000D1C6E020007E490BF0FEFB002858D053
:103BD00020007C490BF0F8FB002852D020007A49E5
:103BE0000BF0F2FB002800D0DEE0032D00DCD3E078
:103BF000B0680AF057FC102207000021F0680BF0B3
:103C0000C9FDC3B204009846042D07D030690AF0FC
:103C100049FC431E05001E2B00D8CAE002230125E3
:103C2000994600239A461C22002103A8029305F01E
:103C30005FFE53461C2200210BA80A9305F058FE94
:103C4000802342465B4202AE134333704B46320040
:103C5000390000935D480AAB02F090FDFF215C48FB
:103C6000214007F08DFC0AAC5A4E6519617830008E
:103C7000013407F085FCA542F8D10A2007F0AAFB21
:103C80004BE0032D45DDB0680AF00CFC4D49804641
:103C900070680BF099FB6B46814600240C36033D9F
:103CA000DF1D03E00436202C00D173E01022002138
:103CB00030680BF06FFD01343855AC42F2D14B4601
:103CC000002B5AD1414600940AAB02AA3F4802F0A9
:103CD00055FD414807F054FC0AAC3E4E6519217869
:103CE0003000013407F04CFCA542F8D1C5E7022DA5
:103CF00019D10423032702249846384843463A0042
:103D000000902100314802F007FD01222B4B1A7070
:103D100003E02100324807F033FC12B0E0BCBA46A1
:103D2000B146A846F0BDB0680AF0BCFB0400032D04
:103D300036D0F0680AF0B6FB0700042D31DD30699B
:103D40000AF0B0FB8046052DD7DD70690AF0AAFBAA
:103D5000D4E7244807F08AFBDFE7234807F086FB17
:103D6000224807F083FB224807F080FB214807F038
:103D70007DFB214807F07AFBCFE7414602AA0023EA
:103D80000094124802F0FAFC424629001B4807F052
:103D9000F7FBC2E7202592E7194807F067FBBCE76D
:103DA000032704239846CEE72100164807F0E8FBD6
:103DB000B3E7431C994634E7D41C0110AB870020BD
:103DC0003C0A01100C1D01103C1D011000C00340F5
:103DD000681D0110341D0110B41D011040420F0078
:103DE000141D0110DC1C0110740A0110D41B0110F9
:103DF000201C0110541C01108C1C0110941D01107A
:103E0000441D0110781D011070B503F037FF002329
:103E10003B4A04F01FFE04003A4807F027FB3C2110
:103E2000200004F0D9FD0E00E1212000090104F07A
:103E3000D3FD08003C2104F0CFFDE121050009017C
:103E4000200004F0C9FD2A00010033002E4807F0CD
:103E500097FB2E4B2E48196807F092FB2D4B2E48EE
:103E6000196807F08DFBFDF729F901002B4807F0D1
:103E700087FB04F0C3FB00283FD12949294807F0FC
:103E80007FFB052004F038F91D4904F0A5FD010071
:103E9000254807F075FB8023244ADB0111684B405D
:103EA000E021C9010B4022490B600421214B19601C
:103EB000FC3113680B42FCD050680004000C05F084
:103EC0001DFC1D4905F0E1FBE621890505F0DDFB40
:103ED0001A4905F0C0FB1A4905F0C3FB011C19483B
:103EE00005F0B9FB05F042FC02000B00164807F094
:103EF00047FB164807F0BAFA70BD1549BEE7C04641
:103F000040420F00BC1D0110DC1D0110E44D0020DB
:103F1000041E0110348600201C1E0110341E0110E6
:103F20006CFE00104C1E0110641E011000C0044005
:103F300000D0044000E00440333353406ABC343FB7
:103F40002D93E13A0000D841801E01109C1E011003
:103F500068FE0010F8B506000C00022861DD61491A
:103F600060680BF031FA002836D0A0680AF09AFA9F
:103F700007001C2851D865685B4928000BF024FA1B
:103F8000002800D16CE0280058490BF01DFA0028E9
:103F90004BD0280056490BF017FA002800D08EE0CD
:103FA000032E00D199E0380002F028FEE46823785F
:103FB000692B00D06FE063786E2B00D06BE0A378A4
:103FC000002B68D1D0220133BB4012063900936226
:103FD000484807F0D5FA23E0A0680AF063FA050024
:103FE0001C281AD8032E39D0E468434920000BF06E
:103FF000EBF9002845D0200040490BF0E5F90028F6
:1040000059D020000AF04EFA43011B1A99000918F2
:10401000C900E8B2FDF75CF902E0394807F026FA7A
:10402000F8BD384807F022FAFAE7032E4CD0E068D2
:104030000AF038FA0400380002F0E0FD0123D02233
:10404000BB4012065362002C23D193612200390039
:10405000531E9A412C4807F093FAE1E72B49D8E721
:10406000380002F0CBFD0122D023BA401B069A6231
:104070005B6839001A40531E9A41254807F080FAC0
:10408000CEE7E8B2FDF788F82900224807F078FA71
:10409000C6E75361DAE720001F490BF095F90028C5
:1040A00016D10123D022BB401206390053621B48AF
:1040B00007F066FAB4E7E8B2FDF796F8B0E7290032
:1040C000174807F05DFAABE7164807F0CFF9A7E706
:1040D0002100154807F054FAA2E7144807F0C6F982
:1040E0009EE7C046EC1E01103C1D01103C0A011069
:1040F000581F0110801F0110982A0110101F011075
:104100005C100110BC1E0110481F0110307500002A
:10411000181F0110F01E011038530110941F0110D8
:10412000BC1F0110281F0110A81F0110601F0110E3
:1041300010B501F085FB10BD70B50C0002280CDD38
:104140004D68154928000BF03FF9002816D02800CB
:1041500012490BF039F9002802D0FCF771FD70BD4F
:10416000A0680AF09FF90021FCF746FDA0680AF05C
:1041700099F901000A4807F003FAF0E7A0680AF08D
:1041800091F90121FCF738FDA0680AF08BF90100D4
:10419000044807F0F5F9E2E7DC1F0110F81F0110F1
:1041A00000200110E41F011070B50C00022835DD5D
:1041B00048680AF077F905001C2815D802F01EFDA2
:1041C000A4682378752B13D16378702B10D1A37852
:1041D000002B0DD128000022012102F061FC2900F2
:1041E000184807F0CDF902E0174807F03FF970BD15
:1041F000200016490BF0E8F8002813D020001449DD
:104200000BF0E2F8002817D128000022002102F06C
:1042100047FC29000F4807F0B3F9E8E70E4807F01C
:1042200025F9E4E728000122002102F039FC2900E9
:104230000A4807F0A5F9DAE72100094807F0A0F9D4
:10424000D5E7C046382001105C100110482001104D
:10425000642001106C200110142001105020011066
:1042600084200110F8B504000D0002282BDD4868F9
:104270000AF018F906001C2836D8032C16D1FA27A4
:104280007F00A8681A4A0378D35C5B0728D50AF038
:1042900009F90400220031003B00164807F070F9CC
:1042A0003A002100F0B2FDF75FFBF8BDE8680AF0C4
:1042B000F9F80200104B0A3A07009A42E1D90F4878
:1042C00007F0D4F8F1E70E4807F0D0F80D4807F0F2
:1042D000CDF80D4807F0CAF80C4807F0C7F8E4E736
:1042E000FDF7F8F90400D5E7094807F0BFF8DCE767
:1042F000815A01101C210110062700000421011021
:1043000094200110C0200110E82001106C1301104E
:104310005C100110F0B54E464546DE465746E0B506
:1043200006000D00C1B0022871DD10220021A8682E
:104330000BF030FA6F688046654938000BF044F89E
:10434000041E2FD1032E00D19EE0E8680AF0AAF8DF
:10435000471E0600FF2F00D973E080235B0543440E
:10436000020041465B489A4607F00AF95A4B0F256E
:1043700099465A4B9B460DE053464846195D07F057
:10438000FFF82B0023400F2B64D0A74262D00134EA
:10439000A6424FD02542EFD143465846191907F09F
:1043A000EFF8E9E738004E490BF00EF8002800D18D
:1043B0006EE038004B490BF007F8002845D1032E7A
:1043C00000D17EE08022FF216846520005F090FA7D
:1043D0006B46DF1E0423FF330324994602E04C455D
:1043E00000D172E0A30000211022E8580BF0D2F9AE
:1043F000A11E38550134A642F1DCFF234246134288
:104400002CD080213848490007F0BAF812E037482C
:1044100007F02CF8364807F029F8364807F026F858
:10442000354807F023F8354807F020F83449354877
:1044300007F0A6F841B0F0BCBB46B246A946A0467C
:10444000F0BD314807F012F8F4E739002F4807F0C3
:1044500097F8EFE70A2006F0BDFF98E72C4807F031
:104460008FF809F091FCEFF3108472B68022694650
:10447000404652000BF088FA84F31088FBF76CFF7B
:10448000244806F0F3FFD5E7234806F0EFFFD1E715
:1044900043461C0B24032100204807F071F809F063
:1044A00073FCEFF3108572B68021200049010BF0F8
:1044B00083FA85F31088FBF74FFF164806F0D6FF06
:1044C000B8E7174806F0D2FFB4E78021490094E727
:1044D0003C1D0110B0220110341D0110CC2201102E
:1044E000D82201103C0A011030230110740A011077
:1044F0003C2101107C210110D02101100C2201105F
:1045000000F01F004C220110A42201108023011092
:104510005C2301100023011088220110E022011009
:1045200008230110F0B5C64600B505000C0082B0A6
:10453000032845DD486809F0B5FF0700A06809F0C9
:10454000B1FF0600E06809F0ADFF00228046042DAF
:104550001DD13C00224B2D3CFF3C9C4225D81C2EFB
:1045600027D843461C2B24D8102330009843042816
:1045700033D00838434258411A4B80039C4660446C
:1045800000923B004246310001F0FCFE14E020693D
:1045900009F088FF3C0043011B1A9D002D3C104B85
:1045A0002D18FF3CEA009C42D9D90F4806F05EFF67
:1045B00002E00E4806F05AFF02B080BCB846F0BDDB
:1045C0000B4806F053FF0B4806F050FF0A4806F070
:1045D0004DFF0A4806F04AFFEEE70948D0E7C0461B
:1045E000D40E0E0000400340642401105C10011042
:1045F000A0230110D4230110042401103824011039
:104600000080034070B50C00022838DD486809F0CE
:1046100049FF0500A06809F045FF04001C2D39D8AA
:10462000642830D80421280002F016FA2A07520F15
:1046300093009B18194A1A499B009A181161194A4C
:104640009918A200A218520092B2E8071FD4164E81
:1046500008684240802040018446324061440A603C
:104660000E4A12489A18116801228A4310498C4652
:1046700063441A602900220006F082FF02E00D4820
:1046800006F0F4FE70BD0C4806F0F0FEFAE70B4EA3
:104690001204DDE70A4806F0E9FEF3E700000540F2
:1046A000E70300000C000540FFFF0000B0240110EC
:1046B000001005407C2401109C2401100000FFFF25
:1046C0005C10011010B584B001281DDD486809F0A8
:1046D000E9FE0300303B0400982B11D84001001B79
:1046E00080000019C00003AB02AA01A903F0EAFD93
:1046F000002814D121000D4806F042FF04B010BD7F
:104700000B4806F0B3FEF9E7052003F0F5FC094974
:1047100004F062F90100084806F032FFEEE7039A60
:104720000299019803F0EEFCE4E7C046E024011092
:10473000F80B011040420F00CC240110F0B54546A3
:10474000DE4657464E46E0B50C00050087B001280E
:1047500000DC02E14E68934930000AF035FE8346E2
:10476000002800D193E030008F490AF02DFE071E8B
:1047700049D1032D00DCE7E010220021A0680BF0F6
:1047800009F8102200210500C6B2E0680BF002F81B
:104790006B4605AC2770D87403F070FAFA22002338
:1047A000D20080185941002900DAEBE07F4B132238
:1047B000984601230290039100936A4431004046D9
:1047C00009F06EFD03F05AFAFA220023D200801895
:1047D0005941002900DAD1E00023029003910093AF
:1047E000220031004046013309F07EFD002800DA46
:1047F000CCE06A46FF212378D27C294000936C48A4
:1048000006F0BEFE7AE030006A490AF0DDFD0028BD
:1048100000D09DE0042D00DCACE010220021A06857
:104820000AF0B8FF1022C3B200210500E0689946E3
:104830000AF0B0FF80461022002120690AF0AAFF8A
:10484000434605ACFA26237060708246002703F0C9
:1048500015FAF60080197941002900DA9EE000235C
:10486000029003910093220049465048023309F018
:1048700017FD002800DA8DE0FF21504643462A004C
:104880000B400A4001404C4806F07AFE36E04B48A7
:1048900006F0ECFD4A4806F0E9FD444BFA2698463E
:1048A0000F2300259946002705ACF6004B462B4206
:1048B0003AD0EBB29A4603F0E1F980197941002928
:1048C0003EDB0023029003910093220051464046B4
:1048D000013309F009FD002817DB2900394806F0EB
:1048E0004FFE01239C464B460135E3442B4213D037
:1048F000802DDBD15946344806F042FE07B0F0BCAB
:10490000BB46B246A946A046F0BD304806F038FE88
:104910004B4601352B42EBD10A2006F05BFD802D82
:10492000E8D04B462B42C4D12900294806F028FE86
:10493000EBB29A4603F0A2F9801979410029C0DA56
:10494000012024494042BCE7234806F08FFDD5E70B
:104950003100224806F014FED0E7214806F086FD1B
:10496000204806F083FD204806F080FD1F4806F031
:104970007DFDC3E71E4806F079FDBFE7012015491C
:10498000404229E70120134940420FE7194806F049
:104990006DFDB3E7184806F069FDAFE701200D494A
:1049A00040425CE78C2501103C1D0110D81200200C
:1049B000442601103C0A0110AC2601109425011078
:1049C000B4250110341D0110F4250110F02501104B
:1049D000E8250110FFFFFF7F08260110CC260110FB
:1049E000740A0110FC2401102C2501105C25011013
:1049F00068260110302601109826011070B508486D
:104A000006F034FD8A23074C9B00074DE618A26888
:104A1000216828000C3406F0B3FDB442F7D170BD14
:104A2000E8260110283C0110FC260110F0B5DE46F6
:104A300057464E464546E0B57348F5B006F016FDBC
:104A4000002006F07BFC831C00D0D2E0102204A9D9
:104A500024A8FCF789F90390FCF7B2F9894680464F
:104A6000014303D10123984600239946674806F085
:104A700087FD674806F084FD03F000F90023654ACE
:104A800003F0E8FF04003C21200003F0A5FF0E0026
:104A9000E1212000090103F09FFF08003C2103F001
:104AA0009BFFE12105000901200003F095FF330081
:104AB00001002A00584806F063FD584806F0D6FC6D
:104AC0008023574ADB0111684B40E021C9010B40AC
:104AD00054490B600421544B1960FC3113680B429C
:104AE000FCD00520546803F007FB06002004000CEE
:104AF00004F004FE4D4904F0C8FDE621890504F0E8
:104B0000C4FD4B4904F0A7FD4A4904F0AAFD011C6D
:104B1000494804F0A0FD04F029FE04000D00300017
:104B20003C4903F059FF454B01001B6822000093EC
:104B300043482B0006F024FD424806F021FD424880
:104B400006F094FC414B424A4249434806F018FDA6
:104B5000039B002B40DD414B00269A46474624AC80
:104B600016E0A3680A2128009B4603F035FF2800C1
:104B700001910A2103F030FF5B46394A009041461B
:104B8000504606F0FDFC039B01361434B34223D09B
:104B900004AB9C46FA22F10061440023086849688E
:104BA000920004F03BFD4B463A0003F053FF2368AC
:104BB00005009846237C002BD3D1A3680A21280046
:104BC0009B4603F009FF280001910A2103F004FF2E
:104BD0005B46244A0090D2E7234806F047FCFA20BF
:104BE000400002F087FF002006F0A8FB831C00D1E4
:104BF0002CE71E4806F03AFC75B0F0BCBB46B24646
:104C0000A946A046F0BDC0460C270110CC040110F7
:104C10003C27011040420F00100E0110B027011078
:104C200000C0044000D0044000E00440333353404F
:104C30006ABC343F2D93E13A0000D841E44D002096
:104C40005C27011088270110B4270110DC27011010
:104C5000E0270110E8270110F027011010280110AB
:104C60000828011030280110382801102C270110C5
:104C700070B5144806F084FC03F000F80023124AD3
:104C800003F0E8FE04003C21200003F0A5FE0E0026
:104C9000E1212000090103F09FFE08003C2103F000
:104CA0009BFEE12105000901200003F095FE330081
:104CB00001002A00054806F063FC0A2006F08AFB82
:104CC00070BDC0465027011040420F00100E011069
:104CD00010B502F0D3FF0022034B2E2103481A60C7
:104CE00006F04EFC10BDC046E44D002050280110D7
:104CF000F0B5CE46474680B5324C0100A5440028A9
:104D000002D00378002B05D12F4B9D44C0BCB9467F
:104D1000B046F0BD2D4D10AC2A0020000AF0F8FB83
:104D200000232B4E2000310063550AF027FC002899
:104D3000EAD09627274B002498461D007F0002E00A
:104D40000435BC4207D028603100002001340AF04D
:104D500015FC0028F4D143461F681F4B00259946D7
:104D60001E0003E001350C362E2D16D038003168B8
:104D70000AF02AFB0028F5D1184A194913680133B3
:104D800013603A00FCF78EF86B005D19AD004D44DE
:104D9000414620006B689847B6E7124A40211368E5
:104DA0006846013313603B000F4A06F06BF86A4611
:104DB00002200B49FCF776F843460C48196806F0C8
:104DC000DFFBA1E7BCF7FFFF44080000FF0700007E
:104DD000201801102C250020283C0110E44D002053
:104DE000E827011034860020742801108028011063
:104DF000F0B54746CE4680B5284C06000F00A544C6
:104E0000022842DD486809F04DFB254B421E8146D1
:104E10009A423ED800236A461370224B02249846D9
:104E2000214D07E068460AF013FB41462A1A6846FE
:104E30000AF03CFB68460AF00BFBA3002A1AF9585B
:104E4000684601340AF032FBA642EBD180244A4680
:104E500069461648240106F093FB6C44484602F06C
:104E600049FE6946104A20000AF052FB0023210047
:104E70000F48635506F084FB2000FFF739FF0D4B08
:104E80009D44C0BCB946B046F0BD0B4806F0EEFAF2
:104E9000F5E70A4806F0EAFAF1E7C046FCEFFFFF43
:104EA0005FEA000020180110FF070000E828011049
:104EB0001429011004100000B0280110D42801109A
:104EC000F0B5DE4657464E464546E0B5764C0700FF
:104ED000A54448680E0009F0E5FA80461C2800D970
:104EE000AAE0B468714920000AF06EFA00285DD18A
:104EF00000239B4608339A4600236A460324137016
:104F0000032F17DD6A4B6B4D994607E068460AF0A0
:104F10009FFA49462A1A68460AF0C8FA68460AF013
:104F200097FAA3002A1AF158684601340AF0BEFA2B
:104F3000BC42EBD1404601F061FE01244346D0253E
:104F40009C402D06002201214046AC6201F0A8FDE4
:104F50004246B168584806F013FB6946574806F0C8
:104F60000FFB574806F082FA6E682640731E9E417A
:104F70005B46002B69D05346002B30D10DE06B68A7
:104F800023401F007A1E9741002B00D187E0FA20B2
:104F90000021400002F09CFD3E00002006F0CEF90A
:104FA000831CECD0474806F061FA3DE020004649FA
:104FB0000AF00AFA002843D0200044490AF004FA13
:104FC000002868D104239B4604339A4694E7012EB7
:104FD00013D0FA200021400002F07AFD3E000020AC
:104FE00006F0ACF9831CDDD16B6823401F007A1EEC
:104FF0009741002BEBD0002EEBD1802469462D4D3C
:105000003348240106F0BCFA6C446A460120314959
:10501000FBF748FF2A00694620000AF079FA0023CE
:1050200020006355FFF764FE2B4B9D44F0BCBB464C
:10503000B246A946A046F0BD284806F017FAF3E7A5
:1050400004239B4600239A4656E75346002B14D16F
:1050500005E0FA20002140006B6802F039FD0020D5
:1050600006F06CF9831CF4D09CE7002EC5D0FA2022
:105070000021400002F02CFD3E00002006F05EF909
:10508000831C00D08EE76B6823401F007A1E974177
:10509000002BECD0E9E7124806F0E8F9C4E7012E4E
:1050A00000D074E7A9E7C046FCEFFFFF28290110F4
:1050B00020180110FF0700005C290110842901104D
:1050C0009C290110C0290110302901103829011034
:1050D000CC290110EC290110041000005C10011013
:1050E0004029011010B5032802DDFFF7E9FE10BDCD
:1050F000034806F0BBF9034806F0B8F9F7E7C046E5
:10510000F4290110242A0110F0B54746CE4680B597
:10511000394C07008846A544022862DD486809F03A
:10512000C1F90200354B0A3A05009A4260D80023C3
:105130006A461370324B02249946324E07E06846A5
:105140000AF086F94946321A68460AF0AFF968460D
:105150000AF07EF94146A300321AC9586846013464
:105160000AF0A4F9A742EAD12A006946264806F0C7
:1051700007FA264B00269946254B224F98460020D9
:1051800006F0DCF8831C23D1802448460136240134
:1051900006F0F6F96C442B006A463100404606F0F2
:1051A000EFF969462000174A0AF0B2F900232000FF
:1051B000E355FFF79DFD002405E00A200A3402F0C4
:1051C00099FCA542DBD9002006F0B8F8831CF4D086
:1051D000104806F04BF9104B9D44C0BCB946B04690
:1051E000F0BD0E4806F042F90D4806F03FF9F2E72F
:1051F0000C4806F03BF9EEE7FCEFFFFF56EA000033
:1052000020180110FF070000C02A0110CC04011073
:10521000002B0110F02A011004100000582A011080
:10522000802A0110A02A0110F0B54746CE4680B56D
:10523000274C06000F00A544022841DD486809F00C
:1052400031F90300013B8046632B3DD800236A46B9
:105250001370204B022499461F4D07E068460AF060
:10526000F7F849462A1A68460AF020F968460AF013
:10527000EFF8A3002A1AF958684601340AF016F923
:10528000A642EBD100240025134E80231B016B4462
:1052900069461800104A0AF03BF980226B46120159
:1052A0009B189D5513006B4418000134FFF720FD37
:1052B000A045EAD1094B9D44C0BCB946B046F0BDFB
:1052C000074806F0D3F8F5E7064806F0CFF8F1E70F
:1052D000FCEFFFFF20180110FF0700000410000082
:1052E000242B0110402B0110F0B54746CE4680B567
:1052F00080460F00A3B0002901D0002A0CD14246FD
:1053000000231360536000239360D360404623B0B2
:10531000C0BCB946B046F0BD254B15009A4200D935
:105320001D0002F0ABFC00240026009001917F22BA
:10533000390002A80AF0ECF87F2302AA1000D65424
:105340000134FFF7D5FCA542F1D102F097FC009B98
:10535000019CC01AA141FA220600002392000F000E
:1053600003F078FB330081463B431CD0390030000A
:1053700004F0EEF9041C280004F0BBF9011C201C09
:1053800004F06FF90021041C04F0AEF900280DD0E0
:105390000848211C04F065F943464A461D605A60DE
:1053A0009860DC60B2E70024201CF5E70020F3E7FA
:1053B000A08601000024744970B50D000400164851
:1053C00006F054F82900154806F0DAF82168144868
:1053D00006F0D6F86168134806F0D2F8E06804F0E9
:1053E000C5F902000B00104806F0CAF8A06804F0E6
:1053F000BDF902000B000D4806F0C2F8052002F0CE
:105400007BFE0B4903F0E8FA01000A4806F0B8F801
:10541000094806F02BF870BDC4470110DC470110A5
:10542000F047011008480110204801103C480110C5
:1054300040420F0058480110540D0110F0B5574676
:10544000DE4645464E46E0B58BB007AB9B468B4BE0
:105450008846082700249A4605900EE00023029013
:10546000039100935A4629005046013308F03CFF4F
:10547000002813DA0137782F56D0FDB2A04500DCA2
:105480008EE002F0FBFBFA220023D2008018594183
:105490000029E3DA01207A494042DFE7631C0493E4
:1054A000059BE6009C463419E600A61966440722CF
:1054B000300074490AF02CF8734B99461C001A000E
:1054C000002304E001330C321E2B00D1A3E011783D
:1054D000A942F7D130005A00D3189B004B445968B9
:1054E0000830002900D1C6E017220AF011F8300078
:1054F0000023203004E001330C341E2B00D188E05F
:105500002278AA42F7D15A00D3189B004B449B68DB
:10551000009330213B005D4A05F0B4FC5023013775
:10552000049CF554782FA8D1594B00259A46594B25
:105530004746994602E001351D2D30D0A7422EDDA9
:10554000280001F0A3FA0428F5D12E07760FB30046
:10555000514A9B199B009B58DB07ECD5631C98466E
:10556000E3001C19E300E418059B07229C466444F1
:105570005146200009F0CCFF200017224946083090
:1055800009F0C6FF200033003021444A203005F0E6
:1055900079FC5023E554013544461D2DCED1B84643
:1055A0005A460027D9463E4B23CB23C2A04528DDCF
:1055B0003C4A3B0311684B40E021C9010B403A498A
:1055C0000B600421394B1960FC3113680B42FCD08D
:1055D00056683604360C300004F090F8344904F074
:1055E00054F8E621890504F050F83249051C04F00E
:1055F0007BF8002813D104239C460137E144032F94
:10560000D4D120000BB0F0BCBB46B246A946A046A0
:10561000F0BD294B7CE730002849083064E7059A43
:10562000631C94460493E3001C19E300E4186444EB
:1056300007222000224909F06BFF4A462000126829
:105640003B0092461821009208301E4A05F01AFCD1
:105650002022281C9346029604F088F8A344009068
:105660000191194A3021584605F00CFC502352464E
:10567000E254049CBFE7114936E7C046D812002027
:10568000FFFFFF7F904801108C4E011098480110D9
:10569000A8480110AC48011000000540B8480110AE
:1056A000804E011000C0044000D0044000E00440DF
:1056B00033335340CDCC4C3D7C480110744801102D
:1056C000DC480110E0480110F0480110F0B5374CFB
:1056D0003748A54405F0CAFE20216846FFF7AEFE14
:1056E0008023344ADB01116880244B40E021C9014A
:1056F0000B40314906000B600421304B64001960F7
:1057000013682342FCD050680004000C03F0F6FF3D
:105710002B4903F0BAFFE621890503F0B6FF2949BA
:1057200003F099FF284903F09CFF011C274803F070
:1057300092FF04F01BF802000B00254805F020FF43
:10574000002E23D0234805F091FE234805F08EFE5D
:10575000002E11DD6C46F500AD19EB00ED181F4F62
:10576000651923002200210038002033083251340B
:1057700005F006FFA542F4D13100194805F000FFFD
:10578000184805F073FE184B9D44F0BD174805F00E
:105790006DFE174805F06AFE164805F067FE1648CC
:1057A00005F064FE154805F061FEECE7DCF5FFFF4F
:1057B0002049011000C0044000D0044000E0044033
:1057C000333353406ABC343F2D93E13A0000D84153
:1057D00044490110644A0110904A01102C4B0110F9
:1057E000E04A0110F84A0110240A00007C49011027
:1057F0009C490110A4490110D4490110144A011018
:10580000802210B5D2000021074804F071F800236F
:10581000064A1360064A1360064A1360064A13607C
:105820000122064B1A7010BD60810020E04D00205F
:10583000F44D0020F04D0020586C0020AA87002075
:10584000F8B5324B324E3348F61A05F00FFE3200EF
:10585000B10A314805F094FE304B3148196805F023
:105860008FFE304F3048396805F08AFE2F4D3048A2
:10587000296805F085FE2F4C2F48216805F080FE31
:10588000236829682D48C91A05F07AFE2C4B80221E
:105890001C000025D2000C3C99181A781033501EB9
:1058A0008241AD188B42F8D140222900254805F0ED
:1058B00067FE002E1FD1002D03D1234805F0D6FD31
:1058C000F8BD224805F0D2FD214A2249224805F0C0
:1058D00057FE8023DB00214EE51802E01034AC4275
:1058E000EBD0237B002BF9D03000A36822686168DD
:1058F00005F046FEF2E7642338683100584303F0B0
:105900006BF80100164805F03BFED4E7B087002095
:1059100000000420F44F01100C500110F04D002045
:1059200030500110586C00204C500110E04D002008
:1059300068500110F44D0020805001109850011063
:105940006C810020B0500110A41E0110E85001101D
:1059500000510110045101100C510110205101108F
:10596000CC500110F8B50F000421050001F074F8C7
:105970001F2D36D82A4A2E079446FA22760FB400F5
:10598000A3199B006344D2005A60264A1A61B42FBF
:1059900043DCF843C01707407B01DB1B9800C019AC
:1059A000B421000102F0F0FF02001F49F532A419F2
:1059B000FF32A30092B25918E8072BD41B4C086899
:1059C00042401440802252019446154A61440C60C2
:1059D0009A18116801228A4315498C4663441A605B
:1059E000F8BD0F4A6E079446FA22B60F0836B40087
:1059F000A3199B006344D2005A600A4AB4201A617A
:105A0000B42F02DCF843C01738404101091A89005D
:105A10000818C5E7074C1204D1E7B427BCE7C04615
:105A2000000005401F4E00000C000540FFFF000075
:105A3000001005400000FFFFF0B54546DE46574622
:105A40004E460C00C943E0B5C91789B005000C40AB
:105A50000292B42A01DDB4220292002B00DC14234E
:105A6000029E22000393009329003300C14805F0F1
:105A700087FD01220592B44202DD01235B420593BA
:105A80000722032369080B401140063A08332A40D5
:105A90001F2D63D9002A00D012E19A00D3189B0071
:105AA0009C46B549B54A61448B46B5490492614468
:105AB0008A46B449B44A61448946B449B44E614403
:105AC0006244079588465D460693B346564692461D
:105AD00002E0059B9C4664440421079800F0BCFF4B
